{
	"Subasta.sol": {
		"Auction": {
			"abi": [
				{
					"inputs": [
						{
							"internalType": "uint256",
							"name": "_durationSeconds",
							"type": "uint256"
						}
					],
					"stateMutability": "nonpayable",
					"type": "constructor"
				},
				{
					"anonymous": false,
					"inputs": [
						{
							"indexed": true,
							"internalType": "address",
							"name": "winner",
							"type": "address"
						},
						{
							"indexed": false,
							"internalType": "uint256",
							"name": "winningAmount",
							"type": "uint256"
						}
					],
					"name": "AuctionFinalized",
					"type": "event"
				},
				{
					"anonymous": false,
					"inputs": [
						{
							"indexed": true,
							"internalType": "address",
							"name": "participant",
							"type": "address"
						},
						{
							"indexed": false,
							"internalType": "uint256",
							"name": "amount",
							"type": "uint256"
						}
					],
					"name": "ExcessWithdrawn",
					"type": "event"
				},
				{
					"anonymous": false,
					"inputs": [
						{
							"indexed": true,
							"internalType": "address",
							"name": "loser",
							"type": "address"
						},
						{
							"indexed": false,
							"internalType": "uint256",
							"name": "refundedAmount",
							"type": "uint256"
						}
					],
					"name": "LoserRefunded",
					"type": "event"
				},
				{
					"anonymous": false,
					"inputs": [
						{
							"indexed": true,
							"internalType": "address",
							"name": "bidder",
							"type": "address"
						},
						{
							"indexed": false,
							"internalType": "uint256",
							"name": "amount",
							"type": "uint256"
						}
					],
					"name": "NewBid",
					"type": "event"
				},
				{
					"inputs": [],
					"name": "COMMISSION_PERCENTAGE",
					"outputs": [
						{
							"internalType": "uint256",
							"name": "",
							"type": "uint256"
						}
					],
					"stateMutability": "view",
					"type": "function"
				},
				{
					"inputs": [],
					"name": "EXTENSION_TIME",
					"outputs": [
						{
							"internalType": "uint256",
							"name": "",
							"type": "uint256"
						}
					],
					"stateMutability": "view",
					"type": "function"
				},
				{
					"inputs": [],
					"name": "MIN_GLOBAL_INCREMENT_PERCENTAGE",
					"outputs": [
						{
							"internalType": "uint256",
							"name": "",
							"type": "uint256"
						}
					],
					"stateMutability": "view",
					"type": "function"
				},
				{
					"inputs": [],
					"name": "MIN_OWN_BID_INCREMENT_PERCENTAGE",
					"outputs": [
						{
							"internalType": "uint256",
							"name": "",
							"type": "uint256"
						}
					],
					"stateMutability": "view",
					"type": "function"
				},
				{
					"inputs": [],
					"name": "auctionEndTime",
					"outputs": [
						{
							"internalType": "uint256",
							"name": "",
							"type": "uint256"
						}
					],
					"stateMutability": "view",
					"type": "function"
				},
				{
					"inputs": [],
					"name": "auctionStartTime",
					"outputs": [
						{
							"internalType": "uint256",
							"name": "",
							"type": "uint256"
						}
					],
					"stateMutability": "view",
					"type": "function"
				},
				{
					"inputs": [],
					"name": "bid",
					"outputs": [],
					"stateMutability": "payable",
					"type": "function"
				},
				{
					"inputs": [
						{
							"internalType": "uint256",
							"name": "",
							"type": "uint256"
						}
					],
					"name": "bidderList",
					"outputs": [
						{
							"internalType": "address",
							"name": "",
							"type": "address"
						}
					],
					"stateMutability": "view",
					"type": "function"
				},
				{
					"inputs": [
						{
							"internalType": "address",
							"name": "",
							"type": "address"
						}
					],
					"name": "bids",
					"outputs": [
						{
							"internalType": "uint256",
							"name": "currentAmount",
							"type": "uint256"
						},
						{
							"internalType": "uint256",
							"name": "totalDeposited",
							"type": "uint256"
						},
						{
							"internalType": "bool",
							"name": "exists",
							"type": "bool"
						}
					],
					"stateMutability": "view",
					"type": "function"
				},
				{
					"inputs": [],
					"name": "finalizeAuction",
					"outputs": [],
					"stateMutability": "nonpayable",
					"type": "function"
				},
				{
					"inputs": [],
					"name": "finalized",
					"outputs": [
						{
							"internalType": "bool",
							"name": "",
							"type": "bool"
						}
					],
					"stateMutability": "view",
					"type": "function"
				},
				{
					"inputs": [],
					"name": "owner",
					"outputs": [
						{
							"internalType": "address",
							"name": "",
							"type": "address"
						}
					],
					"stateMutability": "view",
					"type": "function"
				},
				{
					"inputs": [],
					"name": "showBids",
					"outputs": [
						{
							"internalType": "address[]",
							"name": "",
							"type": "address[]"
						},
						{
							"internalType": "uint256[]",
							"name": "",
							"type": "uint256[]"
						}
					],
					"stateMutability": "view",
					"type": "function"
				},
				{
					"inputs": [],
					"name": "showWinner",
					"outputs": [
						{
							"internalType": "address",
							"name": "",
							"type": "address"
						},
						{
							"internalType": "uint256",
							"name": "",
							"type": "uint256"
						}
					],
					"stateMutability": "view",
					"type": "function"
				},
				{
					"inputs": [],
					"name": "timeLeft",
					"outputs": [
						{
							"internalType": "uint256",
							"name": "",
							"type": "uint256"
						}
					],
					"stateMutability": "view",
					"type": "function"
				},
				{
					"inputs": [],
					"name": "winner",
					"outputs": [
						{
							"internalType": "address",
							"name": "",
							"type": "address"
						}
					],
					"stateMutability": "view",
					"type": "function"
				},
				{
					"inputs": [],
					"name": "winningBid",
					"outputs": [
						{
							"internalType": "uint256",
							"name": "",
							"type": "uint256"
						}
					],
					"stateMutability": "view",
					"type": "function"
				},
				{
					"inputs": [],
					"name": "withdrawCommission",
					"outputs": [],
					"stateMutability": "nonpayable",
					"type": "function"
				},
				{
					"inputs": [],
					"name": "withdrawExcess",
					"outputs": [],
					"stateMutability": "nonpayable",
					"type": "function"
				}
			],
			"devdoc": {
				"kind": "dev",
				"methods": {},
				"version": 1
			},
			"evm": {
				"assembly": "    /* \"Subasta.sol\":58:6737  contract Auction {... */\n  mstore(0x40, 0xa0)\n    /* \"Subasta.sol\":1600:1766  constructor (uint _durationSeconds){... */\n  callvalue\n  dup1\n  iszero\n  tag_1\n  jumpi\n  revert(0x00, 0x00)\ntag_1:\n  pop\n  mload(0x40)\n  sub(codesize, bytecodeSize)\n  dup1\n  bytecodeSize\n  dup4\n  codecopy\n  dup2\n  dup2\n  add\n  0x40\n  mstore\n  dup2\n  add\n  swap1\n  tag_2\n  swap2\n  swap1\n  tag_3\n  jump\t// in\ntag_2:\n    /* \"Subasta.sol\":1650:1660  msg.sender */\n  caller\n    /* \"Subasta.sol\":1642:1660  owner = msg.sender */\n  0xffffffffffffffffffffffffffffffffffffffff\n  and\n  0x80\n  dup2\n  0xffffffffffffffffffffffffffffffffffffffff\n  and\n  dup2\n  mstore\n  pop\n  pop\n    /* \"Subasta.sol\":1686:1701  block.timestamp */\n  timestamp\n    /* \"Subasta.sol\":1667:1683  auctionStartTime */\n  0x02\n    /* \"Subasta.sol\":1667:1701  auctionStartTime = block.timestamp */\n  dup2\n  swap1\n  sstore\n  pop\n    /* \"Subasta.sol\":1744:1760  _durationSeconds */\n  dup1\n    /* \"Subasta.sol\":1725:1741  auctionStartTime */\n  sload(0x02)\n    /* \"Subasta.sol\":1725:1760  auctionStartTime + _durationSeconds */\n  tag_6\n  swap2\n  swap1\n  tag_7\n  jump\t// in\ntag_6:\n    /* \"Subasta.sol\":1708:1722  auctionEndTime */\n  0x03\n    /* \"Subasta.sol\":1708:1760  auctionEndTime = auctionStartTime + _durationSeconds */\n  dup2\n  swap1\n  sstore\n  pop\n    /* \"Subasta.sol\":1600:1766  constructor (uint _durationSeconds){... */\n  pop\n    /* \"Subasta.sol\":58:6737  contract Auction {... */\n  jump(tag_8)\n    /* \"#utility.yul\":88:205   */\ntag_10:\n    /* \"#utility.yul\":197:198   */\n  0x00\n    /* \"#utility.yul\":194:195   */\n  0x00\n    /* \"#utility.yul\":187:199   */\n  revert\n    /* \"#utility.yul\":334:411   */\ntag_12:\n    /* \"#utility.yul\":371:378   */\n  0x00\n    /* \"#utility.yul\":400:405   */\n  dup2\n    /* \"#utility.yul\":389:405   */\n  swap1\n  pop\n    /* \"#utility.yul\":334:411   */\n  swap2\n  swap1\n  pop\n  jump\t// out\n    /* \"#utility.yul\":417:539   */\ntag_13:\n    /* \"#utility.yul\":490:514   */\n  tag_22\n    /* \"#utility.yul\":508:513   */\n  dup2\n    /* \"#utility.yul\":490:514   */\n  tag_12\n  jump\t// in\ntag_22:\n    /* \"#utility.yul\":483:488   */\n  dup2\n    /* \"#utility.yul\":480:515   */\n  eq\n    /* \"#utility.yul\":470:533   */\n  tag_23\n  jumpi\n    /* \"#utility.yul\":529:530   */\n  0x00\n    /* \"#utility.yul\":526:527   */\n  0x00\n    /* \"#utility.yul\":519:531   */\n  revert\n    /* \"#utility.yul\":470:533   */\ntag_23:\n    /* \"#utility.yul\":417:539   */\n  pop\n  jump\t// out\n    /* \"#utility.yul\":545:688   */\ntag_14:\n    /* \"#utility.yul\":602:607   */\n  0x00\n    /* \"#utility.yul\":633:639   */\n  dup2\n    /* \"#utility.yul\":627:640   */\n  mload\n    /* \"#utility.yul\":618:640   */\n  swap1\n  pop\n    /* \"#utility.yul\":649:682   */\n  tag_25\n    /* \"#utility.yul\":676:681   */\n  dup2\n    /* \"#utility.yul\":649:682   */\n  tag_13\n  jump\t// in\ntag_25:\n    /* \"#utility.yul\":545:688   */\n  swap3\n  swap2\n  pop\n  pop\n  jump\t// out\n    /* \"#utility.yul\":694:1045   */\ntag_3:\n    /* \"#utility.yul\":764:770   */\n  0x00\n    /* \"#utility.yul\":813:815   */\n  0x20\n    /* \"#utility.yul\":801:810   */\n  dup3\n    /* \"#utility.yul\":792:799   */\n  dup5\n    /* \"#utility.yul\":788:811   */\n  sub\n    /* \"#utility.yul\":784:816   */\n  slt\n    /* \"#utility.yul\":781:900   */\n  iszero\n  tag_27\n  jumpi\n    /* \"#utility.yul\":819:898   */\n  tag_28\n  tag_10\n  jump\t// in\ntag_28:\n    /* \"#utility.yul\":781:900   */\ntag_27:\n    /* \"#utility.yul\":939:940   */\n  0x00\n    /* \"#utility.yul\":964:1028   */\n  tag_29\n    /* \"#utility.yul\":1020:1027   */\n  dup5\n    /* \"#utility.yul\":1011:1017   */\n  dup3\n    /* \"#utility.yul\":1000:1009   */\n  dup6\n    /* \"#utility.yul\":996:1018   */\n  add\n    /* \"#utility.yul\":964:1028   */\n  tag_14\n  jump\t// in\ntag_29:\n    /* \"#utility.yul\":954:1028   */\n  swap2\n  pop\n    /* \"#utility.yul\":910:1038   */\n  pop\n    /* \"#utility.yul\":694:1045   */\n  swap3\n  swap2\n  pop\n  pop\n  jump\t// out\n    /* \"#utility.yul\":1051:1231   */\ntag_15:\n    /* \"#utility.yul\":1099:1176   */\n  0x4e487b7100000000000000000000000000000000000000000000000000000000\n    /* \"#utility.yul\":1096:1097   */\n  0x00\n    /* \"#utility.yul\":1089:1177   */\n  mstore\n    /* \"#utility.yul\":1196:1200   */\n  0x11\n    /* \"#utility.yul\":1193:1194   */\n  0x04\n    /* \"#utility.yul\":1186:1201   */\n  mstore\n    /* \"#utility.yul\":1220:1224   */\n  0x24\n    /* \"#utility.yul\":1217:1218   */\n  0x00\n    /* \"#utility.yul\":1210:1225   */\n  revert\n    /* \"#utility.yul\":1237:1428   */\ntag_7:\n    /* \"#utility.yul\":1277:1280   */\n  0x00\n    /* \"#utility.yul\":1296:1316   */\n  tag_32\n    /* \"#utility.yul\":1314:1315   */\n  dup3\n    /* \"#utility.yul\":1296:1316   */\n  tag_12\n  jump\t// in\ntag_32:\n    /* \"#utility.yul\":1291:1316   */\n  swap2\n  pop\n    /* \"#utility.yul\":1330:1350   */\n  tag_33\n    /* \"#utility.yul\":1348:1349   */\n  dup4\n    /* \"#utility.yul\":1330:1350   */\n  tag_12\n  jump\t// in\ntag_33:\n    /* \"#utility.yul\":1325:1350   */\n  swap3\n  pop\n    /* \"#utility.yul\":1373:1374   */\n  dup3\n    /* \"#utility.yul\":1370:1371   */\n  dup3\n    /* \"#utility.yul\":1366:1375   */\n  add\n    /* \"#utility.yul\":1359:1375   */\n  swap1\n  pop\n    /* \"#utility.yul\":1394:1397   */\n  dup1\n    /* \"#utility.yul\":1391:1392   */\n  dup3\n    /* \"#utility.yul\":1388:1398   */\n  gt\n    /* \"#utility.yul\":1385:1421   */\n  iszero\n  tag_34\n  jumpi\n    /* \"#utility.yul\":1401:1419   */\n  tag_35\n  tag_15\n  jump\t// in\ntag_35:\n    /* \"#utility.yul\":1385:1421   */\ntag_34:\n    /* \"#utility.yul\":1237:1428   */\n  swap3\n  swap2\n  pop\n  pop\n  jump\t// out\n    /* \"Subasta.sol\":58:6737  contract Auction {... */\ntag_8:\n  mload(0x80)\n  codecopy(0x00, dataOffset(sub_0), dataSize(sub_0))\n  0x00\n  assignImmutable(\"0x2a80e1ef1d7842f27f2e6be0972bb708b9a135c38860dbe73c27c3486c34f4de\")\n  return(0x00, dataSize(sub_0))\nstop\n\nsub_0: assembly {\n        /* \"Subasta.sol\":58:6737  contract Auction {... */\n      mstore(0x40, 0x80)\n      jumpi(tag_1, lt(calldatasize, 0x04))\n      shr(0xe0, calldataload(0x00))\n      dup1\n      0x8cf80438\n      gt\n      tag_21\n      jumpi\n      dup1\n      0xd3584e84\n      gt\n      tag_22\n      jumpi\n      dup1\n      0xd3584e84\n      eq\n      tag_16\n      jumpi\n      dup1\n      0xdfbf53ae\n      eq\n      tag_17\n      jumpi\n      dup1\n      0xeb54f9ec\n      eq\n      tag_18\n      jumpi\n      dup1\n      0xf77282ab\n      eq\n      tag_19\n      jumpi\n      dup1\n      0xf89c6837\n      eq\n      tag_20\n      jumpi\n      jump(tag_1)\n    tag_22:\n      dup1\n      0x8cf80438\n      eq\n      tag_11\n      jumpi\n      dup1\n      0x8da5cb5b\n      eq\n      tag_12\n      jumpi\n      dup1\n      0xb3f05b97\n      eq\n      tag_13\n      jumpi\n      dup1\n      0xb7e03264\n      eq\n      tag_14\n      jumpi\n      dup1\n      0xc264a063\n      eq\n      tag_15\n      jumpi\n      jump(tag_1)\n    tag_21:\n      dup1\n      0x3e25e837\n      gt\n      tag_23\n      jumpi\n      dup1\n      0x3e25e837\n      eq\n      tag_6\n      jumpi\n      dup1\n      0x4b449cba\n      eq\n      tag_7\n      jumpi\n      dup1\n      0x5681104a\n      eq\n      tag_8\n      jumpi\n      dup1\n      0x62ea82db\n      eq\n      tag_9\n      jumpi\n      dup1\n      0x836898ed\n      eq\n      tag_10\n      jumpi\n      jump(tag_1)\n    tag_23:\n      dup1\n      0x1300a6d1\n      eq\n      tag_2\n      jumpi\n      dup1\n      0x14d2687c\n      eq\n      tag_3\n      jumpi\n      dup1\n      0x1998aeef\n      eq\n      tag_4\n      jumpi\n      dup1\n      0x1bf1de9b\n      eq\n      tag_5\n      jumpi\n    tag_1:\n      revert(0x00, 0x00)\n        /* \"Subasta.sol\":3382:3648  function timeLeft() external view returns (uint) {... */\n    tag_2:\n      callvalue\n      dup1\n      iszero\n      tag_24\n      jumpi\n      revert(0x00, 0x00)\n    tag_24:\n      pop\n      tag_25\n      tag_26\n      jump\t// in\n    tag_25:\n      mload(0x40)\n      tag_27\n      swap2\n      swap1\n      tag_28\n      jump\t// in\n    tag_27:\n      mload(0x40)\n      dup1\n      swap2\n      sub\n      swap1\n      return\n        /* \"Subasta.sol\":5859:6148  function showBids() external view returns (address[] memory, uint[] memory){... */\n    tag_3:\n      callvalue\n      dup1\n      iszero\n      tag_29\n      jumpi\n      revert(0x00, 0x00)\n    tag_29:\n      pop\n      tag_30\n      tag_31\n      jump\t// in\n    tag_30:\n      mload(0x40)\n      tag_32\n      swap3\n      swap2\n      swap1\n      tag_33\n      jump\t// in\n    tag_32:\n      mload(0x40)\n      dup1\n      swap2\n      sub\n      swap1\n      return\n        /* \"Subasta.sol\":1799:3343  function bid() external payable onlyWhileActive{... */\n    tag_4:\n      tag_34\n      tag_35\n      jump\t// in\n    tag_34:\n      stop\n        /* \"Subasta.sol\":580:626  uint public constant COMMISSION_PERCENTAGE = 2 */\n    tag_5:\n      callvalue\n      dup1\n      iszero\n      tag_36\n      jumpi\n      revert(0x00, 0x00)\n    tag_36:\n      pop\n      tag_37\n      tag_38\n      jump\t// in\n    tag_37:\n      mload(0x40)\n      tag_39\n      swap2\n      swap1\n      tag_28\n      jump\t// in\n    tag_39:\n      mload(0x40)\n      dup1\n      swap2\n      sub\n      swap1\n      return\n        /* \"Subasta.sol\":6171:6732  function withdrawCommission() external onlyOwner {... */\n    tag_6:\n      callvalue\n      dup1\n      iszero\n      tag_40\n      jumpi\n      revert(0x00, 0x00)\n    tag_40:\n      pop\n      tag_41\n      tag_42\n      jump\t// in\n    tag_41:\n      stop\n        /* \"Subasta.sol\":294:320  uint public auctionEndTime */\n    tag_7:\n      callvalue\n      dup1\n      iszero\n      tag_43\n      jumpi\n      revert(0x00, 0x00)\n    tag_43:\n      pop\n      tag_44\n      tag_45\n      jump\t// in\n    tag_44:\n      mload(0x40)\n      tag_46\n      swap2\n      swap1\n      tag_28\n      jump\t// in\n    tag_46:\n      mload(0x40)\n      dup1\n      swap2\n      sub\n      swap1\n      return\n        /* \"Subasta.sol\":440:488  uint public constant EXTENSION_TIME = 10 minutes */\n    tag_8:\n      callvalue\n      dup1\n      iszero\n      tag_47\n      jumpi\n      revert(0x00, 0x00)\n    tag_47:\n      pop\n      tag_48\n      tag_49\n      jump\t// in\n    tag_48:\n      mload(0x40)\n      tag_50\n      swap2\n      swap1\n      tag_28\n      jump\t// in\n    tag_50:\n      mload(0x40)\n      dup1\n      swap2\n      sub\n      swap1\n      return\n        /* \"Subasta.sol\":841:887  mapping(address => ParticipantBid) public bids */\n    tag_9:\n      callvalue\n      dup1\n      iszero\n      tag_51\n      jumpi\n      revert(0x00, 0x00)\n    tag_51:\n      pop\n      tag_52\n      0x04\n      dup1\n      calldatasize\n      sub\n      dup2\n      add\n      swap1\n      tag_53\n      swap2\n      swap1\n      tag_54\n      jump\t// in\n    tag_53:\n      tag_55\n      jump\t// in\n    tag_52:\n      mload(0x40)\n      tag_56\n      swap4\n      swap3\n      swap2\n      swap1\n      tag_57\n      jump\t// in\n    tag_56:\n      mload(0x40)\n      dup1\n      swap2\n      sub\n      swap1\n      return\n        /* \"Subasta.sol\":491:547  uint public constant MIN_GLOBAL_INCREMENT_PERCENTAGE = 5 */\n    tag_10:\n      callvalue\n      dup1\n      iszero\n      tag_58\n      jumpi\n      revert(0x00, 0x00)\n    tag_58:\n      pop\n      tag_59\n      tag_60\n      jump\t// in\n    tag_59:\n      mload(0x40)\n      tag_61\n      swap2\n      swap1\n      tag_28\n      jump\t// in\n    tag_61:\n      mload(0x40)\n      dup1\n      swap2\n      sub\n      swap1\n      return\n        /* \"Subasta.sol\":167:189  uint public winningBid */\n    tag_11:\n      callvalue\n      dup1\n      iszero\n      tag_62\n      jumpi\n      revert(0x00, 0x00)\n    tag_62:\n      pop\n      tag_63\n      tag_64\n      jump\t// in\n    tag_63:\n      mload(0x40)\n      tag_65\n      swap2\n      swap1\n      tag_28\n      jump\t// in\n    tag_65:\n      mload(0x40)\n      dup1\n      swap2\n      sub\n      swap1\n      return\n        /* \"Subasta.sol\":82:112  address public immutable owner */\n    tag_12:\n      callvalue\n      dup1\n      iszero\n      tag_66\n      jumpi\n      revert(0x00, 0x00)\n    tag_66:\n      pop\n      tag_67\n      tag_68\n      jump\t// in\n    tag_67:\n      mload(0x40)\n      tag_69\n      swap2\n      swap1\n      tag_70\n      jump\t// in\n    tag_69:\n      mload(0x40)\n      dup1\n      swap2\n      sub\n      swap1\n      return\n        /* \"Subasta.sol\":379:400  bool public finalized */\n    tag_13:\n      callvalue\n      dup1\n      iszero\n      tag_71\n      jumpi\n      revert(0x00, 0x00)\n    tag_71:\n      pop\n      tag_72\n      tag_73\n      jump\t// in\n    tag_72:\n      mload(0x40)\n      tag_74\n      swap2\n      swap1\n      tag_75\n      jump\t// in\n    tag_74:\n      mload(0x40)\n      dup1\n      swap2\n      sub\n      swap1\n      return\n        /* \"Subasta.sol\":5675:5836  function showWinner() external view returns (address, uint){... */\n    tag_14:\n      callvalue\n      dup1\n      iszero\n      tag_76\n      jumpi\n      revert(0x00, 0x00)\n    tag_76:\n      pop\n      tag_77\n      tag_78\n      jump\t// in\n    tag_77:\n      mload(0x40)\n      tag_79\n      swap3\n      swap2\n      swap1\n      tag_80\n      jump\t// in\n    tag_79:\n      mload(0x40)\n      dup1\n      swap2\n      sub\n      swap1\n      return\n        /* \"Subasta.sol\":3756:5295  function withdrawExcess() external {... */\n    tag_15:\n      callvalue\n      dup1\n      iszero\n      tag_81\n      jumpi\n      revert(0x00, 0x00)\n    tag_81:\n      pop\n      tag_82\n      tag_83\n      jump\t// in\n    tag_82:\n      stop\n        /* \"Subasta.sol\":890:917  address[] public bidderList */\n    tag_16:\n      callvalue\n      dup1\n      iszero\n      tag_84\n      jumpi\n      revert(0x00, 0x00)\n    tag_84:\n      pop\n      tag_85\n      0x04\n      dup1\n      calldatasize\n      sub\n      dup2\n      add\n      swap1\n      tag_86\n      swap2\n      swap1\n      tag_87\n      jump\t// in\n    tag_86:\n      tag_88\n      jump\t// in\n    tag_85:\n      mload(0x40)\n      tag_89\n      swap2\n      swap1\n      tag_70\n      jump\t// in\n    tag_89:\n      mload(0x40)\n      dup1\n      swap2\n      sub\n      swap1\n      return\n        /* \"Subasta.sol\":119:140  address public winner */\n    tag_17:\n      callvalue\n      dup1\n      iszero\n      tag_90\n      jumpi\n      revert(0x00, 0x00)\n    tag_90:\n      pop\n      tag_91\n      tag_92\n      jump\t// in\n    tag_91:\n      mload(0x40)\n      tag_93\n      swap2\n      swap1\n      tag_70\n      jump\t// in\n    tag_93:\n      mload(0x40)\n      dup1\n      swap2\n      sub\n      swap1\n      return\n        /* \"Subasta.sol\":227:255  uint public auctionStartTime */\n    tag_18:\n      callvalue\n      dup1\n      iszero\n      tag_94\n      jumpi\n      revert(0x00, 0x00)\n    tag_94:\n      pop\n      tag_95\n      tag_96\n      jump\t// in\n    tag_95:\n      mload(0x40)\n      tag_97\n      swap2\n      swap1\n      tag_28\n      jump\t// in\n    tag_97:\n      mload(0x40)\n      dup1\n      swap2\n      sub\n      swap1\n      return\n        /* \"Subasta.sol\":5318:5587  function finalizeAuction() external onlyOwner{... */\n    tag_19:\n      callvalue\n      dup1\n      iszero\n      tag_98\n      jumpi\n      revert(0x00, 0x00)\n    tag_98:\n      pop\n      tag_99\n      tag_100\n      jump\t// in\n    tag_99:\n      stop\n        /* \"Subasta.sol\":646:703  uint public constant MIN_OWN_BID_INCREMENT_PERCENTAGE = 1 */\n    tag_20:\n      callvalue\n      dup1\n      iszero\n      tag_101\n      jumpi\n      revert(0x00, 0x00)\n    tag_101:\n      pop\n      tag_102\n      tag_103\n      jump\t// in\n    tag_102:\n      mload(0x40)\n      tag_104\n      swap2\n      swap1\n      tag_28\n      jump\t// in\n    tag_104:\n      mload(0x40)\n      dup1\n      swap2\n      sub\n      swap1\n      return\n        /* \"Subasta.sol\":3382:3648  function timeLeft() external view returns (uint) {... */\n    tag_26:\n        /* \"Subasta.sol\":3425:3429  uint */\n      0x00\n        /* \"Subasta.sol\":3465:3479  auctionEndTime */\n      sload(0x03)\n        /* \"Subasta.sol\":3446:3461  block.timestamp */\n      timestamp\n        /* \"Subasta.sol\":3446:3479  block.timestamp >= auctionEndTime */\n      lt\n        /* \"Subasta.sol\":3442:3637  if (block.timestamp >= auctionEndTime) {... */\n      tag_106\n      jumpi\n        /* \"Subasta.sol\":3503:3504  0 */\n      0x00\n        /* \"Subasta.sol\":3496:3504  return 0 */\n      swap1\n      pop\n      jump(tag_105)\n        /* \"Subasta.sol\":3442:3637  if (block.timestamp >= auctionEndTime) {... */\n    tag_106:\n        /* \"Subasta.sol\":3588:3603  block.timestamp */\n      timestamp\n        /* \"Subasta.sol\":3571:3585  auctionEndTime */\n      sload(0x03)\n        /* \"Subasta.sol\":3571:3603  auctionEndTime - block.timestamp */\n      tag_108\n      swap2\n      swap1\n      tag_109\n      jump\t// in\n    tag_108:\n        /* \"Subasta.sol\":3564:3603  return auctionEndTime - block.timestamp */\n      swap1\n      pop\n        /* \"Subasta.sol\":3382:3648  function timeLeft() external view returns (uint) {... */\n    tag_105:\n      swap1\n      jump\t// out\n        /* \"Subasta.sol\":5859:6148  function showBids() external view returns (address[] memory, uint[] memory){... */\n    tag_31:\n        /* \"Subasta.sol\":5902:5918  address[] memory */\n      0x60\n        /* \"Subasta.sol\":5920:5933  uint[] memory */\n      dup1\n        /* \"Subasta.sol\":5941:5962  uint[] memory amounts */\n      0x00\n        /* \"Subasta.sol\":5976:5986  bidderList */\n      0x06\n        /* \"Subasta.sol\":5976:5993  bidderList.length */\n      dup1\n      sload\n      swap1\n      pop\n        /* \"Subasta.sol\":5965:5994  new uint[](bidderList.length) */\n      0xffffffffffffffff\n      dup2\n      gt\n      iszero\n      tag_111\n      jumpi\n      tag_112\n      tag_113\n      jump\t// in\n    tag_112:\n    tag_111:\n      mload(0x40)\n      swap1\n      dup1\n      dup3\n      mstore\n      dup1\n      0x20\n      mul\n      0x20\n      add\n      dup3\n      add\n      0x40\n      mstore\n      dup1\n      iszero\n      tag_114\n      jumpi\n      dup2\n      0x20\n      add\n      0x20\n      dup3\n      mul\n      dup1\n      calldatasize\n      dup4\n      calldatacopy\n      dup1\n      dup3\n      add\n      swap2\n      pop\n      pop\n      swap1\n      pop\n    tag_114:\n      pop\n        /* \"Subasta.sol\":5941:5994  uint[] memory amounts = new uint[](bidderList.length) */\n      swap1\n      pop\n        /* \"Subasta.sol\":6006:6012  uint i */\n      0x00\n        /* \"Subasta.sol\":6015:6016  0 */\n      0x00\n        /* \"Subasta.sol\":6006:6016  uint i = 0 */\n      swap1\n      pop\n        /* \"Subasta.sol\":6001:6110  for (uint i = 0; i < bidderList.length; i++){... */\n    tag_115:\n        /* \"Subasta.sol\":6022:6032  bidderList */\n      0x06\n        /* \"Subasta.sol\":6022:6039  bidderList.length */\n      dup1\n      sload\n      swap1\n      pop\n        /* \"Subasta.sol\":6018:6019  i */\n      dup2\n        /* \"Subasta.sol\":6018:6039  i < bidderList.length */\n      lt\n        /* \"Subasta.sol\":6001:6110  for (uint i = 0; i < bidderList.length; i++){... */\n      iszero\n      tag_116\n      jumpi\n        /* \"Subasta.sol\":6069:6073  bids */\n      0x05\n        /* \"Subasta.sol\":6069:6088  bids[bidderList[i]] */\n      0x00\n        /* \"Subasta.sol\":6074:6084  bidderList */\n      0x06\n        /* \"Subasta.sol\":6085:6086  i */\n      dup4\n        /* \"Subasta.sol\":6074:6087  bidderList[i] */\n      dup2\n      sload\n      dup2\n      lt\n      tag_118\n      jumpi\n      tag_119\n      tag_120\n      jump\t// in\n    tag_119:\n    tag_118:\n      swap1\n      0x00\n      mstore\n      keccak256(0x00, 0x20)\n      add\n      0x00\n      swap1\n      sload\n      swap1\n      0x0100\n      exp\n      swap1\n      div\n      0xffffffffffffffffffffffffffffffffffffffff\n      and\n        /* \"Subasta.sol\":6069:6088  bids[bidderList[i]] */\n      0xffffffffffffffffffffffffffffffffffffffff\n      and\n      0xffffffffffffffffffffffffffffffffffffffff\n      and\n      dup2\n      mstore\n      0x20\n      add\n      swap1\n      dup2\n      mstore\n      0x20\n      add\n      0x00\n      keccak256\n        /* \"Subasta.sol\":6069:6102  bids[bidderList[i]].currentAmount */\n      0x00\n      add\n      sload\n        /* \"Subasta.sol\":6056:6063  amounts */\n      dup3\n        /* \"Subasta.sol\":6064:6065  i */\n      dup3\n        /* \"Subasta.sol\":6056:6066  amounts[i] */\n      dup2\n      mload\n      dup2\n      lt\n      tag_122\n      jumpi\n      tag_123\n      tag_120\n      jump\t// in\n    tag_123:\n    tag_122:\n      0x20\n      mul\n      0x20\n      add\n      add\n        /* \"Subasta.sol\":6056:6102  amounts[i] = bids[bidderList[i]].currentAmount */\n      dup2\n      dup2\n      mstore\n      pop\n      pop\n        /* \"Subasta.sol\":6041:6044  i++ */\n      dup1\n      dup1\n      0x01\n      add\n      swap2\n      pop\n      pop\n        /* \"Subasta.sol\":6001:6110  for (uint i = 0; i < bidderList.length; i++){... */\n      jump(tag_115)\n    tag_116:\n      pop\n        /* \"Subasta.sol\":6124:6134  bidderList */\n      0x06\n        /* \"Subasta.sol\":6136:6143  amounts */\n      dup2\n        /* \"Subasta.sol\":6116:6144  return (bidderList, amounts) */\n      dup2\n      dup1\n      sload\n      dup1\n      0x20\n      mul\n      0x20\n      add\n      mload(0x40)\n      swap1\n      dup2\n      add\n      0x40\n      mstore\n      dup1\n      swap3\n      swap2\n      swap1\n      dup2\n      dup2\n      mstore\n      0x20\n      add\n      dup3\n      dup1\n      sload\n      dup1\n      iszero\n      tag_124\n      jumpi\n      0x20\n      mul\n      dup3\n      add\n      swap2\n      swap1\n      0x00\n      mstore\n      keccak256(0x00, 0x20)\n      swap1\n    tag_125:\n      dup2\n      0x00\n      swap1\n      sload\n      swap1\n      0x0100\n      exp\n      swap1\n      div\n      0xffffffffffffffffffffffffffffffffffffffff\n      and\n      0xffffffffffffffffffffffffffffffffffffffff\n      and\n      dup2\n      mstore\n      0x20\n      add\n      swap1\n      0x01\n      add\n      swap1\n      dup1\n      dup4\n      gt\n      tag_125\n      jumpi\n    tag_124:\n      pop\n      pop\n      pop\n      pop\n      pop\n      swap2\n      pop\n      swap3\n      pop\n      swap3\n      pop\n      pop\n        /* \"Subasta.sol\":5859:6148  function showBids() external view returns (address[] memory, uint[] memory){... */\n      swap1\n      swap2\n      jump\t// out\n        /* \"Subasta.sol\":1799:3343  function bid() external payable onlyWhileActive{... */\n    tag_35:\n        /* \"Subasta.sol\":1281:1295  auctionEndTime */\n      sload(0x03)\n        /* \"Subasta.sol\":1263:1278  block.timestamp */\n      timestamp\n        /* \"Subasta.sol\":1263:1295  block.timestamp < auctionEndTime */\n      lt\n        /* \"Subasta.sol\":1255:1333  require(block.timestamp < auctionEndTime, \"Subasta: La subasta ha terminado.\") */\n      tag_127\n      jumpi\n      mload(0x40)\n      0x08c379a000000000000000000000000000000000000000000000000000000000\n      dup2\n      mstore\n      0x04\n      add\n      tag_128\n      swap1\n      tag_129\n      jump\t// in\n    tag_128:\n      mload(0x40)\n      dup1\n      swap2\n      sub\n      swap1\n      revert\n    tag_127:\n        /* \"Subasta.sol\":1349:1358  finalized */\n      0x04\n      0x00\n      swap1\n      sload\n      swap1\n      0x0100\n      exp\n      swap1\n      div\n      0xff\n      and\n        /* \"Subasta.sol\":1348:1358  !finalized */\n      iszero\n        /* \"Subasta.sol\":1340:1415  require(!finalized, \"Subasta: La subasta ya se ha finalizado manualmente.\") */\n      tag_130\n      jumpi\n      mload(0x40)\n      0x08c379a000000000000000000000000000000000000000000000000000000000\n      dup2\n      mstore\n      0x04\n      add\n      tag_131\n      swap1\n      tag_132\n      jump\t// in\n    tag_131:\n      mload(0x40)\n      dup1\n      swap2\n      sub\n      swap1\n      revert\n    tag_130:\n        /* \"Subasta.sol\":1873:1874  0 */\n      0x00\n        /* \"Subasta.sol\":1861:1870  msg.value */\n      callvalue\n        /* \"Subasta.sol\":1861:1874  msg.value > 0 */\n      gt\n        /* \"Subasta.sol\":1853:1896  require(msg.value > 0, \"Debes enviar ETH.\") */\n      tag_134\n      jumpi\n      mload(0x40)\n      0x08c379a000000000000000000000000000000000000000000000000000000000\n      dup2\n      mstore\n      0x04\n      add\n      tag_135\n      swap1\n      tag_136\n      jump\t// in\n    tag_135:\n      mload(0x40)\n      dup1\n      swap2\n      sub\n      swap1\n      revert\n    tag_134:\n        /* \"Subasta.sol\":1905:1935  ParticipantBid storage userBid */\n      0x00\n        /* \"Subasta.sol\":1938:1942  bids */\n      0x05\n        /* \"Subasta.sol\":1938:1954  bids[msg.sender] */\n      0x00\n        /* \"Subasta.sol\":1943:1953  msg.sender */\n      caller\n        /* \"Subasta.sol\":1938:1954  bids[msg.sender] */\n      0xffffffffffffffffffffffffffffffffffffffff\n      and\n      0xffffffffffffffffffffffffffffffffffffffff\n      and\n      dup2\n      mstore\n      0x20\n      add\n      swap1\n      dup2\n      mstore\n      0x20\n      add\n      0x00\n      keccak256\n        /* \"Subasta.sol\":1905:1954  ParticipantBid storage userBid = bids[msg.sender] */\n      swap1\n      pop\n        /* \"Subasta.sol\":1961:1977  uint newTotalBid */\n      0x00\n        /* \"Subasta.sol\":2004:2013  msg.value */\n      callvalue\n        /* \"Subasta.sol\":1980:1987  userBid */\n      dup3\n        /* \"Subasta.sol\":1980:2001  userBid.currentAmount */\n      0x00\n      add\n      sload\n        /* \"Subasta.sol\":1980:2013  userBid.currentAmount + msg.value */\n      tag_137\n      swap2\n      swap1\n      tag_138\n      jump\t// in\n    tag_137:\n        /* \"Subasta.sol\":1961:2013  uint newTotalBid = userBid.currentAmount + msg.value */\n      swap1\n      pop\n        /* \"Subasta.sol\":2107:2114  userBid */\n      dup2\n        /* \"Subasta.sol\":2107:2121  userBid.exists */\n      0x02\n      add\n      0x00\n      swap1\n      sload\n      swap1\n      0x0100\n      exp\n      swap1\n      div\n      0xff\n      and\n        /* \"Subasta.sol\":2107:2150  userBid.exists && userBid.currentAmount > 0 */\n      dup1\n      iszero\n      tag_139\n      jumpi\n      pop\n        /* \"Subasta.sol\":2149:2150  0 */\n      0x00\n        /* \"Subasta.sol\":2125:2132  userBid */\n      dup3\n        /* \"Subasta.sol\":2125:2146  userBid.currentAmount */\n      0x00\n      add\n      sload\n        /* \"Subasta.sol\":2125:2150  userBid.currentAmount > 0 */\n      gt\n        /* \"Subasta.sol\":2107:2150  userBid.exists && userBid.currentAmount > 0 */\n    tag_139:\n        /* \"Subasta.sol\":2103:2384  if (userBid.exists && userBid.currentAmount > 0){... */\n      iszero\n      tag_140\n      jumpi\n        /* \"Subasta.sol\":2158:2175  uint minOwnAmount */\n      0x00\n        /* \"Subasta.sol\":2261:2264  100 */\n      0x64\n        /* \"Subasta.sol\":702:703  1 */\n      0x01\n        /* \"Subasta.sol\":2203:2210  userBid */\n      dup5\n        /* \"Subasta.sol\":2203:2224  userBid.currentAmount */\n      0x00\n      add\n      sload\n        /* \"Subasta.sol\":2203:2259  userBid.currentAmount * MIN_OWN_BID_INCREMENT_PERCENTAGE */\n      tag_141\n      swap2\n      swap1\n      tag_142\n      jump\t// in\n    tag_141:\n        /* \"Subasta.sol\":2202:2264  (userBid.currentAmount * MIN_OWN_BID_INCREMENT_PERCENTAGE)/100 */\n      tag_143\n      swap2\n      swap1\n      tag_144\n      jump\t// in\n    tag_143:\n        /* \"Subasta.sol\":2178:2185  userBid */\n      dup4\n        /* \"Subasta.sol\":2178:2199  userBid.currentAmount */\n      0x00\n      add\n      sload\n        /* \"Subasta.sol\":2178:2264  userBid.currentAmount + (userBid.currentAmount * MIN_OWN_BID_INCREMENT_PERCENTAGE)/100 */\n      tag_145\n      swap2\n      swap1\n      tag_138\n      jump\t// in\n    tag_145:\n        /* \"Subasta.sol\":2158:2264  uint minOwnAmount = userBid.currentAmount + (userBid.currentAmount * MIN_OWN_BID_INCREMENT_PERCENTAGE)/100 */\n      swap1\n      pop\n        /* \"Subasta.sol\":2294:2306  minOwnAmount */\n      dup1\n        /* \"Subasta.sol\":2279:2290  newTotalBid */\n      dup3\n        /* \"Subasta.sol\":2279:2306  newTotalBid >= minOwnAmount */\n      lt\n      iszero\n        /* \"Subasta.sol\":2271:2378  require(newTotalBid >= minOwnAmount, \"Subasta: Su oferta debe exceder su oferta actual en al menos un 5%.\") */\n      tag_146\n      jumpi\n      mload(0x40)\n      0x08c379a000000000000000000000000000000000000000000000000000000000\n      dup2\n      mstore\n      0x04\n      add\n      tag_147\n      swap1\n      tag_148\n      jump\t// in\n    tag_147:\n      mload(0x40)\n      dup1\n      swap2\n      sub\n      swap1\n      revert\n    tag_146:\n        /* \"Subasta.sol\":2151:2384  {... */\n      pop\n        /* \"Subasta.sol\":2103:2384  if (userBid.exists && userBid.currentAmount > 0){... */\n    tag_140:\n        /* \"Subasta.sol\":2480:2481  0 */\n      0x00\n        /* \"Subasta.sol\":2466:2476  winningBid */\n      sload(0x01)\n        /* \"Subasta.sol\":2466:2481  winningBid == 0 */\n      sub\n        /* \"Subasta.sol\":2462:2794  if (winningBid == 0){... */\n      tag_149\n      jumpi\n        /* \"Subasta.sol\":2512:2513  0 */\n      0x00\n        /* \"Subasta.sol\":2497:2508  newTotalBid */\n      dup2\n        /* \"Subasta.sol\":2497:2513  newTotalBid >= 0 */\n      lt\n      iszero\n        /* \"Subasta.sol\":2489:2570  require(newTotalBid >= 0, \"Subasta: La primera oferta debe ser mayor que cero.\" ) */\n      tag_150\n      jumpi\n      mload(0x40)\n      0x08c379a000000000000000000000000000000000000000000000000000000000\n      dup2\n      mstore\n      0x04\n      add\n      tag_151\n      swap1\n      tag_152\n      jump\t// in\n    tag_151:\n      mload(0x40)\n      dup1\n      swap2\n      sub\n      swap1\n      revert\n    tag_150:\n        /* \"Subasta.sol\":2462:2794  if (winningBid == 0){... */\n      jump(tag_153)\n    tag_149:\n        /* \"Subasta.sol\":2587:2607  uint minGlobalAmount */\n      0x00\n        /* \"Subasta.sol\":2670:2673  100 */\n      0x64\n        /* \"Subasta.sol\":546:547  5 */\n      0x05\n        /* \"Subasta.sol\":2624:2634  winningBid */\n      sload(0x01)\n        /* \"Subasta.sol\":2624:2668  winningBid * MIN_GLOBAL_INCREMENT_PERCENTAGE */\n      tag_154\n      swap2\n      swap1\n      tag_142\n      jump\t// in\n    tag_154:\n        /* \"Subasta.sol\":2623:2673  (winningBid * MIN_GLOBAL_INCREMENT_PERCENTAGE)/100 */\n      tag_155\n      swap2\n      swap1\n      tag_144\n      jump\t// in\n    tag_155:\n        /* \"Subasta.sol\":2610:2620  winningBid */\n      sload(0x01)\n        /* \"Subasta.sol\":2610:2673  winningBid + (winningBid * MIN_GLOBAL_INCREMENT_PERCENTAGE)/100 */\n      tag_156\n      swap2\n      swap1\n      tag_138\n      jump\t// in\n    tag_156:\n        /* \"Subasta.sol\":2587:2673  uint minGlobalAmount = winningBid + (winningBid * MIN_GLOBAL_INCREMENT_PERCENTAGE)/100 */\n      swap1\n      pop\n        /* \"Subasta.sol\":2703:2718  minGlobalAmount */\n      dup1\n        /* \"Subasta.sol\":2688:2699  newTotalBid */\n      dup3\n        /* \"Subasta.sol\":2688:2718  newTotalBid >= minGlobalAmount */\n      lt\n      iszero\n        /* \"Subasta.sol\":2680:2790  require(newTotalBid >= minGlobalAmount, \"Subasta: Su oferta debe exceder la oferta actual en al menos un 5%.\") */\n      tag_157\n      jumpi\n      mload(0x40)\n      0x08c379a000000000000000000000000000000000000000000000000000000000\n      dup2\n      mstore\n      0x04\n      add\n      tag_158\n      swap1\n      tag_159\n      jump\t// in\n    tag_158:\n      mload(0x40)\n      dup1\n      swap2\n      sub\n      swap1\n      revert\n    tag_157:\n        /* \"Subasta.sol\":2580:2794  {... */\n      pop\n        /* \"Subasta.sol\":2462:2794  if (winningBid == 0){... */\n    tag_153:\n        /* \"Subasta.sol\":2838:2845  userBid */\n      dup2\n        /* \"Subasta.sol\":2838:2852  userBid.exists */\n      0x02\n      add\n      0x00\n      swap1\n      sload\n      swap1\n      0x0100\n      exp\n      swap1\n      div\n      0xff\n      and\n        /* \"Subasta.sol\":2833:2919  if (!userBid.exists){... */\n      tag_160\n      jumpi\n        /* \"Subasta.sol\":2860:2870  bidderList */\n      0x06\n        /* \"Subasta.sol\":2876:2886  msg.sender */\n      caller\n        /* \"Subasta.sol\":2860:2887  bidderList.push(msg.sender) */\n      swap1\n      dup1\n      0x01\n      dup2\n      sload\n      add\n      dup1\n      dup3\n      sstore\n      dup1\n      swap2\n      pop\n      pop\n      0x01\n      swap1\n      sub\n      swap1\n      0x00\n      mstore\n      keccak256(0x00, 0x20)\n      add\n      0x00\n      swap1\n      swap2\n      swap1\n      swap2\n      swap1\n      swap2\n      0x0100\n      exp\n      dup2\n      sload\n      dup2\n      0xffffffffffffffffffffffffffffffffffffffff\n      mul\n      not\n      and\n      swap1\n      dup4\n      0xffffffffffffffffffffffffffffffffffffffff\n      and\n      mul\n      or\n      swap1\n      sstore\n      pop\n        /* \"Subasta.sol\":2911:2915  true */\n      0x01\n        /* \"Subasta.sol\":2894:2901  userBid */\n      dup3\n        /* \"Subasta.sol\":2894:2908  userBid.exists */\n      0x02\n      add\n      0x00\n        /* \"Subasta.sol\":2894:2915  userBid.exists = true */\n      0x0100\n      exp\n      dup2\n      sload\n      dup2\n      0xff\n      mul\n      not\n      and\n      swap1\n      dup4\n      iszero\n      iszero\n      mul\n      or\n      swap1\n      sstore\n      pop\n        /* \"Subasta.sol\":2833:2919  if (!userBid.exists){... */\n    tag_160:\n        /* \"Subasta.sol\":2947:2956  msg.value */\n      callvalue\n        /* \"Subasta.sol\":2921:2928  userBid */\n      dup3\n        /* \"Subasta.sol\":2921:2943  userBid.totalDeposited */\n      0x01\n      add\n      0x00\n        /* \"Subasta.sol\":2921:2956  userBid.totalDeposited += msg.value */\n      dup3\n      dup3\n      sload\n      tag_162\n      swap2\n      swap1\n      tag_138\n      jump\t// in\n    tag_162:\n      swap3\n      pop\n      pop\n      dup2\n      swap1\n      sstore\n      pop\n        /* \"Subasta.sol\":2983:2994  newTotalBid */\n      dup1\n        /* \"Subasta.sol\":2959:2966  userBid */\n      dup3\n        /* \"Subasta.sol\":2959:2980  userBid.currentAmount */\n      0x00\n      add\n        /* \"Subasta.sol\":2959:2994  userBid.currentAmount = newTotalBid */\n      dup2\n      swap1\n      sstore\n      pop\n        /* \"Subasta.sol\":3089:3099  winningBid */\n      sload(0x01)\n        /* \"Subasta.sol\":3075:3086  newTotalBid */\n      dup2\n        /* \"Subasta.sol\":3075:3099  newTotalBid > winningBid */\n      gt\n        /* \"Subasta.sol\":3071:3153  if (newTotalBid > winningBid){... */\n      iszero\n      tag_163\n      jumpi\n        /* \"Subasta.sol\":3116:3127  newTotalBid */\n      dup1\n        /* \"Subasta.sol\":3103:3113  winningBid */\n      0x01\n        /* \"Subasta.sol\":3103:3127  winningBid = newTotalBid */\n      dup2\n      swap1\n      sstore\n      pop\n        /* \"Subasta.sol\":3139:3149  msg.sender */\n      caller\n        /* \"Subasta.sol\":3130:3136  winner */\n      0x00\n      0x00\n        /* \"Subasta.sol\":3130:3149  winner = msg.sender */\n      0x0100\n      exp\n      dup2\n      sload\n      dup2\n      0xffffffffffffffffffffffffffffffffffffffff\n      mul\n      not\n      and\n      swap1\n      dup4\n      0xffffffffffffffffffffffffffffffffffffffff\n      and\n      mul\n      or\n      swap1\n      sstore\n      pop\n        /* \"Subasta.sol\":3071:3153  if (newTotalBid > winningBid){... */\n    tag_163:\n        /* \"Subasta.sol\":478:488  10 minutes */\n      0x0258\n        /* \"Subasta.sol\":3224:3239  block.timestamp */\n      timestamp\n        /* \"Subasta.sol\":3207:3221  auctionEndTime */\n      sload(0x03)\n        /* \"Subasta.sol\":3207:3239  auctionEndTime - block.timestamp */\n      tag_164\n      swap2\n      swap1\n      tag_109\n      jump\t// in\n    tag_164:\n        /* \"Subasta.sol\":3207:3257  auctionEndTime - block.timestamp <= EXTENSION_TIME */\n      gt\n        /* \"Subasta.sol\":3203:3301  if (auctionEndTime - block.timestamp <= EXTENSION_TIME){... */\n      tag_165\n      jumpi\n        /* \"Subasta.sol\":478:488  10 minutes */\n      0x0258\n        /* \"Subasta.sol\":3265:3279  auctionEndTime */\n      0x03\n      0x00\n        /* \"Subasta.sol\":3265:3297  auctionEndTime += EXTENSION_TIME */\n      dup3\n      dup3\n      sload\n      tag_166\n      swap2\n      swap1\n      tag_138\n      jump\t// in\n    tag_166:\n      swap3\n      pop\n      pop\n      dup2\n      swap1\n      sstore\n      pop\n        /* \"Subasta.sol\":3203:3301  if (auctionEndTime - block.timestamp <= EXTENSION_TIME){... */\n    tag_165:\n        /* \"Subasta.sol\":3315:3325  msg.sender */\n      caller\n        /* \"Subasta.sol\":3308:3339  NewBid(msg.sender, newTotalBid) */\n      0xffffffffffffffffffffffffffffffffffffffff\n      and\n      0xdd0b6c6a77960e2066c96171b4d7ac9e8b4c184011f38544afa36a5bb63ec59f\n        /* \"Subasta.sol\":3327:3338  newTotalBid */\n      dup3\n        /* \"Subasta.sol\":3308:3339  NewBid(msg.sender, newTotalBid) */\n      mload(0x40)\n      tag_167\n      swap2\n      swap1\n      tag_28\n      jump\t// in\n    tag_167:\n      mload(0x40)\n      dup1\n      swap2\n      sub\n      swap1\n      log2\n        /* \"Subasta.sol\":1846:3343  {... */\n      pop\n      pop\n        /* \"Subasta.sol\":1799:3343  function bid() external payable onlyWhileActive{... */\n      jump\t// out\n        /* \"Subasta.sol\":580:626  uint public constant COMMISSION_PERCENTAGE = 2 */\n    tag_38:\n        /* \"Subasta.sol\":625:626  2 */\n      0x02\n        /* \"Subasta.sol\":580:626  uint public constant COMMISSION_PERCENTAGE = 2 */\n      dup2\n      jump\t// out\n        /* \"Subasta.sol\":6171:6732  function withdrawCommission() external onlyOwner {... */\n    tag_42:\n        /* \"Subasta.sol\":1525:1530  owner */\n      immutable(\"0x2a80e1ef1d7842f27f2e6be0972bb708b9a135c38860dbe73c27c3486c34f4de\")\n        /* \"Subasta.sol\":1511:1530  msg.sender == owner */\n      0xffffffffffffffffffffffffffffffffffffffff\n      and\n        /* \"Subasta.sol\":1511:1521  msg.sender */\n      caller\n        /* \"Subasta.sol\":1511:1530  msg.sender == owner */\n      0xffffffffffffffffffffffffffffffffffffffff\n      and\n      eq\n        /* \"Subasta.sol\":1502:1584  require( msg.sender == owner, \"Subasta: Solo el propietario puede ejecutar esto.\") */\n      tag_169\n      jumpi\n      mload(0x40)\n      0x08c379a000000000000000000000000000000000000000000000000000000000\n      dup2\n      mstore\n      0x04\n      add\n      tag_170\n      swap1\n      tag_171\n      jump\t// in\n    tag_170:\n      mload(0x40)\n      dup1\n      swap2\n      sub\n      swap1\n      revert\n    tag_169:\n        /* \"Subasta.sol\":6239:6248  finalized */\n      0x04\n      0x00\n      swap1\n      sload\n      swap1\n      0x0100\n      exp\n      swap1\n      div\n      0xff\n      and\n        /* \"Subasta.sol\":6231:6318  require(finalized, \"Subasta: La subasta debe ser finalizada para retirar la comision.\") */\n      tag_173\n      jumpi\n      mload(0x40)\n      0x08c379a000000000000000000000000000000000000000000000000000000000\n      dup2\n      mstore\n      0x04\n      add\n      tag_174\n      swap1\n      tag_175\n      jump\t// in\n    tag_174:\n      mload(0x40)\n      dup1\n      swap2\n      sub\n      swap1\n      revert\n    tag_173:\n        /* \"Subasta.sol\":6350:6351  0 */\n      0x00\n        /* \"Subasta.sol\":6337:6347  winningBid */\n      sload(0x01)\n        /* \"Subasta.sol\":6337:6351  winningBid > 0 */\n      gt\n        /* \"Subasta.sol\":6329:6414  require(winningBid > 0, \"Subasta: No hay oferta ganadora para calcular la comision.\") */\n      tag_176\n      jumpi\n      mload(0x40)\n      0x08c379a000000000000000000000000000000000000000000000000000000000\n      dup2\n      mstore\n      0x04\n      add\n      tag_177\n      swap1\n      tag_178\n      jump\t// in\n    tag_177:\n      mload(0x40)\n      dup1\n      swap2\n      sub\n      swap1\n      revert\n    tag_176:\n        /* \"Subasta.sol\":6427:6442  uint commission */\n      0x00\n        /* \"Subasta.sol\":6484:6487  100 */\n      0x64\n        /* \"Subasta.sol\":625:626  2 */\n      0x02\n        /* \"Subasta.sol\":6446:6456  winningBid */\n      sload(0x01)\n        /* \"Subasta.sol\":6446:6480  winningBid * COMMISSION_PERCENTAGE */\n      tag_179\n      swap2\n      swap1\n      tag_142\n      jump\t// in\n    tag_179:\n        /* \"Subasta.sol\":6445:6487  (winningBid * COMMISSION_PERCENTAGE) / 100 */\n      tag_180\n      swap2\n      swap1\n      tag_144\n      jump\t// in\n    tag_180:\n        /* \"Subasta.sol\":6427:6487  uint commission = (winningBid * COMMISSION_PERCENTAGE) / 100 */\n      swap1\n      pop\n        /* \"Subasta.sol\":6521:6522  0 */\n      0x00\n        /* \"Subasta.sol\":6508:6518  commission */\n      dup2\n        /* \"Subasta.sol\":6508:6522  commission > 0 */\n      gt\n        /* \"Subasta.sol\":6500:6587  require(commission > 0, \"Subasta: No hay comision para retirar o ya ha sido retirado.\") */\n      tag_181\n      jumpi\n      mload(0x40)\n      0x08c379a000000000000000000000000000000000000000000000000000000000\n      dup2\n      mstore\n      0x04\n      add\n      tag_182\n      swap1\n      tag_183\n      jump\t// in\n    tag_182:\n      mload(0x40)\n      dup1\n      swap2\n      sub\n      swap1\n      revert\n    tag_181:\n        /* \"Subasta.sol\":6602:6614  bool success */\n      0x00\n        /* \"Subasta.sol\":6628:6633  owner */\n      immutable(\"0x2a80e1ef1d7842f27f2e6be0972bb708b9a135c38860dbe73c27c3486c34f4de\")\n        /* \"Subasta.sol\":6620:6639  payable(owner).call */\n      0xffffffffffffffffffffffffffffffffffffffff\n      and\n        /* \"Subasta.sol\":6647:6657  commission */\n      dup3\n        /* \"Subasta.sol\":6620:6662  payable(owner).call{value: commission}(\"\") */\n      mload(0x40)\n      tag_184\n      swap1\n      tag_185\n      jump\t// in\n    tag_184:\n      0x00\n      mload(0x40)\n      dup1\n      dup4\n      sub\n      dup2\n      dup6\n      dup8\n      gas\n      call\n      swap3\n      pop\n      pop\n      pop\n      returndatasize\n      dup1\n      0x00\n      dup2\n      eq\n      tag_188\n      jumpi\n      mload(0x40)\n      swap2\n      pop\n      and(add(returndatasize, 0x3f), not(0x1f))\n      dup3\n      add\n      0x40\n      mstore\n      returndatasize\n      dup3\n      mstore\n      returndatasize\n      0x00\n      0x20\n      dup5\n      add\n      returndatacopy\n      jump(tag_187)\n    tag_188:\n      0x60\n      swap2\n      pop\n    tag_187:\n      pop\n        /* \"Subasta.sol\":6601:6662  (bool success, ) = payable(owner).call{value: commission}(\"\") */\n      pop\n      swap1\n      pop\n        /* \"Subasta.sol\":6681:6688  success */\n      dup1\n        /* \"Subasta.sol\":6673:6724  require(success, \"Subasta: No retiro la comision.\") */\n      tag_189\n      jumpi\n      mload(0x40)\n      0x08c379a000000000000000000000000000000000000000000000000000000000\n      dup2\n      mstore\n      0x04\n      add\n      tag_190\n      swap1\n      tag_191\n      jump\t// in\n    tag_190:\n      mload(0x40)\n      dup1\n      swap2\n      sub\n      swap1\n      revert\n    tag_189:\n        /* \"Subasta.sol\":6220:6732  {... */\n      pop\n      pop\n        /* \"Subasta.sol\":6171:6732  function withdrawCommission() external onlyOwner {... */\n      jump\t// out\n        /* \"Subasta.sol\":294:320  uint public auctionEndTime */\n    tag_45:\n      sload(0x03)\n      dup2\n      jump\t// out\n        /* \"Subasta.sol\":440:488  uint public constant EXTENSION_TIME = 10 minutes */\n    tag_49:\n        /* \"Subasta.sol\":478:488  10 minutes */\n      0x0258\n        /* \"Subasta.sol\":440:488  uint public constant EXTENSION_TIME = 10 minutes */\n      dup2\n      jump\t// out\n        /* \"Subasta.sol\":841:887  mapping(address => ParticipantBid) public bids */\n    tag_55:\n      mstore(0x20, 0x05)\n      dup1\n      0x00\n      mstore\n      keccak256(0x00, 0x40)\n      0x00\n      swap2\n      pop\n      swap1\n      pop\n      dup1\n      0x00\n      add\n      sload\n      swap1\n      dup1\n      0x01\n      add\n      sload\n      swap1\n      dup1\n      0x02\n      add\n      0x00\n      swap1\n      sload\n      swap1\n      0x0100\n      exp\n      swap1\n      div\n      0xff\n      and\n      swap1\n      pop\n      dup4\n      jump\t// out\n        /* \"Subasta.sol\":491:547  uint public constant MIN_GLOBAL_INCREMENT_PERCENTAGE = 5 */\n    tag_60:\n        /* \"Subasta.sol\":546:547  5 */\n      0x05\n        /* \"Subasta.sol\":491:547  uint public constant MIN_GLOBAL_INCREMENT_PERCENTAGE = 5 */\n      dup2\n      jump\t// out\n        /* \"Subasta.sol\":167:189  uint public winningBid */\n    tag_64:\n      sload(0x01)\n      dup2\n      jump\t// out\n        /* \"Subasta.sol\":82:112  address public immutable owner */\n    tag_68:\n      immutable(\"0x2a80e1ef1d7842f27f2e6be0972bb708b9a135c38860dbe73c27c3486c34f4de\")\n      dup2\n      jump\t// out\n        /* \"Subasta.sol\":379:400  bool public finalized */\n    tag_73:\n      0x04\n      0x00\n      swap1\n      sload\n      swap1\n      0x0100\n      exp\n      swap1\n      div\n      0xff\n      and\n      dup2\n      jump\t// out\n        /* \"Subasta.sol\":5675:5836  function showWinner() external view returns (address, uint){... */\n    tag_78:\n        /* \"Subasta.sol\":5720:5727  address */\n      0x00\n        /* \"Subasta.sol\":5729:5733  uint */\n      0x00\n        /* \"Subasta.sol\":5749:5758  finalized */\n      0x04\n      0x00\n      swap1\n      sload\n      swap1\n      0x0100\n      exp\n      swap1\n      div\n      0xff\n      and\n        /* \"Subasta.sol\":5741:5798  require(finalized, \"La subasta aun no se ha finalizado.\") */\n      tag_193\n      jumpi\n      mload(0x40)\n      0x08c379a000000000000000000000000000000000000000000000000000000000\n      dup2\n      mstore\n      0x04\n      add\n      tag_194\n      swap1\n      tag_195\n      jump\t// in\n    tag_194:\n      mload(0x40)\n      dup1\n      swap2\n      sub\n      swap1\n      revert\n    tag_193:\n        /* \"Subasta.sol\":5813:5819  winner */\n      0x00\n      0x00\n      swap1\n      sload\n      swap1\n      0x0100\n      exp\n      swap1\n      div\n      0xffffffffffffffffffffffffffffffffffffffff\n      and\n        /* \"Subasta.sol\":5821:5831  winningBid */\n      sload(0x01)\n        /* \"Subasta.sol\":5805:5832  return (winner, winningBid) */\n      swap2\n      pop\n      swap2\n      pop\n        /* \"Subasta.sol\":5675:5836  function showWinner() external view returns (address, uint){... */\n      swap1\n      swap2\n      jump\t// out\n        /* \"Subasta.sol\":3756:5295  function withdrawExcess() external {... */\n    tag_83:\n        /* \"Subasta.sol\":3798:3828  ParticipantBid storage userBid */\n      0x00\n        /* \"Subasta.sol\":3831:3835  bids */\n      0x05\n        /* \"Subasta.sol\":3831:3847  bids[msg.sender] */\n      0x00\n        /* \"Subasta.sol\":3836:3846  msg.sender */\n      caller\n        /* \"Subasta.sol\":3831:3847  bids[msg.sender] */\n      0xffffffffffffffffffffffffffffffffffffffff\n      and\n      0xffffffffffffffffffffffffffffffffffffffff\n      and\n      dup2\n      mstore\n      0x20\n      add\n      swap1\n      dup2\n      mstore\n      0x20\n      add\n      0x00\n      keccak256\n        /* \"Subasta.sol\":3798:3847  ParticipantBid storage userBid = bids[msg.sender] */\n      swap1\n      pop\n        /* \"Subasta.sol\":3887:3888  0 */\n      0x00\n        /* \"Subasta.sol\":3862:3869  userBid */\n      dup2\n        /* \"Subasta.sol\":3862:3884  userBid.totalDeposited */\n      0x01\n      add\n      sload\n        /* \"Subasta.sol\":3862:3888  userBid.totalDeposited > 0 */\n      gt\n        /* \"Subasta.sol\":3854:3957  require(userBid.totalDeposited > 0, \"Subasta: Usted no ha hecho ninguna oferta o no tiene depositos.\" ) */\n      tag_197\n      jumpi\n      mload(0x40)\n      0x08c379a000000000000000000000000000000000000000000000000000000000\n      dup2\n      mstore\n      0x04\n      add\n      tag_198\n      swap1\n      tag_199\n      jump\t// in\n    tag_198:\n      mload(0x40)\n      dup1\n      swap2\n      sub\n      swap1\n      revert\n    tag_197:\n        /* \"Subasta.sol\":3966:3987  uint amountToWithdraw */\n      0x00\n        /* \"Subasta.sol\":3990:3991  0 */\n      0x00\n        /* \"Subasta.sol\":3966:3991  uint amountToWithdraw = 0 */\n      swap1\n      pop\n        /* \"Subasta.sol\":4128:4137  finalized */\n      0x04\n      0x00\n      swap1\n      sload\n      swap1\n      0x0100\n      exp\n      swap1\n      div\n      0xff\n      and\n        /* \"Subasta.sol\":4128:4161  finalized && msg.sender != winner */\n      dup1\n      iszero\n      tag_200\n      jumpi\n      pop\n        /* \"Subasta.sol\":4155:4161  winner */\n      0x00\n      0x00\n      swap1\n      sload\n      swap1\n      0x0100\n      exp\n      swap1\n      div\n      0xffffffffffffffffffffffffffffffffffffffff\n      and\n        /* \"Subasta.sol\":4141:4161  msg.sender != winner */\n      0xffffffffffffffffffffffffffffffffffffffff\n      and\n        /* \"Subasta.sol\":4141:4151  msg.sender */\n      caller\n        /* \"Subasta.sol\":4141:4161  msg.sender != winner */\n      0xffffffffffffffffffffffffffffffffffffffff\n      and\n      eq\n      iszero\n        /* \"Subasta.sol\":4128:4161  finalized && msg.sender != winner */\n    tag_200:\n        /* \"Subasta.sol\":4124:5147  if (finalized && msg.sender != winner){... */\n      iszero\n      tag_201\n      jumpi\n        /* \"Subasta.sol\":4266:4269  100 */\n      0x64\n        /* \"Subasta.sol\":625:626  2 */\n      0x02\n        /* \"Subasta.sol\":4218:4225  userBid */\n      dup4\n        /* \"Subasta.sol\":4218:4240  userBid.totalDeposited */\n      0x01\n      add\n      sload\n        /* \"Subasta.sol\":4218:4264  userBid.totalDeposited * COMMISSION_PERCENTAGE */\n      tag_202\n      swap2\n      swap1\n      tag_142\n      jump\t// in\n    tag_202:\n        /* \"Subasta.sol\":4217:4269  (userBid.totalDeposited * COMMISSION_PERCENTAGE)/100 */\n      tag_203\n      swap2\n      swap1\n      tag_144\n      jump\t// in\n    tag_203:\n        /* \"Subasta.sol\":4192:4199  userBid */\n      dup3\n        /* \"Subasta.sol\":4192:4214  userBid.totalDeposited */\n      0x01\n      add\n      sload\n        /* \"Subasta.sol\":4192:4269  userBid.totalDeposited - (userBid.totalDeposited * COMMISSION_PERCENTAGE)/100 */\n      tag_204\n      swap2\n      swap1\n      tag_109\n      jump\t// in\n    tag_204:\n        /* \"Subasta.sol\":4173:4269  amountToWithdraw = userBid.totalDeposited - (userBid.totalDeposited * COMMISSION_PERCENTAGE)/100 */\n      swap1\n      pop\n        /* \"Subasta.sol\":4305:4306  0 */\n      0x00\n        /* \"Subasta.sol\":4280:4287  userBid */\n      dup3\n        /* \"Subasta.sol\":4280:4302  userBid.totalDeposited */\n      0x01\n      add\n        /* \"Subasta.sol\":4280:4306  userBid.totalDeposited = 0 */\n      dup2\n      swap1\n      sstore\n      pop\n        /* \"Subasta.sol\":4553:4554  0 */\n      0x00\n        /* \"Subasta.sol\":4529:4536  userBid */\n      dup3\n        /* \"Subasta.sol\":4529:4550  userBid.currentAmount */\n      0x00\n      add\n        /* \"Subasta.sol\":4529:4554  userBid.currentAmount = 0 */\n      dup2\n      swap1\n      sstore\n      pop\n        /* \"Subasta.sol\":4584:4594  msg.sender */\n      caller\n        /* \"Subasta.sol\":4570:4613  LoserRefunded(msg.sender, amountToWithdraw) */\n      0xffffffffffffffffffffffffffffffffffffffff\n      and\n      0xdb0e6b892c46274e80cf044740d5b7b5ca9bff817896d27acbeca50950a12403\n        /* \"Subasta.sol\":4596:4612  amountToWithdraw */\n      dup3\n        /* \"Subasta.sol\":4570:4613  LoserRefunded(msg.sender, amountToWithdraw) */\n      mload(0x40)\n      tag_205\n      swap2\n      swap1\n      tag_28\n      jump\t// in\n    tag_205:\n      mload(0x40)\n      dup1\n      swap2\n      sub\n      swap1\n      log2\n        /* \"Subasta.sol\":4124:5147  if (finalized && msg.sender != winner){... */\n      jump(tag_206)\n    tag_201:\n        /* \"Subasta.sol\":4857:4864  userBid */\n      dup2\n        /* \"Subasta.sol\":4857:4878  userBid.currentAmount */\n      0x00\n      add\n      sload\n        /* \"Subasta.sol\":4832:4839  userBid */\n      dup3\n        /* \"Subasta.sol\":4832:4854  userBid.totalDeposited */\n      0x01\n      add\n      sload\n        /* \"Subasta.sol\":4832:4878  userBid.totalDeposited > userBid.currentAmount */\n      gt\n        /* \"Subasta.sol\":4824:4937  require(userBid.totalDeposited > userBid.currentAmount, \"Subasta: No hay exceso para retirarse en este momento.\") */\n      tag_207\n      jumpi\n      mload(0x40)\n      0x08c379a000000000000000000000000000000000000000000000000000000000\n      dup2\n      mstore\n      0x04\n      add\n      tag_208\n      swap1\n      tag_209\n      jump\t// in\n    tag_208:\n      mload(0x40)\n      dup1\n      swap2\n      sub\n      swap1\n      revert\n    tag_207:\n        /* \"Subasta.sol\":4996:5003  userBid */\n      dup2\n        /* \"Subasta.sol\":4996:5017  userBid.currentAmount */\n      0x00\n      add\n      sload\n        /* \"Subasta.sol\":4971:4978  userBid */\n      dup3\n        /* \"Subasta.sol\":4971:4993  userBid.totalDeposited */\n      0x01\n      add\n      sload\n        /* \"Subasta.sol\":4971:5017  userBid.totalDeposited - userBid.currentAmount */\n      tag_210\n      swap2\n      swap1\n      tag_109\n      jump\t// in\n    tag_210:\n        /* \"Subasta.sol\":4952:5017  amountToWithdraw = userBid.totalDeposited - userBid.currentAmount */\n      swap1\n      pop\n        /* \"Subasta.sol\":5058:5074  amountToWithdraw */\n      dup1\n        /* \"Subasta.sol\":5032:5039  userBid */\n      dup3\n        /* \"Subasta.sol\":5032:5054  userBid.totalDeposited */\n      0x01\n      add\n      0x00\n        /* \"Subasta.sol\":5032:5074  userBid.totalDeposited -= amountToWithdraw */\n      dup3\n      dup3\n      sload\n      tag_211\n      swap2\n      swap1\n      tag_109\n      jump\t// in\n    tag_211:\n      swap3\n      pop\n      pop\n      dup2\n      swap1\n      sstore\n      pop\n        /* \"Subasta.sol\":5110:5120  msg.sender */\n      caller\n        /* \"Subasta.sol\":5094:5139  ExcessWithdrawn(msg.sender, amountToWithdraw) */\n      0xffffffffffffffffffffffffffffffffffffffff\n      and\n      0x9bdedcc968f2c0682145c20289dfbb3081a39684571116ab45eabfef512e9473\n        /* \"Subasta.sol\":5122:5138  amountToWithdraw */\n      dup3\n        /* \"Subasta.sol\":5094:5139  ExcessWithdrawn(msg.sender, amountToWithdraw) */\n      mload(0x40)\n      tag_212\n      swap2\n      swap1\n      tag_28\n      jump\t// in\n    tag_212:\n      mload(0x40)\n      dup1\n      swap2\n      sub\n      swap1\n      log2\n        /* \"Subasta.sol\":4124:5147  if (finalized && msg.sender != winner){... */\n    tag_206:\n        /* \"Subasta.sol\":5155:5167  bool success */\n      0x00\n        /* \"Subasta.sol\":5181:5191  msg.sender */\n      caller\n        /* \"Subasta.sol\":5172:5197  payable (msg.sender).call */\n      0xffffffffffffffffffffffffffffffffffffffff\n      and\n        /* \"Subasta.sol\":5205:5221  amountToWithdraw */\n      dup3\n        /* \"Subasta.sol\":5172:5226  payable (msg.sender).call{value: amountToWithdraw}(\"\") */\n      mload(0x40)\n      tag_213\n      swap1\n      tag_185\n      jump\t// in\n    tag_213:\n      0x00\n      mload(0x40)\n      dup1\n      dup4\n      sub\n      dup2\n      dup6\n      dup8\n      gas\n      call\n      swap3\n      pop\n      pop\n      pop\n      returndatasize\n      dup1\n      0x00\n      dup2\n      eq\n      tag_216\n      jumpi\n      mload(0x40)\n      swap2\n      pop\n      and(add(returndatasize, 0x3f), not(0x1f))\n      dup3\n      add\n      0x40\n      mstore\n      returndatasize\n      dup3\n      mstore\n      returndatasize\n      0x00\n      0x20\n      dup5\n      add\n      returndatacopy\n      jump(tag_215)\n    tag_216:\n      0x60\n      swap2\n      pop\n    tag_215:\n      pop\n        /* \"Subasta.sol\":5154:5226  (bool success,) = payable (msg.sender).call{value: amountToWithdraw}(\"\") */\n      pop\n      swap1\n      pop\n        /* \"Subasta.sol\":5241:5248  success */\n      dup1\n        /* \"Subasta.sol\":5233:5291  require(success, \"Subasta: No se transfirio la cantidad.\") */\n      tag_217\n      jumpi\n      mload(0x40)\n      0x08c379a000000000000000000000000000000000000000000000000000000000\n      dup2\n      mstore\n      0x04\n      add\n      tag_218\n      swap1\n      tag_219\n      jump\t// in\n    tag_218:\n      mload(0x40)\n      dup1\n      swap2\n      sub\n      swap1\n      revert\n    tag_217:\n        /* \"Subasta.sol\":3791:5295  {... */\n      pop\n      pop\n      pop\n        /* \"Subasta.sol\":3756:5295  function withdrawExcess() external {... */\n      jump\t// out\n        /* \"Subasta.sol\":890:917  address[] public bidderList */\n    tag_88:\n      0x06\n      dup2\n      dup2\n      sload\n      dup2\n      lt\n      tag_220\n      jumpi\n      0x00\n      dup1\n      revert\n    tag_220:\n      swap1\n      0x00\n      mstore\n      keccak256(0x00, 0x20)\n      add\n      0x00\n      swap2\n      pop\n      sload\n      swap1\n      0x0100\n      exp\n      swap1\n      div\n      0xffffffffffffffffffffffffffffffffffffffff\n      and\n      dup2\n      jump\t// out\n        /* \"Subasta.sol\":119:140  address public winner */\n    tag_92:\n      0x00\n      0x00\n      swap1\n      sload\n      swap1\n      0x0100\n      exp\n      swap1\n      div\n      0xffffffffffffffffffffffffffffffffffffffff\n      and\n      dup2\n      jump\t// out\n        /* \"Subasta.sol\":227:255  uint public auctionStartTime */\n    tag_96:\n      sload(0x02)\n      dup2\n      jump\t// out\n        /* \"Subasta.sol\":5318:5587  function finalizeAuction() external onlyOwner{... */\n    tag_100:\n        /* \"Subasta.sol\":1525:1530  owner */\n      immutable(\"0x2a80e1ef1d7842f27f2e6be0972bb708b9a135c38860dbe73c27c3486c34f4de\")\n        /* \"Subasta.sol\":1511:1530  msg.sender == owner */\n      0xffffffffffffffffffffffffffffffffffffffff\n      and\n        /* \"Subasta.sol\":1511:1521  msg.sender */\n      caller\n        /* \"Subasta.sol\":1511:1530  msg.sender == owner */\n      0xffffffffffffffffffffffffffffffffffffffff\n      and\n      eq\n        /* \"Subasta.sol\":1502:1584  require( msg.sender == owner, \"Subasta: Solo el propietario puede ejecutar esto.\") */\n      tag_223\n      jumpi\n      mload(0x40)\n      0x08c379a000000000000000000000000000000000000000000000000000000000\n      dup2\n      mstore\n      0x04\n      add\n      tag_224\n      swap1\n      tag_171\n      jump\t// in\n    tag_224:\n      mload(0x40)\n      dup1\n      swap2\n      sub\n      swap1\n      revert\n    tag_223:\n        /* \"Subasta.sol\":5397:5411  auctionEndTime */\n      sload(0x03)\n        /* \"Subasta.sol\":5378:5393  block.timestamp */\n      timestamp\n        /* \"Subasta.sol\":5378:5411  block.timestamp >= auctionEndTime */\n      lt\n      iszero\n        /* \"Subasta.sol\":5370:5452  require(block.timestamp >= auctionEndTime, \"Subasta: La subasta no ha terminado.\") */\n      tag_226\n      jumpi\n      mload(0x40)\n      0x08c379a000000000000000000000000000000000000000000000000000000000\n      dup2\n      mstore\n      0x04\n      add\n      tag_227\n      swap1\n      tag_228\n      jump\t// in\n    tag_227:\n      mload(0x40)\n      dup1\n      swap2\n      sub\n      swap1\n      revert\n    tag_226:\n        /* \"Subasta.sol\":5468:5477  finalized */\n      0x04\n      0x00\n      swap1\n      sload\n      swap1\n      0x0100\n      exp\n      swap1\n      div\n      0xff\n      and\n        /* \"Subasta.sol\":5467:5477  !finalized */\n      iszero\n        /* \"Subasta.sol\":5459:5510  require(!finalized, \"La subasta ya ha finalizado.\") */\n      tag_229\n      jumpi\n      mload(0x40)\n      0x08c379a000000000000000000000000000000000000000000000000000000000\n      dup2\n      mstore\n      0x04\n      add\n      tag_230\n      swap1\n      tag_231\n      jump\t// in\n    tag_230:\n      mload(0x40)\n      dup1\n      swap2\n      sub\n      swap1\n      revert\n    tag_229:\n        /* \"Subasta.sol\":5531:5535  true */\n      0x01\n        /* \"Subasta.sol\":5519:5528  finalized */\n      0x04\n      0x00\n        /* \"Subasta.sol\":5519:5535  finalized = true */\n      0x0100\n      exp\n      dup2\n      sload\n      dup2\n      0xff\n      mul\n      not\n      and\n      swap1\n      dup4\n      iszero\n      iszero\n      mul\n      or\n      swap1\n      sstore\n      pop\n        /* \"Subasta.sol\":5564:5570  winner */\n      0x00\n      0x00\n      swap1\n      sload\n      swap1\n      0x0100\n      exp\n      swap1\n      div\n      0xffffffffffffffffffffffffffffffffffffffff\n      and\n        /* \"Subasta.sol\":5547:5583  AuctionFinalized(winner, winningBid) */\n      0xffffffffffffffffffffffffffffffffffffffff\n      and\n      0x357afab190ee87fe0ef1c717f2728d2904d9e415a069d99f4d9382873cb3279d\n        /* \"Subasta.sol\":5572:5582  winningBid */\n      sload(0x01)\n        /* \"Subasta.sol\":5547:5583  AuctionFinalized(winner, winningBid) */\n      mload(0x40)\n      tag_232\n      swap2\n      swap1\n      tag_28\n      jump\t// in\n    tag_232:\n      mload(0x40)\n      dup1\n      swap2\n      sub\n      swap1\n      log2\n        /* \"Subasta.sol\":5318:5587  function finalizeAuction() external onlyOwner{... */\n      jump\t// out\n        /* \"Subasta.sol\":646:703  uint public constant MIN_OWN_BID_INCREMENT_PERCENTAGE = 1 */\n    tag_103:\n        /* \"Subasta.sol\":702:703  1 */\n      0x01\n        /* \"Subasta.sol\":646:703  uint public constant MIN_OWN_BID_INCREMENT_PERCENTAGE = 1 */\n      dup2\n      jump\t// out\n        /* \"#utility.yul\":7:84   */\n    tag_233:\n        /* \"#utility.yul\":44:51   */\n      0x00\n        /* \"#utility.yul\":73:78   */\n      dup2\n        /* \"#utility.yul\":62:78   */\n      swap1\n      pop\n        /* \"#utility.yul\":7:84   */\n      swap2\n      swap1\n      pop\n      jump\t// out\n        /* \"#utility.yul\":90:208   */\n    tag_234:\n        /* \"#utility.yul\":177:201   */\n      tag_304\n        /* \"#utility.yul\":195:200   */\n      dup2\n        /* \"#utility.yul\":177:201   */\n      tag_233\n      jump\t// in\n    tag_304:\n        /* \"#utility.yul\":172:175   */\n      dup3\n        /* \"#utility.yul\":165:202   */\n      mstore\n        /* \"#utility.yul\":90:208   */\n      pop\n      pop\n      jump\t// out\n        /* \"#utility.yul\":214:436   */\n    tag_28:\n        /* \"#utility.yul\":307:311   */\n      0x00\n        /* \"#utility.yul\":345:347   */\n      0x20\n        /* \"#utility.yul\":334:343   */\n      dup3\n        /* \"#utility.yul\":330:348   */\n      add\n        /* \"#utility.yul\":322:348   */\n      swap1\n      pop\n        /* \"#utility.yul\":358:429   */\n      tag_306\n        /* \"#utility.yul\":426:427   */\n      0x00\n        /* \"#utility.yul\":415:424   */\n      dup4\n        /* \"#utility.yul\":411:428   */\n      add\n        /* \"#utility.yul\":402:408   */\n      dup5\n        /* \"#utility.yul\":358:429   */\n      tag_234\n      jump\t// in\n    tag_306:\n        /* \"#utility.yul\":214:436   */\n      swap3\n      swap2\n      pop\n      pop\n      jump\t// out\n        /* \"#utility.yul\":442:556   */\n    tag_235:\n        /* \"#utility.yul\":509:515   */\n      0x00\n        /* \"#utility.yul\":543:548   */\n      dup2\n        /* \"#utility.yul\":537:549   */\n      mload\n        /* \"#utility.yul\":527:549   */\n      swap1\n      pop\n        /* \"#utility.yul\":442:556   */\n      swap2\n      swap1\n      pop\n      jump\t// out\n        /* \"#utility.yul\":562:746   */\n    tag_236:\n        /* \"#utility.yul\":661:672   */\n      0x00\n        /* \"#utility.yul\":695:701   */\n      dup3\n        /* \"#utility.yul\":690:693   */\n      dup3\n        /* \"#utility.yul\":683:702   */\n      mstore\n        /* \"#utility.yul\":735:739   */\n      0x20\n        /* \"#utility.yul\":730:733   */\n      dup3\n        /* \"#utility.yul\":726:740   */\n      add\n        /* \"#utility.yul\":711:740   */\n      swap1\n      pop\n        /* \"#utility.yul\":562:746   */\n      swap3\n      swap2\n      pop\n      pop\n      jump\t// out\n        /* \"#utility.yul\":752:884   */\n    tag_237:\n        /* \"#utility.yul\":819:823   */\n      0x00\n        /* \"#utility.yul\":842:845   */\n      dup2\n        /* \"#utility.yul\":834:845   */\n      swap1\n      pop\n        /* \"#utility.yul\":872:876   */\n      0x20\n        /* \"#utility.yul\":867:870   */\n      dup3\n        /* \"#utility.yul\":863:877   */\n      add\n        /* \"#utility.yul\":855:877   */\n      swap1\n      pop\n        /* \"#utility.yul\":752:884   */\n      swap2\n      swap1\n      pop\n      jump\t// out\n        /* \"#utility.yul\":890:1016   */\n    tag_238:\n        /* \"#utility.yul\":927:934   */\n      0x00\n        /* \"#utility.yul\":967:1009   */\n      0xffffffffffffffffffffffffffffffffffffffff\n        /* \"#utility.yul\":960:965   */\n      dup3\n        /* \"#utility.yul\":956:1010   */\n      and\n        /* \"#utility.yul\":945:1010   */\n      swap1\n      pop\n        /* \"#utility.yul\":890:1016   */\n      swap2\n      swap1\n      pop\n      jump\t// out\n        /* \"#utility.yul\":1022:1118   */\n    tag_239:\n        /* \"#utility.yul\":1059:1066   */\n      0x00\n        /* \"#utility.yul\":1088:1112   */\n      tag_312\n        /* \"#utility.yul\":1106:1111   */\n      dup3\n        /* \"#utility.yul\":1088:1112   */\n      tag_238\n      jump\t// in\n    tag_312:\n        /* \"#utility.yul\":1077:1112   */\n      swap1\n      pop\n        /* \"#utility.yul\":1022:1118   */\n      swap2\n      swap1\n      pop\n      jump\t// out\n        /* \"#utility.yul\":1124:1232   */\n    tag_240:\n        /* \"#utility.yul\":1201:1225   */\n      tag_314\n        /* \"#utility.yul\":1219:1224   */\n      dup2\n        /* \"#utility.yul\":1201:1225   */\n      tag_239\n      jump\t// in\n    tag_314:\n        /* \"#utility.yul\":1196:1199   */\n      dup3\n        /* \"#utility.yul\":1189:1226   */\n      mstore\n        /* \"#utility.yul\":1124:1232   */\n      pop\n      pop\n      jump\t// out\n        /* \"#utility.yul\":1238:1417   */\n    tag_241:\n        /* \"#utility.yul\":1307:1317   */\n      0x00\n        /* \"#utility.yul\":1328:1374   */\n      tag_316\n        /* \"#utility.yul\":1370:1373   */\n      dup4\n        /* \"#utility.yul\":1362:1368   */\n      dup4\n        /* \"#utility.yul\":1328:1374   */\n      tag_240\n      jump\t// in\n    tag_316:\n        /* \"#utility.yul\":1406:1410   */\n      0x20\n        /* \"#utility.yul\":1401:1404   */\n      dup4\n        /* \"#utility.yul\":1397:1411   */\n      add\n        /* \"#utility.yul\":1383:1411   */\n      swap1\n      pop\n        /* \"#utility.yul\":1238:1417   */\n      swap3\n      swap2\n      pop\n      pop\n      jump\t// out\n        /* \"#utility.yul\":1423:1536   */\n    tag_242:\n        /* \"#utility.yul\":1493:1497   */\n      0x00\n        /* \"#utility.yul\":1525:1529   */\n      0x20\n        /* \"#utility.yul\":1520:1523   */\n      dup3\n        /* \"#utility.yul\":1516:1530   */\n      add\n        /* \"#utility.yul\":1508:1530   */\n      swap1\n      pop\n        /* \"#utility.yul\":1423:1536   */\n      swap2\n      swap1\n      pop\n      jump\t// out\n        /* \"#utility.yul\":1572:2304   */\n    tag_243:\n        /* \"#utility.yul\":1691:1694   */\n      0x00\n        /* \"#utility.yul\":1720:1774   */\n      tag_319\n        /* \"#utility.yul\":1768:1773   */\n      dup3\n        /* \"#utility.yul\":1720:1774   */\n      tag_235\n      jump\t// in\n    tag_319:\n        /* \"#utility.yul\":1790:1876   */\n      tag_320\n        /* \"#utility.yul\":1869:1875   */\n      dup2\n        /* \"#utility.yul\":1864:1867   */\n      dup6\n        /* \"#utility.yul\":1790:1876   */\n      tag_236\n      jump\t// in\n    tag_320:\n        /* \"#utility.yul\":1783:1876   */\n      swap4\n      pop\n        /* \"#utility.yul\":1900:1956   */\n      tag_321\n        /* \"#utility.yul\":1950:1955   */\n      dup4\n        /* \"#utility.yul\":1900:1956   */\n      tag_237\n      jump\t// in\n    tag_321:\n        /* \"#utility.yul\":1979:1986   */\n      dup1\n        /* \"#utility.yul\":2010:2011   */\n      0x00\n        /* \"#utility.yul\":1995:2279   */\n    tag_322:\n        /* \"#utility.yul\":2020:2026   */\n      dup4\n        /* \"#utility.yul\":2017:2018   */\n      dup2\n        /* \"#utility.yul\":2014:2027   */\n      lt\n        /* \"#utility.yul\":1995:2279   */\n      iszero\n      tag_324\n      jumpi\n        /* \"#utility.yul\":2096:2102   */\n      dup2\n        /* \"#utility.yul\":2090:2103   */\n      mload\n        /* \"#utility.yul\":2123:2186   */\n      tag_325\n        /* \"#utility.yul\":2182:2185   */\n      dup9\n        /* \"#utility.yul\":2167:2180   */\n      dup3\n        /* \"#utility.yul\":2123:2186   */\n      tag_241\n      jump\t// in\n    tag_325:\n        /* \"#utility.yul\":2116:2186   */\n      swap8\n      pop\n        /* \"#utility.yul\":2209:2269   */\n      tag_326\n        /* \"#utility.yul\":2262:2268   */\n      dup4\n        /* \"#utility.yul\":2209:2269   */\n      tag_242\n      jump\t// in\n    tag_326:\n        /* \"#utility.yul\":2199:2269   */\n      swap3\n      pop\n        /* \"#utility.yul\":2055:2279   */\n      pop\n        /* \"#utility.yul\":2042:2043   */\n      0x01\n        /* \"#utility.yul\":2039:2040   */\n      dup2\n        /* \"#utility.yul\":2035:2044   */\n      add\n        /* \"#utility.yul\":2030:2044   */\n      swap1\n      pop\n        /* \"#utility.yul\":1995:2279   */\n      jump(tag_322)\n    tag_324:\n        /* \"#utility.yul\":1999:2013   */\n      pop\n        /* \"#utility.yul\":2295:2298   */\n      dup6\n        /* \"#utility.yul\":2288:2298   */\n      swap4\n      pop\n        /* \"#utility.yul\":1696:2304   */\n      pop\n      pop\n      pop\n        /* \"#utility.yul\":1572:2304   */\n      swap3\n      swap2\n      pop\n      pop\n      jump\t// out\n        /* \"#utility.yul\":2310:2424   */\n    tag_244:\n        /* \"#utility.yul\":2377:2383   */\n      0x00\n        /* \"#utility.yul\":2411:2416   */\n      dup2\n        /* \"#utility.yul\":2405:2417   */\n      mload\n        /* \"#utility.yul\":2395:2417   */\n      swap1\n      pop\n        /* \"#utility.yul\":2310:2424   */\n      swap2\n      swap1\n      pop\n      jump\t// out\n        /* \"#utility.yul\":2430:2614   */\n    tag_245:\n        /* \"#utility.yul\":2529:2540   */\n      0x00\n        /* \"#utility.yul\":2563:2569   */\n      dup3\n        /* \"#utility.yul\":2558:2561   */\n      dup3\n        /* \"#utility.yul\":2551:2570   */\n      mstore\n        /* \"#utility.yul\":2603:2607   */\n      0x20\n        /* \"#utility.yul\":2598:2601   */\n      dup3\n        /* \"#utility.yul\":2594:2608   */\n      add\n        /* \"#utility.yul\":2579:2608   */\n      swap1\n      pop\n        /* \"#utility.yul\":2430:2614   */\n      swap3\n      swap2\n      pop\n      pop\n      jump\t// out\n        /* \"#utility.yul\":2620:2752   */\n    tag_246:\n        /* \"#utility.yul\":2687:2691   */\n      0x00\n        /* \"#utility.yul\":2710:2713   */\n      dup2\n        /* \"#utility.yul\":2702:2713   */\n      swap1\n      pop\n        /* \"#utility.yul\":2740:2744   */\n      0x20\n        /* \"#utility.yul\":2735:2738   */\n      dup3\n        /* \"#utility.yul\":2731:2745   */\n      add\n        /* \"#utility.yul\":2723:2745   */\n      swap1\n      pop\n        /* \"#utility.yul\":2620:2752   */\n      swap2\n      swap1\n      pop\n      jump\t// out\n        /* \"#utility.yul\":2758:2866   */\n    tag_247:\n        /* \"#utility.yul\":2835:2859   */\n      tag_331\n        /* \"#utility.yul\":2853:2858   */\n      dup2\n        /* \"#utility.yul\":2835:2859   */\n      tag_233\n      jump\t// in\n    tag_331:\n        /* \"#utility.yul\":2830:2833   */\n      dup3\n        /* \"#utility.yul\":2823:2860   */\n      mstore\n        /* \"#utility.yul\":2758:2866   */\n      pop\n      pop\n      jump\t// out\n        /* \"#utility.yul\":2872:3051   */\n    tag_248:\n        /* \"#utility.yul\":2941:2951   */\n      0x00\n        /* \"#utility.yul\":2962:3008   */\n      tag_333\n        /* \"#utility.yul\":3004:3007   */\n      dup4\n        /* \"#utility.yul\":2996:3002   */\n      dup4\n        /* \"#utility.yul\":2962:3008   */\n      tag_247\n      jump\t// in\n    tag_333:\n        /* \"#utility.yul\":3040:3044   */\n      0x20\n        /* \"#utility.yul\":3035:3038   */\n      dup4\n        /* \"#utility.yul\":3031:3045   */\n      add\n        /* \"#utility.yul\":3017:3045   */\n      swap1\n      pop\n        /* \"#utility.yul\":2872:3051   */\n      swap3\n      swap2\n      pop\n      pop\n      jump\t// out\n        /* \"#utility.yul\":3057:3170   */\n    tag_249:\n        /* \"#utility.yul\":3127:3131   */\n      0x00\n        /* \"#utility.yul\":3159:3163   */\n      0x20\n        /* \"#utility.yul\":3154:3157   */\n      dup3\n        /* \"#utility.yul\":3150:3164   */\n      add\n        /* \"#utility.yul\":3142:3164   */\n      swap1\n      pop\n        /* \"#utility.yul\":3057:3170   */\n      swap2\n      swap1\n      pop\n      jump\t// out\n        /* \"#utility.yul\":3206:3938   */\n    tag_250:\n        /* \"#utility.yul\":3325:3328   */\n      0x00\n        /* \"#utility.yul\":3354:3408   */\n      tag_336\n        /* \"#utility.yul\":3402:3407   */\n      dup3\n        /* \"#utility.yul\":3354:3408   */\n      tag_244\n      jump\t// in\n    tag_336:\n        /* \"#utility.yul\":3424:3510   */\n      tag_337\n        /* \"#utility.yul\":3503:3509   */\n      dup2\n        /* \"#utility.yul\":3498:3501   */\n      dup6\n        /* \"#utility.yul\":3424:3510   */\n      tag_245\n      jump\t// in\n    tag_337:\n        /* \"#utility.yul\":3417:3510   */\n      swap4\n      pop\n        /* \"#utility.yul\":3534:3590   */\n      tag_338\n        /* \"#utility.yul\":3584:3589   */\n      dup4\n        /* \"#utility.yul\":3534:3590   */\n      tag_246\n      jump\t// in\n    tag_338:\n        /* \"#utility.yul\":3613:3620   */\n      dup1\n        /* \"#utility.yul\":3644:3645   */\n      0x00\n        /* \"#utility.yul\":3629:3913   */\n    tag_339:\n        /* \"#utility.yul\":3654:3660   */\n      dup4\n        /* \"#utility.yul\":3651:3652   */\n      dup2\n        /* \"#utility.yul\":3648:3661   */\n      lt\n        /* \"#utility.yul\":3629:3913   */\n      iszero\n      tag_341\n      jumpi\n        /* \"#utility.yul\":3730:3736   */\n      dup2\n        /* \"#utility.yul\":3724:3737   */\n      mload\n        /* \"#utility.yul\":3757:3820   */\n      tag_342\n        /* \"#utility.yul\":3816:3819   */\n      dup9\n        /* \"#utility.yul\":3801:3814   */\n      dup3\n        /* \"#utility.yul\":3757:3820   */\n      tag_248\n      jump\t// in\n    tag_342:\n        /* \"#utility.yul\":3750:3820   */\n      swap8\n      pop\n        /* \"#utility.yul\":3843:3903   */\n      tag_343\n        /* \"#utility.yul\":3896:3902   */\n      dup4\n        /* \"#utility.yul\":3843:3903   */\n      tag_249\n      jump\t// in\n    tag_343:\n        /* \"#utility.yul\":3833:3903   */\n      swap3\n      pop\n        /* \"#utility.yul\":3689:3913   */\n      pop\n        /* \"#utility.yul\":3676:3677   */\n      0x01\n        /* \"#utility.yul\":3673:3674   */\n      dup2\n        /* \"#utility.yul\":3669:3678   */\n      add\n        /* \"#utility.yul\":3664:3678   */\n      swap1\n      pop\n        /* \"#utility.yul\":3629:3913   */\n      jump(tag_339)\n    tag_341:\n        /* \"#utility.yul\":3633:3647   */\n      pop\n        /* \"#utility.yul\":3929:3932   */\n      dup6\n        /* \"#utility.yul\":3922:3932   */\n      swap4\n      pop\n        /* \"#utility.yul\":3330:3938   */\n      pop\n      pop\n      pop\n        /* \"#utility.yul\":3206:3938   */\n      swap3\n      swap2\n      pop\n      pop\n      jump\t// out\n        /* \"#utility.yul\":3944:4578   */\n    tag_33:\n        /* \"#utility.yul\":4165:4169   */\n      0x00\n        /* \"#utility.yul\":4203:4205   */\n      0x40\n        /* \"#utility.yul\":4192:4201   */\n      dup3\n        /* \"#utility.yul\":4188:4206   */\n      add\n        /* \"#utility.yul\":4180:4206   */\n      swap1\n      pop\n        /* \"#utility.yul\":4252:4261   */\n      dup2\n        /* \"#utility.yul\":4246:4250   */\n      dup2\n        /* \"#utility.yul\":4242:4262   */\n      sub\n        /* \"#utility.yul\":4238:4239   */\n      0x00\n        /* \"#utility.yul\":4227:4236   */\n      dup4\n        /* \"#utility.yul\":4223:4240   */\n      add\n        /* \"#utility.yul\":4216:4263   */\n      mstore\n        /* \"#utility.yul\":4280:4388   */\n      tag_345\n        /* \"#utility.yul\":4383:4387   */\n      dup2\n        /* \"#utility.yul\":4374:4380   */\n      dup6\n        /* \"#utility.yul\":4280:4388   */\n      tag_243\n      jump\t// in\n    tag_345:\n        /* \"#utility.yul\":4272:4388   */\n      swap1\n      pop\n        /* \"#utility.yul\":4435:4444   */\n      dup2\n        /* \"#utility.yul\":4429:4433   */\n      dup2\n        /* \"#utility.yul\":4425:4445   */\n      sub\n        /* \"#utility.yul\":4420:4422   */\n      0x20\n        /* \"#utility.yul\":4409:4418   */\n      dup4\n        /* \"#utility.yul\":4405:4423   */\n      add\n        /* \"#utility.yul\":4398:4446   */\n      mstore\n        /* \"#utility.yul\":4463:4571   */\n      tag_346\n        /* \"#utility.yul\":4566:4570   */\n      dup2\n        /* \"#utility.yul\":4557:4563   */\n      dup5\n        /* \"#utility.yul\":4463:4571   */\n      tag_250\n      jump\t// in\n    tag_346:\n        /* \"#utility.yul\":4455:4571   */\n      swap1\n      pop\n        /* \"#utility.yul\":3944:4578   */\n      swap4\n      swap3\n      pop\n      pop\n      pop\n      jump\t// out\n        /* \"#utility.yul\":4665:4782   */\n    tag_252:\n        /* \"#utility.yul\":4774:4775   */\n      0x00\n        /* \"#utility.yul\":4771:4772   */\n      0x00\n        /* \"#utility.yul\":4764:4776   */\n      revert\n        /* \"#utility.yul\":4911:5033   */\n    tag_254:\n        /* \"#utility.yul\":4984:5008   */\n      tag_351\n        /* \"#utility.yul\":5002:5007   */\n      dup2\n        /* \"#utility.yul\":4984:5008   */\n      tag_239\n      jump\t// in\n    tag_351:\n        /* \"#utility.yul\":4977:4982   */\n      dup2\n        /* \"#utility.yul\":4974:5009   */\n      eq\n        /* \"#utility.yul\":4964:5027   */\n      tag_352\n      jumpi\n        /* \"#utility.yul\":5023:5024   */\n      0x00\n        /* \"#utility.yul\":5020:5021   */\n      0x00\n        /* \"#utility.yul\":5013:5025   */\n      revert\n        /* \"#utility.yul\":4964:5027   */\n    tag_352:\n        /* \"#utility.yul\":4911:5033   */\n      pop\n      jump\t// out\n        /* \"#utility.yul\":5039:5178   */\n    tag_255:\n        /* \"#utility.yul\":5085:5090   */\n      0x00\n        /* \"#utility.yul\":5123:5129   */\n      dup2\n        /* \"#utility.yul\":5110:5130   */\n      calldataload\n        /* \"#utility.yul\":5101:5130   */\n      swap1\n      pop\n        /* \"#utility.yul\":5139:5172   */\n      tag_354\n        /* \"#utility.yul\":5166:5171   */\n      dup2\n        /* \"#utility.yul\":5139:5172   */\n      tag_254\n      jump\t// in\n    tag_354:\n        /* \"#utility.yul\":5039:5178   */\n      swap3\n      swap2\n      pop\n      pop\n      jump\t// out\n        /* \"#utility.yul\":5184:5513   */\n    tag_54:\n        /* \"#utility.yul\":5243:5249   */\n      0x00\n        /* \"#utility.yul\":5292:5294   */\n      0x20\n        /* \"#utility.yul\":5280:5289   */\n      dup3\n        /* \"#utility.yul\":5271:5278   */\n      dup5\n        /* \"#utility.yul\":5267:5290   */\n      sub\n        /* \"#utility.yul\":5263:5295   */\n      slt\n        /* \"#utility.yul\":5260:5379   */\n      iszero\n      tag_356\n      jumpi\n        /* \"#utility.yul\":5298:5377   */\n      tag_357\n      tag_252\n      jump\t// in\n    tag_357:\n        /* \"#utility.yul\":5260:5379   */\n    tag_356:\n        /* \"#utility.yul\":5418:5419   */\n      0x00\n        /* \"#utility.yul\":5443:5496   */\n      tag_358\n        /* \"#utility.yul\":5488:5495   */\n      dup5\n        /* \"#utility.yul\":5479:5485   */\n      dup3\n        /* \"#utility.yul\":5468:5477   */\n      dup6\n        /* \"#utility.yul\":5464:5486   */\n      add\n        /* \"#utility.yul\":5443:5496   */\n      tag_255\n      jump\t// in\n    tag_358:\n        /* \"#utility.yul\":5433:5496   */\n      swap2\n      pop\n        /* \"#utility.yul\":5389:5506   */\n      pop\n        /* \"#utility.yul\":5184:5513   */\n      swap3\n      swap2\n      pop\n      pop\n      jump\t// out\n        /* \"#utility.yul\":5519:5609   */\n    tag_256:\n        /* \"#utility.yul\":5553:5560   */\n      0x00\n        /* \"#utility.yul\":5596:5601   */\n      dup2\n        /* \"#utility.yul\":5589:5602   */\n      iszero\n        /* \"#utility.yul\":5582:5603   */\n      iszero\n        /* \"#utility.yul\":5571:5603   */\n      swap1\n      pop\n        /* \"#utility.yul\":5519:5609   */\n      swap2\n      swap1\n      pop\n      jump\t// out\n        /* \"#utility.yul\":5615:5724   */\n    tag_257:\n        /* \"#utility.yul\":5696:5717   */\n      tag_361\n        /* \"#utility.yul\":5711:5716   */\n      dup2\n        /* \"#utility.yul\":5696:5717   */\n      tag_256\n      jump\t// in\n    tag_361:\n        /* \"#utility.yul\":5691:5694   */\n      dup3\n        /* \"#utility.yul\":5684:5718   */\n      mstore\n        /* \"#utility.yul\":5615:5724   */\n      pop\n      pop\n      jump\t// out\n        /* \"#utility.yul\":5730:6160   */\n    tag_57:\n        /* \"#utility.yul\":5873:5877   */\n      0x00\n        /* \"#utility.yul\":5911:5913   */\n      0x60\n        /* \"#utility.yul\":5900:5909   */\n      dup3\n        /* \"#utility.yul\":5896:5914   */\n      add\n        /* \"#utility.yul\":5888:5914   */\n      swap1\n      pop\n        /* \"#utility.yul\":5924:5995   */\n      tag_363\n        /* \"#utility.yul\":5992:5993   */\n      0x00\n        /* \"#utility.yul\":5981:5990   */\n      dup4\n        /* \"#utility.yul\":5977:5994   */\n      add\n        /* \"#utility.yul\":5968:5974   */\n      dup7\n        /* \"#utility.yul\":5924:5995   */\n      tag_234\n      jump\t// in\n    tag_363:\n        /* \"#utility.yul\":6005:6077   */\n      tag_364\n        /* \"#utility.yul\":6073:6075   */\n      0x20\n        /* \"#utility.yul\":6062:6071   */\n      dup4\n        /* \"#utility.yul\":6058:6076   */\n      add\n        /* \"#utility.yul\":6049:6055   */\n      dup6\n        /* \"#utility.yul\":6005:6077   */\n      tag_234\n      jump\t// in\n    tag_364:\n        /* \"#utility.yul\":6087:6153   */\n      tag_365\n        /* \"#utility.yul\":6149:6151   */\n      0x40\n        /* \"#utility.yul\":6138:6147   */\n      dup4\n        /* \"#utility.yul\":6134:6152   */\n      add\n        /* \"#utility.yul\":6125:6131   */\n      dup5\n        /* \"#utility.yul\":6087:6153   */\n      tag_257\n      jump\t// in\n    tag_365:\n        /* \"#utility.yul\":5730:6160   */\n      swap5\n      swap4\n      pop\n      pop\n      pop\n      pop\n      jump\t// out\n        /* \"#utility.yul\":6166:6284   */\n    tag_258:\n        /* \"#utility.yul\":6253:6277   */\n      tag_367\n        /* \"#utility.yul\":6271:6276   */\n      dup2\n        /* \"#utility.yul\":6253:6277   */\n      tag_239\n      jump\t// in\n    tag_367:\n        /* \"#utility.yul\":6248:6251   */\n      dup3\n        /* \"#utility.yul\":6241:6278   */\n      mstore\n        /* \"#utility.yul\":6166:6284   */\n      pop\n      pop\n      jump\t// out\n        /* \"#utility.yul\":6290:6512   */\n    tag_70:\n        /* \"#utility.yul\":6383:6387   */\n      0x00\n        /* \"#utility.yul\":6421:6423   */\n      0x20\n        /* \"#utility.yul\":6410:6419   */\n      dup3\n        /* \"#utility.yul\":6406:6424   */\n      add\n        /* \"#utility.yul\":6398:6424   */\n      swap1\n      pop\n        /* \"#utility.yul\":6434:6505   */\n      tag_369\n        /* \"#utility.yul\":6502:6503   */\n      0x00\n        /* \"#utility.yul\":6491:6500   */\n      dup4\n        /* \"#utility.yul\":6487:6504   */\n      add\n        /* \"#utility.yul\":6478:6484   */\n      dup5\n        /* \"#utility.yul\":6434:6505   */\n      tag_258\n      jump\t// in\n    tag_369:\n        /* \"#utility.yul\":6290:6512   */\n      swap3\n      swap2\n      pop\n      pop\n      jump\t// out\n        /* \"#utility.yul\":6518:6728   */\n    tag_75:\n        /* \"#utility.yul\":6605:6609   */\n      0x00\n        /* \"#utility.yul\":6643:6645   */\n      0x20\n        /* \"#utility.yul\":6632:6641   */\n      dup3\n        /* \"#utility.yul\":6628:6646   */\n      add\n        /* \"#utility.yul\":6620:6646   */\n      swap1\n      pop\n        /* \"#utility.yul\":6656:6721   */\n      tag_371\n        /* \"#utility.yul\":6718:6719   */\n      0x00\n        /* \"#utility.yul\":6707:6716   */\n      dup4\n        /* \"#utility.yul\":6703:6720   */\n      add\n        /* \"#utility.yul\":6694:6700   */\n      dup5\n        /* \"#utility.yul\":6656:6721   */\n      tag_257\n      jump\t// in\n    tag_371:\n        /* \"#utility.yul\":6518:6728   */\n      swap3\n      swap2\n      pop\n      pop\n      jump\t// out\n        /* \"#utility.yul\":6734:7066   */\n    tag_80:\n        /* \"#utility.yul\":6855:6859   */\n      0x00\n        /* \"#utility.yul\":6893:6895   */\n      0x40\n        /* \"#utility.yul\":6882:6891   */\n      dup3\n        /* \"#utility.yul\":6878:6896   */\n      add\n        /* \"#utility.yul\":6870:6896   */\n      swap1\n      pop\n        /* \"#utility.yul\":6906:6977   */\n      tag_373\n        /* \"#utility.yul\":6974:6975   */\n      0x00\n        /* \"#utility.yul\":6963:6972   */\n      dup4\n        /* \"#utility.yul\":6959:6976   */\n      add\n        /* \"#utility.yul\":6950:6956   */\n      dup6\n        /* \"#utility.yul\":6906:6977   */\n      tag_258\n      jump\t// in\n    tag_373:\n        /* \"#utility.yul\":6987:7059   */\n      tag_374\n        /* \"#utility.yul\":7055:7057   */\n      0x20\n        /* \"#utility.yul\":7044:7053   */\n      dup4\n        /* \"#utility.yul\":7040:7058   */\n      add\n        /* \"#utility.yul\":7031:7037   */\n      dup5\n        /* \"#utility.yul\":6987:7059   */\n      tag_234\n      jump\t// in\n    tag_374:\n        /* \"#utility.yul\":6734:7066   */\n      swap4\n      swap3\n      pop\n      pop\n      pop\n      jump\t// out\n        /* \"#utility.yul\":7072:7194   */\n    tag_259:\n        /* \"#utility.yul\":7145:7169   */\n      tag_376\n        /* \"#utility.yul\":7163:7168   */\n      dup2\n        /* \"#utility.yul\":7145:7169   */\n      tag_233\n      jump\t// in\n    tag_376:\n        /* \"#utility.yul\":7138:7143   */\n      dup2\n        /* \"#utility.yul\":7135:7170   */\n      eq\n        /* \"#utility.yul\":7125:7188   */\n      tag_377\n      jumpi\n        /* \"#utility.yul\":7184:7185   */\n      0x00\n        /* \"#utility.yul\":7181:7182   */\n      0x00\n        /* \"#utility.yul\":7174:7186   */\n      revert\n        /* \"#utility.yul\":7125:7188   */\n    tag_377:\n        /* \"#utility.yul\":7072:7194   */\n      pop\n      jump\t// out\n        /* \"#utility.yul\":7200:7339   */\n    tag_260:\n        /* \"#utility.yul\":7246:7251   */\n      0x00\n        /* \"#utility.yul\":7284:7290   */\n      dup2\n        /* \"#utility.yul\":7271:7291   */\n      calldataload\n        /* \"#utility.yul\":7262:7291   */\n      swap1\n      pop\n        /* \"#utility.yul\":7300:7333   */\n      tag_379\n        /* \"#utility.yul\":7327:7332   */\n      dup2\n        /* \"#utility.yul\":7300:7333   */\n      tag_259\n      jump\t// in\n    tag_379:\n        /* \"#utility.yul\":7200:7339   */\n      swap3\n      swap2\n      pop\n      pop\n      jump\t// out\n        /* \"#utility.yul\":7345:7674   */\n    tag_87:\n        /* \"#utility.yul\":7404:7410   */\n      0x00\n        /* \"#utility.yul\":7453:7455   */\n      0x20\n        /* \"#utility.yul\":7441:7450   */\n      dup3\n        /* \"#utility.yul\":7432:7439   */\n      dup5\n        /* \"#utility.yul\":7428:7451   */\n      sub\n        /* \"#utility.yul\":7424:7456   */\n      slt\n        /* \"#utility.yul\":7421:7540   */\n      iszero\n      tag_381\n      jumpi\n        /* \"#utility.yul\":7459:7538   */\n      tag_382\n      tag_252\n      jump\t// in\n    tag_382:\n        /* \"#utility.yul\":7421:7540   */\n    tag_381:\n        /* \"#utility.yul\":7579:7580   */\n      0x00\n        /* \"#utility.yul\":7604:7657   */\n      tag_383\n        /* \"#utility.yul\":7649:7656   */\n      dup5\n        /* \"#utility.yul\":7640:7646   */\n      dup3\n        /* \"#utility.yul\":7629:7638   */\n      dup6\n        /* \"#utility.yul\":7625:7647   */\n      add\n        /* \"#utility.yul\":7604:7657   */\n      tag_260\n      jump\t// in\n    tag_383:\n        /* \"#utility.yul\":7594:7657   */\n      swap2\n      pop\n        /* \"#utility.yul\":7550:7667   */\n      pop\n        /* \"#utility.yul\":7345:7674   */\n      swap3\n      swap2\n      pop\n      pop\n      jump\t// out\n        /* \"#utility.yul\":7680:7860   */\n    tag_261:\n        /* \"#utility.yul\":7728:7805   */\n      0x4e487b7100000000000000000000000000000000000000000000000000000000\n        /* \"#utility.yul\":7725:7726   */\n      0x00\n        /* \"#utility.yul\":7718:7806   */\n      mstore\n        /* \"#utility.yul\":7825:7829   */\n      0x11\n        /* \"#utility.yul\":7822:7823   */\n      0x04\n        /* \"#utility.yul\":7815:7830   */\n      mstore\n        /* \"#utility.yul\":7849:7853   */\n      0x24\n        /* \"#utility.yul\":7846:7847   */\n      0x00\n        /* \"#utility.yul\":7839:7854   */\n      revert\n        /* \"#utility.yul\":7866:8060   */\n    tag_109:\n        /* \"#utility.yul\":7906:7910   */\n      0x00\n        /* \"#utility.yul\":7926:7946   */\n      tag_386\n        /* \"#utility.yul\":7944:7945   */\n      dup3\n        /* \"#utility.yul\":7926:7946   */\n      tag_233\n      jump\t// in\n    tag_386:\n        /* \"#utility.yul\":7921:7946   */\n      swap2\n      pop\n        /* \"#utility.yul\":7960:7980   */\n      tag_387\n        /* \"#utility.yul\":7978:7979   */\n      dup4\n        /* \"#utility.yul\":7960:7980   */\n      tag_233\n      jump\t// in\n    tag_387:\n        /* \"#utility.yul\":7955:7980   */\n      swap3\n      pop\n        /* \"#utility.yul\":8004:8005   */\n      dup3\n        /* \"#utility.yul\":8001:8002   */\n      dup3\n        /* \"#utility.yul\":7997:8006   */\n      sub\n        /* \"#utility.yul\":7989:8006   */\n      swap1\n      pop\n        /* \"#utility.yul\":8028:8029   */\n      dup2\n        /* \"#utility.yul\":8022:8026   */\n      dup2\n        /* \"#utility.yul\":8019:8030   */\n      gt\n        /* \"#utility.yul\":8016:8053   */\n      iszero\n      tag_388\n      jumpi\n        /* \"#utility.yul\":8033:8051   */\n      tag_389\n      tag_261\n      jump\t// in\n    tag_389:\n        /* \"#utility.yul\":8016:8053   */\n    tag_388:\n        /* \"#utility.yul\":7866:8060   */\n      swap3\n      swap2\n      pop\n      pop\n      jump\t// out\n        /* \"#utility.yul\":8066:8246   */\n    tag_113:\n        /* \"#utility.yul\":8114:8191   */\n      0x4e487b7100000000000000000000000000000000000000000000000000000000\n        /* \"#utility.yul\":8111:8112   */\n      0x00\n        /* \"#utility.yul\":8104:8192   */\n      mstore\n        /* \"#utility.yul\":8211:8215   */\n      0x41\n        /* \"#utility.yul\":8208:8209   */\n      0x04\n        /* \"#utility.yul\":8201:8216   */\n      mstore\n        /* \"#utility.yul\":8235:8239   */\n      0x24\n        /* \"#utility.yul\":8232:8233   */\n      0x00\n        /* \"#utility.yul\":8225:8240   */\n      revert\n        /* \"#utility.yul\":8252:8432   */\n    tag_120:\n        /* \"#utility.yul\":8300:8377   */\n      0x4e487b7100000000000000000000000000000000000000000000000000000000\n        /* \"#utility.yul\":8297:8298   */\n      0x00\n        /* \"#utility.yul\":8290:8378   */\n      mstore\n        /* \"#utility.yul\":8397:8401   */\n      0x32\n        /* \"#utility.yul\":8394:8395   */\n      0x04\n        /* \"#utility.yul\":8387:8402   */\n      mstore\n        /* \"#utility.yul\":8421:8425   */\n      0x24\n        /* \"#utility.yul\":8418:8419   */\n      0x00\n        /* \"#utility.yul\":8411:8426   */\n      revert\n        /* \"#utility.yul\":8438:8607   */\n    tag_262:\n        /* \"#utility.yul\":8522:8533   */\n      0x00\n        /* \"#utility.yul\":8556:8562   */\n      dup3\n        /* \"#utility.yul\":8551:8554   */\n      dup3\n        /* \"#utility.yul\":8544:8563   */\n      mstore\n        /* \"#utility.yul\":8596:8600   */\n      0x20\n        /* \"#utility.yul\":8591:8594   */\n      dup3\n        /* \"#utility.yul\":8587:8601   */\n      add\n        /* \"#utility.yul\":8572:8601   */\n      swap1\n      pop\n        /* \"#utility.yul\":8438:8607   */\n      swap3\n      swap2\n      pop\n      pop\n      jump\t// out\n        /* \"#utility.yul\":8613:8833   */\n    tag_263:\n        /* \"#utility.yul\":8753:8787   */\n      0x537562617374613a204c612073756261737461206861207465726d696e61646f\n        /* \"#utility.yul\":8749:8750   */\n      0x00\n        /* \"#utility.yul\":8741:8747   */\n      dup3\n        /* \"#utility.yul\":8737:8751   */\n      add\n        /* \"#utility.yul\":8730:8788   */\n      mstore\n        /* \"#utility.yul\":8822:8825   */\n      0x2e00000000000000000000000000000000000000000000000000000000000000\n        /* \"#utility.yul\":8817:8819   */\n      0x20\n        /* \"#utility.yul\":8809:8815   */\n      dup3\n        /* \"#utility.yul\":8805:8820   */\n      add\n        /* \"#utility.yul\":8798:8826   */\n      mstore\n        /* \"#utility.yul\":8613:8833   */\n      pop\n      jump\t// out\n        /* \"#utility.yul\":8839:9205   */\n    tag_264:\n        /* \"#utility.yul\":8981:8984   */\n      0x00\n        /* \"#utility.yul\":9002:9069   */\n      tag_395\n        /* \"#utility.yul\":9066:9068   */\n      0x21\n        /* \"#utility.yul\":9061:9064   */\n      dup4\n        /* \"#utility.yul\":9002:9069   */\n      tag_262\n      jump\t// in\n    tag_395:\n        /* \"#utility.yul\":8995:9069   */\n      swap2\n      pop\n        /* \"#utility.yul\":9078:9171   */\n      tag_396\n        /* \"#utility.yul\":9167:9170   */\n      dup3\n        /* \"#utility.yul\":9078:9171   */\n      tag_263\n      jump\t// in\n    tag_396:\n        /* \"#utility.yul\":9196:9198   */\n      0x40\n        /* \"#utility.yul\":9191:9194   */\n      dup3\n        /* \"#utility.yul\":9187:9199   */\n      add\n        /* \"#utility.yul\":9180:9199   */\n      swap1\n      pop\n        /* \"#utility.yul\":8839:9205   */\n      swap2\n      swap1\n      pop\n      jump\t// out\n        /* \"#utility.yul\":9211:9630   */\n    tag_129:\n        /* \"#utility.yul\":9377:9381   */\n      0x00\n        /* \"#utility.yul\":9415:9417   */\n      0x20\n        /* \"#utility.yul\":9404:9413   */\n      dup3\n        /* \"#utility.yul\":9400:9418   */\n      add\n        /* \"#utility.yul\":9392:9418   */\n      swap1\n      pop\n        /* \"#utility.yul\":9464:9473   */\n      dup2\n        /* \"#utility.yul\":9458:9462   */\n      dup2\n        /* \"#utility.yul\":9454:9474   */\n      sub\n        /* \"#utility.yul\":9450:9451   */\n      0x00\n        /* \"#utility.yul\":9439:9448   */\n      dup4\n        /* \"#utility.yul\":9435:9452   */\n      add\n        /* \"#utility.yul\":9428:9475   */\n      mstore\n        /* \"#utility.yul\":9492:9623   */\n      tag_398\n        /* \"#utility.yul\":9618:9622   */\n      dup2\n        /* \"#utility.yul\":9492:9623   */\n      tag_264\n      jump\t// in\n    tag_398:\n        /* \"#utility.yul\":9484:9623   */\n      swap1\n      pop\n        /* \"#utility.yul\":9211:9630   */\n      swap2\n      swap1\n      pop\n      jump\t// out\n        /* \"#utility.yul\":9636:9875   */\n    tag_265:\n        /* \"#utility.yul\":9776:9810   */\n      0x537562617374613a204c6120737562617374612079612073652068612066696e\n        /* \"#utility.yul\":9772:9773   */\n      0x00\n        /* \"#utility.yul\":9764:9770   */\n      dup3\n        /* \"#utility.yul\":9760:9774   */\n      add\n        /* \"#utility.yul\":9753:9811   */\n      mstore\n        /* \"#utility.yul\":9845:9867   */\n      0x616c697a61646f206d616e75616c6d656e74652e000000000000000000000000\n        /* \"#utility.yul\":9840:9842   */\n      0x20\n        /* \"#utility.yul\":9832:9838   */\n      dup3\n        /* \"#utility.yul\":9828:9843   */\n      add\n        /* \"#utility.yul\":9821:9868   */\n      mstore\n        /* \"#utility.yul\":9636:9875   */\n      pop\n      jump\t// out\n        /* \"#utility.yul\":9881:10247   */\n    tag_266:\n        /* \"#utility.yul\":10023:10026   */\n      0x00\n        /* \"#utility.yul\":10044:10111   */\n      tag_401\n        /* \"#utility.yul\":10108:10110   */\n      0x34\n        /* \"#utility.yul\":10103:10106   */\n      dup4\n        /* \"#utility.yul\":10044:10111   */\n      tag_262\n      jump\t// in\n    tag_401:\n        /* \"#utility.yul\":10037:10111   */\n      swap2\n      pop\n        /* \"#utility.yul\":10120:10213   */\n      tag_402\n        /* \"#utility.yul\":10209:10212   */\n      dup3\n        /* \"#utility.yul\":10120:10213   */\n      tag_265\n      jump\t// in\n    tag_402:\n        /* \"#utility.yul\":10238:10240   */\n      0x40\n        /* \"#utility.yul\":10233:10236   */\n      dup3\n        /* \"#utility.yul\":10229:10241   */\n      add\n        /* \"#utility.yul\":10222:10241   */\n      swap1\n      pop\n        /* \"#utility.yul\":9881:10247   */\n      swap2\n      swap1\n      pop\n      jump\t// out\n        /* \"#utility.yul\":10253:10672   */\n    tag_132:\n        /* \"#utility.yul\":10419:10423   */\n      0x00\n        /* \"#utility.yul\":10457:10459   */\n      0x20\n        /* \"#utility.yul\":10446:10455   */\n      dup3\n        /* \"#utility.yul\":10442:10460   */\n      add\n        /* \"#utility.yul\":10434:10460   */\n      swap1\n      pop\n        /* \"#utility.yul\":10506:10515   */\n      dup2\n        /* \"#utility.yul\":10500:10504   */\n      dup2\n        /* \"#utility.yul\":10496:10516   */\n      sub\n        /* \"#utility.yul\":10492:10493   */\n      0x00\n        /* \"#utility.yul\":10481:10490   */\n      dup4\n        /* \"#utility.yul\":10477:10494   */\n      add\n        /* \"#utility.yul\":10470:10517   */\n      mstore\n        /* \"#utility.yul\":10534:10665   */\n      tag_404\n        /* \"#utility.yul\":10660:10664   */\n      dup2\n        /* \"#utility.yul\":10534:10665   */\n      tag_266\n      jump\t// in\n    tag_404:\n        /* \"#utility.yul\":10526:10665   */\n      swap1\n      pop\n        /* \"#utility.yul\":10253:10672   */\n      swap2\n      swap1\n      pop\n      jump\t// out\n        /* \"#utility.yul\":10678:10845   */\n    tag_267:\n        /* \"#utility.yul\":10818:10837   */\n      0x446562657320656e76696172204554482e000000000000000000000000000000\n        /* \"#utility.yul\":10814:10815   */\n      0x00\n        /* \"#utility.yul\":10806:10812   */\n      dup3\n        /* \"#utility.yul\":10802:10816   */\n      add\n        /* \"#utility.yul\":10795:10838   */\n      mstore\n        /* \"#utility.yul\":10678:10845   */\n      pop\n      jump\t// out\n        /* \"#utility.yul\":10851:11217   */\n    tag_268:\n        /* \"#utility.yul\":10993:10996   */\n      0x00\n        /* \"#utility.yul\":11014:11081   */\n      tag_407\n        /* \"#utility.yul\":11078:11080   */\n      0x11\n        /* \"#utility.yul\":11073:11076   */\n      dup4\n        /* \"#utility.yul\":11014:11081   */\n      tag_262\n      jump\t// in\n    tag_407:\n        /* \"#utility.yul\":11007:11081   */\n      swap2\n      pop\n        /* \"#utility.yul\":11090:11183   */\n      tag_408\n        /* \"#utility.yul\":11179:11182   */\n      dup3\n        /* \"#utility.yul\":11090:11183   */\n      tag_267\n      jump\t// in\n    tag_408:\n        /* \"#utility.yul\":11208:11210   */\n      0x20\n        /* \"#utility.yul\":11203:11206   */\n      dup3\n        /* \"#utility.yul\":11199:11211   */\n      add\n        /* \"#utility.yul\":11192:11211   */\n      swap1\n      pop\n        /* \"#utility.yul\":10851:11217   */\n      swap2\n      swap1\n      pop\n      jump\t// out\n        /* \"#utility.yul\":11223:11642   */\n    tag_136:\n        /* \"#utility.yul\":11389:11393   */\n      0x00\n        /* \"#utility.yul\":11427:11429   */\n      0x20\n        /* \"#utility.yul\":11416:11425   */\n      dup3\n        /* \"#utility.yul\":11412:11430   */\n      add\n        /* \"#utility.yul\":11404:11430   */\n      swap1\n      pop\n        /* \"#utility.yul\":11476:11485   */\n      dup2\n        /* \"#utility.yul\":11470:11474   */\n      dup2\n        /* \"#utility.yul\":11466:11486   */\n      sub\n        /* \"#utility.yul\":11462:11463   */\n      0x00\n        /* \"#utility.yul\":11451:11460   */\n      dup4\n        /* \"#utility.yul\":11447:11464   */\n      add\n        /* \"#utility.yul\":11440:11487   */\n      mstore\n        /* \"#utility.yul\":11504:11635   */\n      tag_410\n        /* \"#utility.yul\":11630:11634   */\n      dup2\n        /* \"#utility.yul\":11504:11635   */\n      tag_268\n      jump\t// in\n    tag_410:\n        /* \"#utility.yul\":11496:11635   */\n      swap1\n      pop\n        /* \"#utility.yul\":11223:11642   */\n      swap2\n      swap1\n      pop\n      jump\t// out\n        /* \"#utility.yul\":11648:11839   */\n    tag_138:\n        /* \"#utility.yul\":11688:11691   */\n      0x00\n        /* \"#utility.yul\":11707:11727   */\n      tag_412\n        /* \"#utility.yul\":11725:11726   */\n      dup3\n        /* \"#utility.yul\":11707:11727   */\n      tag_233\n      jump\t// in\n    tag_412:\n        /* \"#utility.yul\":11702:11727   */\n      swap2\n      pop\n        /* \"#utility.yul\":11741:11761   */\n      tag_413\n        /* \"#utility.yul\":11759:11760   */\n      dup4\n        /* \"#utility.yul\":11741:11761   */\n      tag_233\n      jump\t// in\n    tag_413:\n        /* \"#utility.yul\":11736:11761   */\n      swap3\n      pop\n        /* \"#utility.yul\":11784:11785   */\n      dup3\n        /* \"#utility.yul\":11781:11782   */\n      dup3\n        /* \"#utility.yul\":11777:11786   */\n      add\n        /* \"#utility.yul\":11770:11786   */\n      swap1\n      pop\n        /* \"#utility.yul\":11805:11808   */\n      dup1\n        /* \"#utility.yul\":11802:11803   */\n      dup3\n        /* \"#utility.yul\":11799:11809   */\n      gt\n        /* \"#utility.yul\":11796:11832   */\n      iszero\n      tag_414\n      jumpi\n        /* \"#utility.yul\":11812:11830   */\n      tag_415\n      tag_261\n      jump\t// in\n    tag_415:\n        /* \"#utility.yul\":11796:11832   */\n    tag_414:\n        /* \"#utility.yul\":11648:11839   */\n      swap3\n      swap2\n      pop\n      pop\n      jump\t// out\n        /* \"#utility.yul\":11845:12255   */\n    tag_142:\n        /* \"#utility.yul\":11885:11892   */\n      0x00\n        /* \"#utility.yul\":11908:11928   */\n      tag_417\n        /* \"#utility.yul\":11926:11927   */\n      dup3\n        /* \"#utility.yul\":11908:11928   */\n      tag_233\n      jump\t// in\n    tag_417:\n        /* \"#utility.yul\":11903:11928   */\n      swap2\n      pop\n        /* \"#utility.yul\":11942:11962   */\n      tag_418\n        /* \"#utility.yul\":11960:11961   */\n      dup4\n        /* \"#utility.yul\":11942:11962   */\n      tag_233\n      jump\t// in\n    tag_418:\n        /* \"#utility.yul\":11937:11962   */\n      swap3\n      pop\n        /* \"#utility.yul\":11997:11998   */\n      dup3\n        /* \"#utility.yul\":11994:11995   */\n      dup3\n        /* \"#utility.yul\":11990:11999   */\n      mul\n        /* \"#utility.yul\":12019:12049   */\n      tag_419\n        /* \"#utility.yul\":12037:12048   */\n      dup2\n        /* \"#utility.yul\":12019:12049   */\n      tag_233\n      jump\t// in\n    tag_419:\n        /* \"#utility.yul\":12008:12049   */\n      swap2\n      pop\n        /* \"#utility.yul\":12198:12199   */\n      dup3\n        /* \"#utility.yul\":12189:12196   */\n      dup3\n        /* \"#utility.yul\":12185:12200   */\n      div\n        /* \"#utility.yul\":12182:12183   */\n      dup5\n        /* \"#utility.yul\":12179:12201   */\n      eq\n        /* \"#utility.yul\":12159:12160   */\n      dup4\n        /* \"#utility.yul\":12152:12161   */\n      iszero\n        /* \"#utility.yul\":12132:12215   */\n      or\n        /* \"#utility.yul\":12109:12248   */\n      tag_420\n      jumpi\n        /* \"#utility.yul\":12228:12246   */\n      tag_421\n      tag_261\n      jump\t// in\n    tag_421:\n        /* \"#utility.yul\":12109:12248   */\n    tag_420:\n        /* \"#utility.yul\":11893:12255   */\n      pop\n        /* \"#utility.yul\":11845:12255   */\n      swap3\n      swap2\n      pop\n      pop\n      jump\t// out\n        /* \"#utility.yul\":12261:12441   */\n    tag_269:\n        /* \"#utility.yul\":12309:12386   */\n      0x4e487b7100000000000000000000000000000000000000000000000000000000\n        /* \"#utility.yul\":12306:12307   */\n      0x00\n        /* \"#utility.yul\":12299:12387   */\n      mstore\n        /* \"#utility.yul\":12406:12410   */\n      0x12\n        /* \"#utility.yul\":12403:12404   */\n      0x04\n        /* \"#utility.yul\":12396:12411   */\n      mstore\n        /* \"#utility.yul\":12430:12434   */\n      0x24\n        /* \"#utility.yul\":12427:12428   */\n      0x00\n        /* \"#utility.yul\":12420:12435   */\n      revert\n        /* \"#utility.yul\":12447:12632   */\n    tag_144:\n        /* \"#utility.yul\":12487:12488   */\n      0x00\n        /* \"#utility.yul\":12504:12524   */\n      tag_424\n        /* \"#utility.yul\":12522:12523   */\n      dup3\n        /* \"#utility.yul\":12504:12524   */\n      tag_233\n      jump\t// in\n    tag_424:\n        /* \"#utility.yul\":12499:12524   */\n      swap2\n      pop\n        /* \"#utility.yul\":12538:12558   */\n      tag_425\n        /* \"#utility.yul\":12556:12557   */\n      dup4\n        /* \"#utility.yul\":12538:12558   */\n      tag_233\n      jump\t// in\n    tag_425:\n        /* \"#utility.yul\":12533:12558   */\n      swap3\n      pop\n        /* \"#utility.yul\":12577:12578   */\n      dup3\n        /* \"#utility.yul\":12567:12602   */\n      tag_426\n      jumpi\n        /* \"#utility.yul\":12582:12600   */\n      tag_427\n      tag_269\n      jump\t// in\n    tag_427:\n        /* \"#utility.yul\":12567:12602   */\n    tag_426:\n        /* \"#utility.yul\":12624:12625   */\n      dup3\n        /* \"#utility.yul\":12621:12622   */\n      dup3\n        /* \"#utility.yul\":12617:12626   */\n      div\n        /* \"#utility.yul\":12612:12626   */\n      swap1\n      pop\n        /* \"#utility.yul\":12447:12632   */\n      swap3\n      swap2\n      pop\n      pop\n      jump\t// out\n        /* \"#utility.yul\":12638:12929   */\n    tag_270:\n        /* \"#utility.yul\":12778:12812   */\n      0x537562617374613a205375206f66657274612064656265206578636564657220\n        /* \"#utility.yul\":12774:12775   */\n      0x00\n        /* \"#utility.yul\":12766:12772   */\n      dup3\n        /* \"#utility.yul\":12762:12776   */\n      add\n        /* \"#utility.yul\":12755:12813   */\n      mstore\n        /* \"#utility.yul\":12847:12881   */\n      0x7375206f66657274612061637475616c20656e20616c206d656e6f7320756e20\n        /* \"#utility.yul\":12842:12844   */\n      0x20\n        /* \"#utility.yul\":12834:12840   */\n      dup3\n        /* \"#utility.yul\":12830:12845   */\n      add\n        /* \"#utility.yul\":12823:12882   */\n      mstore\n        /* \"#utility.yul\":12916:12921   */\n      0x35252e0000000000000000000000000000000000000000000000000000000000\n        /* \"#utility.yul\":12911:12913   */\n      0x40\n        /* \"#utility.yul\":12903:12909   */\n      dup3\n        /* \"#utility.yul\":12899:12914   */\n      add\n        /* \"#utility.yul\":12892:12922   */\n      mstore\n        /* \"#utility.yul\":12638:12929   */\n      pop\n      jump\t// out\n        /* \"#utility.yul\":12935:13301   */\n    tag_271:\n        /* \"#utility.yul\":13077:13080   */\n      0x00\n        /* \"#utility.yul\":13098:13165   */\n      tag_430\n        /* \"#utility.yul\":13162:13164   */\n      0x43\n        /* \"#utility.yul\":13157:13160   */\n      dup4\n        /* \"#utility.yul\":13098:13165   */\n      tag_262\n      jump\t// in\n    tag_430:\n        /* \"#utility.yul\":13091:13165   */\n      swap2\n      pop\n        /* \"#utility.yul\":13174:13267   */\n      tag_431\n        /* \"#utility.yul\":13263:13266   */\n      dup3\n        /* \"#utility.yul\":13174:13267   */\n      tag_270\n      jump\t// in\n    tag_431:\n        /* \"#utility.yul\":13292:13294   */\n      0x60\n        /* \"#utility.yul\":13287:13290   */\n      dup3\n        /* \"#utility.yul\":13283:13295   */\n      add\n        /* \"#utility.yul\":13276:13295   */\n      swap1\n      pop\n        /* \"#utility.yul\":12935:13301   */\n      swap2\n      swap1\n      pop\n      jump\t// out\n        /* \"#utility.yul\":13307:13726   */\n    tag_148:\n        /* \"#utility.yul\":13473:13477   */\n      0x00\n        /* \"#utility.yul\":13511:13513   */\n      0x20\n        /* \"#utility.yul\":13500:13509   */\n      dup3\n        /* \"#utility.yul\":13496:13514   */\n      add\n        /* \"#utility.yul\":13488:13514   */\n      swap1\n      pop\n        /* \"#utility.yul\":13560:13569   */\n      dup2\n        /* \"#utility.yul\":13554:13558   */\n      dup2\n        /* \"#utility.yul\":13550:13570   */\n      sub\n        /* \"#utility.yul\":13546:13547   */\n      0x00\n        /* \"#utility.yul\":13535:13544   */\n      dup4\n        /* \"#utility.yul\":13531:13548   */\n      add\n        /* \"#utility.yul\":13524:13571   */\n      mstore\n        /* \"#utility.yul\":13588:13719   */\n      tag_433\n        /* \"#utility.yul\":13714:13718   */\n      dup2\n        /* \"#utility.yul\":13588:13719   */\n      tag_271\n      jump\t// in\n    tag_433:\n        /* \"#utility.yul\":13580:13719   */\n      swap1\n      pop\n        /* \"#utility.yul\":13307:13726   */\n      swap2\n      swap1\n      pop\n      jump\t// out\n        /* \"#utility.yul\":13732:13970   */\n    tag_272:\n        /* \"#utility.yul\":13872:13906   */\n      0x537562617374613a204c61207072696d657261206f6665727461206465626520\n        /* \"#utility.yul\":13868:13869   */\n      0x00\n        /* \"#utility.yul\":13860:13866   */\n      dup3\n        /* \"#utility.yul\":13856:13870   */\n      add\n        /* \"#utility.yul\":13849:13907   */\n      mstore\n        /* \"#utility.yul\":13941:13962   */\n      0x736572206d61796f7220717565206365726f2e00000000000000000000000000\n        /* \"#utility.yul\":13936:13938   */\n      0x20\n        /* \"#utility.yul\":13928:13934   */\n      dup3\n        /* \"#utility.yul\":13924:13939   */\n      add\n        /* \"#utility.yul\":13917:13963   */\n      mstore\n        /* \"#utility.yul\":13732:13970   */\n      pop\n      jump\t// out\n        /* \"#utility.yul\":13976:14342   */\n    tag_273:\n        /* \"#utility.yul\":14118:14121   */\n      0x00\n        /* \"#utility.yul\":14139:14206   */\n      tag_436\n        /* \"#utility.yul\":14203:14205   */\n      0x33\n        /* \"#utility.yul\":14198:14201   */\n      dup4\n        /* \"#utility.yul\":14139:14206   */\n      tag_262\n      jump\t// in\n    tag_436:\n        /* \"#utility.yul\":14132:14206   */\n      swap2\n      pop\n        /* \"#utility.yul\":14215:14308   */\n      tag_437\n        /* \"#utility.yul\":14304:14307   */\n      dup3\n        /* \"#utility.yul\":14215:14308   */\n      tag_272\n      jump\t// in\n    tag_437:\n        /* \"#utility.yul\":14333:14335   */\n      0x40\n        /* \"#utility.yul\":14328:14331   */\n      dup3\n        /* \"#utility.yul\":14324:14336   */\n      add\n        /* \"#utility.yul\":14317:14336   */\n      swap1\n      pop\n        /* \"#utility.yul\":13976:14342   */\n      swap2\n      swap1\n      pop\n      jump\t// out\n        /* \"#utility.yul\":14348:14767   */\n    tag_152:\n        /* \"#utility.yul\":14514:14518   */\n      0x00\n        /* \"#utility.yul\":14552:14554   */\n      0x20\n        /* \"#utility.yul\":14541:14550   */\n      dup3\n        /* \"#utility.yul\":14537:14555   */\n      add\n        /* \"#utility.yul\":14529:14555   */\n      swap1\n      pop\n        /* \"#utility.yul\":14601:14610   */\n      dup2\n        /* \"#utility.yul\":14595:14599   */\n      dup2\n        /* \"#utility.yul\":14591:14611   */\n      sub\n        /* \"#utility.yul\":14587:14588   */\n      0x00\n        /* \"#utility.yul\":14576:14585   */\n      dup4\n        /* \"#utility.yul\":14572:14589   */\n      add\n        /* \"#utility.yul\":14565:14612   */\n      mstore\n        /* \"#utility.yul\":14629:14760   */\n      tag_439\n        /* \"#utility.yul\":14755:14759   */\n      dup2\n        /* \"#utility.yul\":14629:14760   */\n      tag_273\n      jump\t// in\n    tag_439:\n        /* \"#utility.yul\":14621:14760   */\n      swap1\n      pop\n        /* \"#utility.yul\":14348:14767   */\n      swap2\n      swap1\n      pop\n      jump\t// out\n        /* \"#utility.yul\":14773:15064   */\n    tag_274:\n        /* \"#utility.yul\":14913:14947   */\n      0x537562617374613a205375206f66657274612064656265206578636564657220\n        /* \"#utility.yul\":14909:14910   */\n      0x00\n        /* \"#utility.yul\":14901:14907   */\n      dup3\n        /* \"#utility.yul\":14897:14911   */\n      add\n        /* \"#utility.yul\":14890:14948   */\n      mstore\n        /* \"#utility.yul\":14982:15016   */\n      0x6c61206f66657274612061637475616c20656e20616c206d656e6f7320756e20\n        /* \"#utility.yul\":14977:14979   */\n      0x20\n        /* \"#utility.yul\":14969:14975   */\n      dup3\n        /* \"#utility.yul\":14965:14980   */\n      add\n        /* \"#utility.yul\":14958:15017   */\n      mstore\n        /* \"#utility.yul\":15051:15056   */\n      0x35252e0000000000000000000000000000000000000000000000000000000000\n        /* \"#utility.yul\":15046:15048   */\n      0x40\n        /* \"#utility.yul\":15038:15044   */\n      dup3\n        /* \"#utility.yul\":15034:15049   */\n      add\n        /* \"#utility.yul\":15027:15057   */\n      mstore\n        /* \"#utility.yul\":14773:15064   */\n      pop\n      jump\t// out\n        /* \"#utility.yul\":15070:15436   */\n    tag_275:\n        /* \"#utility.yul\":15212:15215   */\n      0x00\n        /* \"#utility.yul\":15233:15300   */\n      tag_442\n        /* \"#utility.yul\":15297:15299   */\n      0x43\n        /* \"#utility.yul\":15292:15295   */\n      dup4\n        /* \"#utility.yul\":15233:15300   */\n      tag_262\n      jump\t// in\n    tag_442:\n        /* \"#utility.yul\":15226:15300   */\n      swap2\n      pop\n        /* \"#utility.yul\":15309:15402   */\n      tag_443\n        /* \"#utility.yul\":15398:15401   */\n      dup3\n        /* \"#utility.yul\":15309:15402   */\n      tag_274\n      jump\t// in\n    tag_443:\n        /* \"#utility.yul\":15427:15429   */\n      0x60\n        /* \"#utility.yul\":15422:15425   */\n      dup3\n        /* \"#utility.yul\":15418:15430   */\n      add\n        /* \"#utility.yul\":15411:15430   */\n      swap1\n      pop\n        /* \"#utility.yul\":15070:15436   */\n      swap2\n      swap1\n      pop\n      jump\t// out\n        /* \"#utility.yul\":15442:15861   */\n    tag_159:\n        /* \"#utility.yul\":15608:15612   */\n      0x00\n        /* \"#utility.yul\":15646:15648   */\n      0x20\n        /* \"#utility.yul\":15635:15644   */\n      dup3\n        /* \"#utility.yul\":15631:15649   */\n      add\n        /* \"#utility.yul\":15623:15649   */\n      swap1\n      pop\n        /* \"#utility.yul\":15695:15704   */\n      dup2\n        /* \"#utility.yul\":15689:15693   */\n      dup2\n        /* \"#utility.yul\":15685:15705   */\n      sub\n        /* \"#utility.yul\":15681:15682   */\n      0x00\n        /* \"#utility.yul\":15670:15679   */\n      dup4\n        /* \"#utility.yul\":15666:15683   */\n      add\n        /* \"#utility.yul\":15659:15706   */\n      mstore\n        /* \"#utility.yul\":15723:15854   */\n      tag_445\n        /* \"#utility.yul\":15849:15853   */\n      dup2\n        /* \"#utility.yul\":15723:15854   */\n      tag_275\n      jump\t// in\n    tag_445:\n        /* \"#utility.yul\":15715:15854   */\n      swap1\n      pop\n        /* \"#utility.yul\":15442:15861   */\n      swap2\n      swap1\n      pop\n      jump\t// out\n        /* \"#utility.yul\":15867:16103   */\n    tag_276:\n        /* \"#utility.yul\":16007:16041   */\n      0x537562617374613a20536f6c6f20656c2070726f706965746172696f20707565\n        /* \"#utility.yul\":16003:16004   */\n      0x00\n        /* \"#utility.yul\":15995:16001   */\n      dup3\n        /* \"#utility.yul\":15991:16005   */\n      add\n        /* \"#utility.yul\":15984:16042   */\n      mstore\n        /* \"#utility.yul\":16076:16095   */\n      0x646520656a656375746172206573746f2e000000000000000000000000000000\n        /* \"#utility.yul\":16071:16073   */\n      0x20\n        /* \"#utility.yul\":16063:16069   */\n      dup3\n        /* \"#utility.yul\":16059:16074   */\n      add\n        /* \"#utility.yul\":16052:16096   */\n      mstore\n        /* \"#utility.yul\":15867:16103   */\n      pop\n      jump\t// out\n        /* \"#utility.yul\":16109:16475   */\n    tag_277:\n        /* \"#utility.yul\":16251:16254   */\n      0x00\n        /* \"#utility.yul\":16272:16339   */\n      tag_448\n        /* \"#utility.yul\":16336:16338   */\n      0x31\n        /* \"#utility.yul\":16331:16334   */\n      dup4\n        /* \"#utility.yul\":16272:16339   */\n      tag_262\n      jump\t// in\n    tag_448:\n        /* \"#utility.yul\":16265:16339   */\n      swap2\n      pop\n        /* \"#utility.yul\":16348:16441   */\n      tag_449\n        /* \"#utility.yul\":16437:16440   */\n      dup3\n        /* \"#utility.yul\":16348:16441   */\n      tag_276\n      jump\t// in\n    tag_449:\n        /* \"#utility.yul\":16466:16468   */\n      0x40\n        /* \"#utility.yul\":16461:16464   */\n      dup3\n        /* \"#utility.yul\":16457:16469   */\n      add\n        /* \"#utility.yul\":16450:16469   */\n      swap1\n      pop\n        /* \"#utility.yul\":16109:16475   */\n      swap2\n      swap1\n      pop\n      jump\t// out\n        /* \"#utility.yul\":16481:16900   */\n    tag_171:\n        /* \"#utility.yul\":16647:16651   */\n      0x00\n        /* \"#utility.yul\":16685:16687   */\n      0x20\n        /* \"#utility.yul\":16674:16683   */\n      dup3\n        /* \"#utility.yul\":16670:16688   */\n      add\n        /* \"#utility.yul\":16662:16688   */\n      swap1\n      pop\n        /* \"#utility.yul\":16734:16743   */\n      dup2\n        /* \"#utility.yul\":16728:16732   */\n      dup2\n        /* \"#utility.yul\":16724:16744   */\n      sub\n        /* \"#utility.yul\":16720:16721   */\n      0x00\n        /* \"#utility.yul\":16709:16718   */\n      dup4\n        /* \"#utility.yul\":16705:16722   */\n      add\n        /* \"#utility.yul\":16698:16745   */\n      mstore\n        /* \"#utility.yul\":16762:16893   */\n      tag_451\n        /* \"#utility.yul\":16888:16892   */\n      dup2\n        /* \"#utility.yul\":16762:16893   */\n      tag_277\n      jump\t// in\n    tag_451:\n        /* \"#utility.yul\":16754:16893   */\n      swap1\n      pop\n        /* \"#utility.yul\":16481:16900   */\n      swap2\n      swap1\n      pop\n      jump\t// out\n        /* \"#utility.yul\":16906:17195   */\n    tag_278:\n        /* \"#utility.yul\":17046:17080   */\n      0x537562617374613a204c6120737562617374612064656265207365722066696e\n        /* \"#utility.yul\":17042:17043   */\n      0x00\n        /* \"#utility.yul\":17034:17040   */\n      dup3\n        /* \"#utility.yul\":17030:17044   */\n      add\n        /* \"#utility.yul\":17023:17081   */\n      mstore\n        /* \"#utility.yul\":17115:17149   */\n      0x616c697a61646120706172612072657469726172206c6120636f6d6973696f6e\n        /* \"#utility.yul\":17110:17112   */\n      0x20\n        /* \"#utility.yul\":17102:17108   */\n      dup3\n        /* \"#utility.yul\":17098:17113   */\n      add\n        /* \"#utility.yul\":17091:17150   */\n      mstore\n        /* \"#utility.yul\":17184:17187   */\n      0x2e00000000000000000000000000000000000000000000000000000000000000\n        /* \"#utility.yul\":17179:17181   */\n      0x40\n        /* \"#utility.yul\":17171:17177   */\n      dup3\n        /* \"#utility.yul\":17167:17182   */\n      add\n        /* \"#utility.yul\":17160:17188   */\n      mstore\n        /* \"#utility.yul\":16906:17195   */\n      pop\n      jump\t// out\n        /* \"#utility.yul\":17201:17567   */\n    tag_279:\n        /* \"#utility.yul\":17343:17346   */\n      0x00\n        /* \"#utility.yul\":17364:17431   */\n      tag_454\n        /* \"#utility.yul\":17428:17430   */\n      0x41\n        /* \"#utility.yul\":17423:17426   */\n      dup4\n        /* \"#utility.yul\":17364:17431   */\n      tag_262\n      jump\t// in\n    tag_454:\n        /* \"#utility.yul\":17357:17431   */\n      swap2\n      pop\n        /* \"#utility.yul\":17440:17533   */\n      tag_455\n        /* \"#utility.yul\":17529:17532   */\n      dup3\n        /* \"#utility.yul\":17440:17533   */\n      tag_278\n      jump\t// in\n    tag_455:\n        /* \"#utility.yul\":17558:17560   */\n      0x60\n        /* \"#utility.yul\":17553:17556   */\n      dup3\n        /* \"#utility.yul\":17549:17561   */\n      add\n        /* \"#utility.yul\":17542:17561   */\n      swap1\n      pop\n        /* \"#utility.yul\":17201:17567   */\n      swap2\n      swap1\n      pop\n      jump\t// out\n        /* \"#utility.yul\":17573:17992   */\n    tag_175:\n        /* \"#utility.yul\":17739:17743   */\n      0x00\n        /* \"#utility.yul\":17777:17779   */\n      0x20\n        /* \"#utility.yul\":17766:17775   */\n      dup3\n        /* \"#utility.yul\":17762:17780   */\n      add\n        /* \"#utility.yul\":17754:17780   */\n      swap1\n      pop\n        /* \"#utility.yul\":17826:17835   */\n      dup2\n        /* \"#utility.yul\":17820:17824   */\n      dup2\n        /* \"#utility.yul\":17816:17836   */\n      sub\n        /* \"#utility.yul\":17812:17813   */\n      0x00\n        /* \"#utility.yul\":17801:17810   */\n      dup4\n        /* \"#utility.yul\":17797:17814   */\n      add\n        /* \"#utility.yul\":17790:17837   */\n      mstore\n        /* \"#utility.yul\":17854:17985   */\n      tag_457\n        /* \"#utility.yul\":17980:17984   */\n      dup2\n        /* \"#utility.yul\":17854:17985   */\n      tag_279\n      jump\t// in\n    tag_457:\n        /* \"#utility.yul\":17846:17985   */\n      swap1\n      pop\n        /* \"#utility.yul\":17573:17992   */\n      swap2\n      swap1\n      pop\n      jump\t// out\n        /* \"#utility.yul\":17998:18243   */\n    tag_280:\n        /* \"#utility.yul\":18138:18172   */\n      0x537562617374613a204e6f20686179206f66657274612067616e61646f726120\n        /* \"#utility.yul\":18134:18135   */\n      0x00\n        /* \"#utility.yul\":18126:18132   */\n      dup3\n        /* \"#utility.yul\":18122:18136   */\n      add\n        /* \"#utility.yul\":18115:18173   */\n      mstore\n        /* \"#utility.yul\":18207:18235   */\n      0x706172612063616c63756c6172206c6120636f6d6973696f6e2e000000000000\n        /* \"#utility.yul\":18202:18204   */\n      0x20\n        /* \"#utility.yul\":18194:18200   */\n      dup3\n        /* \"#utility.yul\":18190:18205   */\n      add\n        /* \"#utility.yul\":18183:18236   */\n      mstore\n        /* \"#utility.yul\":17998:18243   */\n      pop\n      jump\t// out\n        /* \"#utility.yul\":18249:18615   */\n    tag_281:\n        /* \"#utility.yul\":18391:18394   */\n      0x00\n        /* \"#utility.yul\":18412:18479   */\n      tag_460\n        /* \"#utility.yul\":18476:18478   */\n      0x3a\n        /* \"#utility.yul\":18471:18474   */\n      dup4\n        /* \"#utility.yul\":18412:18479   */\n      tag_262\n      jump\t// in\n    tag_460:\n        /* \"#utility.yul\":18405:18479   */\n      swap2\n      pop\n        /* \"#utility.yul\":18488:18581   */\n      tag_461\n        /* \"#utility.yul\":18577:18580   */\n      dup3\n        /* \"#utility.yul\":18488:18581   */\n      tag_280\n      jump\t// in\n    tag_461:\n        /* \"#utility.yul\":18606:18608   */\n      0x40\n        /* \"#utility.yul\":18601:18604   */\n      dup3\n        /* \"#utility.yul\":18597:18609   */\n      add\n        /* \"#utility.yul\":18590:18609   */\n      swap1\n      pop\n        /* \"#utility.yul\":18249:18615   */\n      swap2\n      swap1\n      pop\n      jump\t// out\n        /* \"#utility.yul\":18621:19040   */\n    tag_178:\n        /* \"#utility.yul\":18787:18791   */\n      0x00\n        /* \"#utility.yul\":18825:18827   */\n      0x20\n        /* \"#utility.yul\":18814:18823   */\n      dup3\n        /* \"#utility.yul\":18810:18828   */\n      add\n        /* \"#utility.yul\":18802:18828   */\n      swap1\n      pop\n        /* \"#utility.yul\":18874:18883   */\n      dup2\n        /* \"#utility.yul\":18868:18872   */\n      dup2\n        /* \"#utility.yul\":18864:18884   */\n      sub\n        /* \"#utility.yul\":18860:18861   */\n      0x00\n        /* \"#utility.yul\":18849:18858   */\n      dup4\n        /* \"#utility.yul\":18845:18862   */\n      add\n        /* \"#utility.yul\":18838:18885   */\n      mstore\n        /* \"#utility.yul\":18902:19033   */\n      tag_463\n        /* \"#utility.yul\":19028:19032   */\n      dup2\n        /* \"#utility.yul\":18902:19033   */\n      tag_281\n      jump\t// in\n    tag_463:\n        /* \"#utility.yul\":18894:19033   */\n      swap1\n      pop\n        /* \"#utility.yul\":18621:19040   */\n      swap2\n      swap1\n      pop\n      jump\t// out\n        /* \"#utility.yul\":19046:19293   */\n    tag_282:\n        /* \"#utility.yul\":19186:19220   */\n      0x537562617374613a204e6f2068617920636f6d6973696f6e2070617261207265\n        /* \"#utility.yul\":19182:19183   */\n      0x00\n        /* \"#utility.yul\":19174:19180   */\n      dup3\n        /* \"#utility.yul\":19170:19184   */\n      add\n        /* \"#utility.yul\":19163:19221   */\n      mstore\n        /* \"#utility.yul\":19255:19285   */\n      0x7469726172206f207961206861207369646f20726574697261646f2e00000000\n        /* \"#utility.yul\":19250:19252   */\n      0x20\n        /* \"#utility.yul\":19242:19248   */\n      dup3\n        /* \"#utility.yul\":19238:19253   */\n      add\n        /* \"#utility.yul\":19231:19286   */\n      mstore\n        /* \"#utility.yul\":19046:19293   */\n      pop\n      jump\t// out\n        /* \"#utility.yul\":19299:19665   */\n    tag_283:\n        /* \"#utility.yul\":19441:19444   */\n      0x00\n        /* \"#utility.yul\":19462:19529   */\n      tag_466\n        /* \"#utility.yul\":19526:19528   */\n      0x3c\n        /* \"#utility.yul\":19521:19524   */\n      dup4\n        /* \"#utility.yul\":19462:19529   */\n      tag_262\n      jump\t// in\n    tag_466:\n        /* \"#utility.yul\":19455:19529   */\n      swap2\n      pop\n        /* \"#utility.yul\":19538:19631   */\n      tag_467\n        /* \"#utility.yul\":19627:19630   */\n      dup3\n        /* \"#utility.yul\":19538:19631   */\n      tag_282\n      jump\t// in\n    tag_467:\n        /* \"#utility.yul\":19656:19658   */\n      0x40\n        /* \"#utility.yul\":19651:19654   */\n      dup3\n        /* \"#utility.yul\":19647:19659   */\n      add\n        /* \"#utility.yul\":19640:19659   */\n      swap1\n      pop\n        /* \"#utility.yul\":19299:19665   */\n      swap2\n      swap1\n      pop\n      jump\t// out\n        /* \"#utility.yul\":19671:20090   */\n    tag_183:\n        /* \"#utility.yul\":19837:19841   */\n      0x00\n        /* \"#utility.yul\":19875:19877   */\n      0x20\n        /* \"#utility.yul\":19864:19873   */\n      dup3\n        /* \"#utility.yul\":19860:19878   */\n      add\n        /* \"#utility.yul\":19852:19878   */\n      swap1\n      pop\n        /* \"#utility.yul\":19924:19933   */\n      dup2\n        /* \"#utility.yul\":19918:19922   */\n      dup2\n        /* \"#utility.yul\":19914:19934   */\n      sub\n        /* \"#utility.yul\":19910:19911   */\n      0x00\n        /* \"#utility.yul\":19899:19908   */\n      dup4\n        /* \"#utility.yul\":19895:19912   */\n      add\n        /* \"#utility.yul\":19888:19935   */\n      mstore\n        /* \"#utility.yul\":19952:20083   */\n      tag_469\n        /* \"#utility.yul\":20078:20082   */\n      dup2\n        /* \"#utility.yul\":19952:20083   */\n      tag_283\n      jump\t// in\n    tag_469:\n        /* \"#utility.yul\":19944:20083   */\n      swap1\n      pop\n        /* \"#utility.yul\":19671:20090   */\n      swap2\n      swap1\n      pop\n      jump\t// out\n        /* \"#utility.yul\":20096:20243   */\n    tag_284:\n        /* \"#utility.yul\":20197:20208   */\n      0x00\n        /* \"#utility.yul\":20234:20237   */\n      dup2\n        /* \"#utility.yul\":20219:20237   */\n      swap1\n      pop\n        /* \"#utility.yul\":20096:20243   */\n      swap3\n      swap2\n      pop\n      pop\n      jump\t// out\n        /* \"#utility.yul\":20249:20363   */\n    tag_285:\n      pop\n      jump\t// out\n        /* \"#utility.yul\":20369:20767   */\n    tag_286:\n        /* \"#utility.yul\":20528:20531   */\n      0x00\n        /* \"#utility.yul\":20549:20632   */\n      tag_473\n        /* \"#utility.yul\":20630:20631   */\n      0x00\n        /* \"#utility.yul\":20625:20628   */\n      dup4\n        /* \"#utility.yul\":20549:20632   */\n      tag_284\n      jump\t// in\n    tag_473:\n        /* \"#utility.yul\":20542:20632   */\n      swap2\n      pop\n        /* \"#utility.yul\":20641:20734   */\n      tag_474\n        /* \"#utility.yul\":20730:20733   */\n      dup3\n        /* \"#utility.yul\":20641:20734   */\n      tag_285\n      jump\t// in\n    tag_474:\n        /* \"#utility.yul\":20759:20760   */\n      0x00\n        /* \"#utility.yul\":20754:20757   */\n      dup3\n        /* \"#utility.yul\":20750:20761   */\n      add\n        /* \"#utility.yul\":20743:20761   */\n      swap1\n      pop\n        /* \"#utility.yul\":20369:20767   */\n      swap2\n      swap1\n      pop\n      jump\t// out\n        /* \"#utility.yul\":20773:21152   */\n    tag_185:\n        /* \"#utility.yul\":20957:20960   */\n      0x00\n        /* \"#utility.yul\":20979:21126   */\n      tag_476\n        /* \"#utility.yul\":21122:21125   */\n      dup3\n        /* \"#utility.yul\":20979:21126   */\n      tag_286\n      jump\t// in\n    tag_476:\n        /* \"#utility.yul\":20972:21126   */\n      swap2\n      pop\n        /* \"#utility.yul\":21143:21146   */\n      dup2\n        /* \"#utility.yul\":21136:21146   */\n      swap1\n      pop\n        /* \"#utility.yul\":20773:21152   */\n      swap2\n      swap1\n      pop\n      jump\t// out\n        /* \"#utility.yul\":21158:21339   */\n    tag_287:\n        /* \"#utility.yul\":21298:21331   */\n      0x537562617374613a204e6f2072657469726f206c6120636f6d6973696f6e2e00\n        /* \"#utility.yul\":21294:21295   */\n      0x00\n        /* \"#utility.yul\":21286:21292   */\n      dup3\n        /* \"#utility.yul\":21282:21296   */\n      add\n        /* \"#utility.yul\":21275:21332   */\n      mstore\n        /* \"#utility.yul\":21158:21339   */\n      pop\n      jump\t// out\n        /* \"#utility.yul\":21345:21711   */\n    tag_288:\n        /* \"#utility.yul\":21487:21490   */\n      0x00\n        /* \"#utility.yul\":21508:21575   */\n      tag_479\n        /* \"#utility.yul\":21572:21574   */\n      0x1f\n        /* \"#utility.yul\":21567:21570   */\n      dup4\n        /* \"#utility.yul\":21508:21575   */\n      tag_262\n      jump\t// in\n    tag_479:\n        /* \"#utility.yul\":21501:21575   */\n      swap2\n      pop\n        /* \"#utility.yul\":21584:21677   */\n      tag_480\n        /* \"#utility.yul\":21673:21676   */\n      dup3\n        /* \"#utility.yul\":21584:21677   */\n      tag_287\n      jump\t// in\n    tag_480:\n        /* \"#utility.yul\":21702:21704   */\n      0x20\n        /* \"#utility.yul\":21697:21700   */\n      dup3\n        /* \"#utility.yul\":21693:21705   */\n      add\n        /* \"#utility.yul\":21686:21705   */\n      swap1\n      pop\n        /* \"#utility.yul\":21345:21711   */\n      swap2\n      swap1\n      pop\n      jump\t// out\n        /* \"#utility.yul\":21717:22136   */\n    tag_191:\n        /* \"#utility.yul\":21883:21887   */\n      0x00\n        /* \"#utility.yul\":21921:21923   */\n      0x20\n        /* \"#utility.yul\":21910:21919   */\n      dup3\n        /* \"#utility.yul\":21906:21924   */\n      add\n        /* \"#utility.yul\":21898:21924   */\n      swap1\n      pop\n        /* \"#utility.yul\":21970:21979   */\n      dup2\n        /* \"#utility.yul\":21964:21968   */\n      dup2\n        /* \"#utility.yul\":21960:21980   */\n      sub\n        /* \"#utility.yul\":21956:21957   */\n      0x00\n        /* \"#utility.yul\":21945:21954   */\n      dup4\n        /* \"#utility.yul\":21941:21958   */\n      add\n        /* \"#utility.yul\":21934:21981   */\n      mstore\n        /* \"#utility.yul\":21998:22129   */\n      tag_482\n        /* \"#utility.yul\":22124:22128   */\n      dup2\n        /* \"#utility.yul\":21998:22129   */\n      tag_288\n      jump\t// in\n    tag_482:\n        /* \"#utility.yul\":21990:22129   */\n      swap1\n      pop\n        /* \"#utility.yul\":21717:22136   */\n      swap2\n      swap1\n      pop\n      jump\t// out\n        /* \"#utility.yul\":22142:22364   */\n    tag_289:\n        /* \"#utility.yul\":22282:22316   */\n      0x4c6120737562617374612061756e206e6f2073652068612066696e616c697a61\n        /* \"#utility.yul\":22278:22279   */\n      0x00\n        /* \"#utility.yul\":22270:22276   */\n      dup3\n        /* \"#utility.yul\":22266:22280   */\n      add\n        /* \"#utility.yul\":22259:22317   */\n      mstore\n        /* \"#utility.yul\":22351:22356   */\n      0x646f2e0000000000000000000000000000000000000000000000000000000000\n        /* \"#utility.yul\":22346:22348   */\n      0x20\n        /* \"#utility.yul\":22338:22344   */\n      dup3\n        /* \"#utility.yul\":22334:22349   */\n      add\n        /* \"#utility.yul\":22327:22357   */\n      mstore\n        /* \"#utility.yul\":22142:22364   */\n      pop\n      jump\t// out\n        /* \"#utility.yul\":22370:22736   */\n    tag_290:\n        /* \"#utility.yul\":22512:22515   */\n      0x00\n        /* \"#utility.yul\":22533:22600   */\n      tag_485\n        /* \"#utility.yul\":22597:22599   */\n      0x23\n        /* \"#utility.yul\":22592:22595   */\n      dup4\n        /* \"#utility.yul\":22533:22600   */\n      tag_262\n      jump\t// in\n    tag_485:\n        /* \"#utility.yul\":22526:22600   */\n      swap2\n      pop\n        /* \"#utility.yul\":22609:22702   */\n      tag_486\n        /* \"#utility.yul\":22698:22701   */\n      dup3\n        /* \"#utility.yul\":22609:22702   */\n      tag_289\n      jump\t// in\n    tag_486:\n        /* \"#utility.yul\":22727:22729   */\n      0x40\n        /* \"#utility.yul\":22722:22725   */\n      dup3\n        /* \"#utility.yul\":22718:22730   */\n      add\n        /* \"#utility.yul\":22711:22730   */\n      swap1\n      pop\n        /* \"#utility.yul\":22370:22736   */\n      swap2\n      swap1\n      pop\n      jump\t// out\n        /* \"#utility.yul\":22742:23161   */\n    tag_195:\n        /* \"#utility.yul\":22908:22912   */\n      0x00\n        /* \"#utility.yul\":22946:22948   */\n      0x20\n        /* \"#utility.yul\":22935:22944   */\n      dup3\n        /* \"#utility.yul\":22931:22949   */\n      add\n        /* \"#utility.yul\":22923:22949   */\n      swap1\n      pop\n        /* \"#utility.yul\":22995:23004   */\n      dup2\n        /* \"#utility.yul\":22989:22993   */\n      dup2\n        /* \"#utility.yul\":22985:23005   */\n      sub\n        /* \"#utility.yul\":22981:22982   */\n      0x00\n        /* \"#utility.yul\":22970:22979   */\n      dup4\n        /* \"#utility.yul\":22966:22983   */\n      add\n        /* \"#utility.yul\":22959:23006   */\n      mstore\n        /* \"#utility.yul\":23023:23154   */\n      tag_488\n        /* \"#utility.yul\":23149:23153   */\n      dup2\n        /* \"#utility.yul\":23023:23154   */\n      tag_290\n      jump\t// in\n    tag_488:\n        /* \"#utility.yul\":23015:23154   */\n      swap1\n      pop\n        /* \"#utility.yul\":22742:23161   */\n      swap2\n      swap1\n      pop\n      jump\t// out\n        /* \"#utility.yul\":23167:23417   */\n    tag_291:\n        /* \"#utility.yul\":23307:23341   */\n      0x537562617374613a205573746564206e6f20686120686563686f206e696e6775\n        /* \"#utility.yul\":23303:23304   */\n      0x00\n        /* \"#utility.yul\":23295:23301   */\n      dup3\n        /* \"#utility.yul\":23291:23305   */\n      add\n        /* \"#utility.yul\":23284:23342   */\n      mstore\n        /* \"#utility.yul\":23376:23409   */\n      0x6e61206f6665727461206f206e6f207469656e65206465706f7369746f732e00\n        /* \"#utility.yul\":23371:23373   */\n      0x20\n        /* \"#utility.yul\":23363:23369   */\n      dup3\n        /* \"#utility.yul\":23359:23374   */\n      add\n        /* \"#utility.yul\":23352:23410   */\n      mstore\n        /* \"#utility.yul\":23167:23417   */\n      pop\n      jump\t// out\n        /* \"#utility.yul\":23423:23789   */\n    tag_292:\n        /* \"#utility.yul\":23565:23568   */\n      0x00\n        /* \"#utility.yul\":23586:23653   */\n      tag_491\n        /* \"#utility.yul\":23650:23652   */\n      0x3f\n        /* \"#utility.yul\":23645:23648   */\n      dup4\n        /* \"#utility.yul\":23586:23653   */\n      tag_262\n      jump\t// in\n    tag_491:\n        /* \"#utility.yul\":23579:23653   */\n      swap2\n      pop\n        /* \"#utility.yul\":23662:23755   */\n      tag_492\n        /* \"#utility.yul\":23751:23754   */\n      dup3\n        /* \"#utility.yul\":23662:23755   */\n      tag_291\n      jump\t// in\n    tag_492:\n        /* \"#utility.yul\":23780:23782   */\n      0x40\n        /* \"#utility.yul\":23775:23778   */\n      dup3\n        /* \"#utility.yul\":23771:23783   */\n      add\n        /* \"#utility.yul\":23764:23783   */\n      swap1\n      pop\n        /* \"#utility.yul\":23423:23789   */\n      swap2\n      swap1\n      pop\n      jump\t// out\n        /* \"#utility.yul\":23795:24214   */\n    tag_199:\n        /* \"#utility.yul\":23961:23965   */\n      0x00\n        /* \"#utility.yul\":23999:24001   */\n      0x20\n        /* \"#utility.yul\":23988:23997   */\n      dup3\n        /* \"#utility.yul\":23984:24002   */\n      add\n        /* \"#utility.yul\":23976:24002   */\n      swap1\n      pop\n        /* \"#utility.yul\":24048:24057   */\n      dup2\n        /* \"#utility.yul\":24042:24046   */\n      dup2\n        /* \"#utility.yul\":24038:24058   */\n      sub\n        /* \"#utility.yul\":24034:24035   */\n      0x00\n        /* \"#utility.yul\":24023:24032   */\n      dup4\n        /* \"#utility.yul\":24019:24036   */\n      add\n        /* \"#utility.yul\":24012:24059   */\n      mstore\n        /* \"#utility.yul\":24076:24207   */\n      tag_494\n        /* \"#utility.yul\":24202:24206   */\n      dup2\n        /* \"#utility.yul\":24076:24207   */\n      tag_292\n      jump\t// in\n    tag_494:\n        /* \"#utility.yul\":24068:24207   */\n      swap1\n      pop\n        /* \"#utility.yul\":23795:24214   */\n      swap2\n      swap1\n      pop\n      jump\t// out\n        /* \"#utility.yul\":24220:24461   */\n    tag_293:\n        /* \"#utility.yul\":24360:24394   */\n      0x537562617374613a204e6f206861792065786365736f20706172612072657469\n        /* \"#utility.yul\":24356:24357   */\n      0x00\n        /* \"#utility.yul\":24348:24354   */\n      dup3\n        /* \"#utility.yul\":24344:24358   */\n      add\n        /* \"#utility.yul\":24337:24395   */\n      mstore\n        /* \"#utility.yul\":24429:24453   */\n      0x726172736520656e2065737465206d6f6d656e746f2e00000000000000000000\n        /* \"#utility.yul\":24424:24426   */\n      0x20\n        /* \"#utility.yul\":24416:24422   */\n      dup3\n        /* \"#utility.yul\":24412:24427   */\n      add\n        /* \"#utility.yul\":24405:24454   */\n      mstore\n        /* \"#utility.yul\":24220:24461   */\n      pop\n      jump\t// out\n        /* \"#utility.yul\":24467:24833   */\n    tag_294:\n        /* \"#utility.yul\":24609:24612   */\n      0x00\n        /* \"#utility.yul\":24630:24697   */\n      tag_497\n        /* \"#utility.yul\":24694:24696   */\n      0x36\n        /* \"#utility.yul\":24689:24692   */\n      dup4\n        /* \"#utility.yul\":24630:24697   */\n      tag_262\n      jump\t// in\n    tag_497:\n        /* \"#utility.yul\":24623:24697   */\n      swap2\n      pop\n        /* \"#utility.yul\":24706:24799   */\n      tag_498\n        /* \"#utility.yul\":24795:24798   */\n      dup3\n        /* \"#utility.yul\":24706:24799   */\n      tag_293\n      jump\t// in\n    tag_498:\n        /* \"#utility.yul\":24824:24826   */\n      0x40\n        /* \"#utility.yul\":24819:24822   */\n      dup3\n        /* \"#utility.yul\":24815:24827   */\n      add\n        /* \"#utility.yul\":24808:24827   */\n      swap1\n      pop\n        /* \"#utility.yul\":24467:24833   */\n      swap2\n      swap1\n      pop\n      jump\t// out\n        /* \"#utility.yul\":24839:25258   */\n    tag_209:\n        /* \"#utility.yul\":25005:25009   */\n      0x00\n        /* \"#utility.yul\":25043:25045   */\n      0x20\n        /* \"#utility.yul\":25032:25041   */\n      dup3\n        /* \"#utility.yul\":25028:25046   */\n      add\n        /* \"#utility.yul\":25020:25046   */\n      swap1\n      pop\n        /* \"#utility.yul\":25092:25101   */\n      dup2\n        /* \"#utility.yul\":25086:25090   */\n      dup2\n        /* \"#utility.yul\":25082:25102   */\n      sub\n        /* \"#utility.yul\":25078:25079   */\n      0x00\n        /* \"#utility.yul\":25067:25076   */\n      dup4\n        /* \"#utility.yul\":25063:25080   */\n      add\n        /* \"#utility.yul\":25056:25103   */\n      mstore\n        /* \"#utility.yul\":25120:25251   */\n      tag_500\n        /* \"#utility.yul\":25246:25250   */\n      dup2\n        /* \"#utility.yul\":25120:25251   */\n      tag_294\n      jump\t// in\n    tag_500:\n        /* \"#utility.yul\":25112:25251   */\n      swap1\n      pop\n        /* \"#utility.yul\":24839:25258   */\n      swap2\n      swap1\n      pop\n      jump\t// out\n        /* \"#utility.yul\":25264:25489   */\n    tag_295:\n        /* \"#utility.yul\":25404:25438   */\n      0x537562617374613a204e6f207365207472616e73666972696f206c612063616e\n        /* \"#utility.yul\":25400:25401   */\n      0x00\n        /* \"#utility.yul\":25392:25398   */\n      dup3\n        /* \"#utility.yul\":25388:25402   */\n      add\n        /* \"#utility.yul\":25381:25439   */\n      mstore\n        /* \"#utility.yul\":25473:25481   */\n      0x74696461642e0000000000000000000000000000000000000000000000000000\n        /* \"#utility.yul\":25468:25470   */\n      0x20\n        /* \"#utility.yul\":25460:25466   */\n      dup3\n        /* \"#utility.yul\":25456:25471   */\n      add\n        /* \"#utility.yul\":25449:25482   */\n      mstore\n        /* \"#utility.yul\":25264:25489   */\n      pop\n      jump\t// out\n        /* \"#utility.yul\":25495:25861   */\n    tag_296:\n        /* \"#utility.yul\":25637:25640   */\n      0x00\n        /* \"#utility.yul\":25658:25725   */\n      tag_503\n        /* \"#utility.yul\":25722:25724   */\n      0x26\n        /* \"#utility.yul\":25717:25720   */\n      dup4\n        /* \"#utility.yul\":25658:25725   */\n      tag_262\n      jump\t// in\n    tag_503:\n        /* \"#utility.yul\":25651:25725   */\n      swap2\n      pop\n        /* \"#utility.yul\":25734:25827   */\n      tag_504\n        /* \"#utility.yul\":25823:25826   */\n      dup3\n        /* \"#utility.yul\":25734:25827   */\n      tag_295\n      jump\t// in\n    tag_504:\n        /* \"#utility.yul\":25852:25854   */\n      0x40\n        /* \"#utility.yul\":25847:25850   */\n      dup3\n        /* \"#utility.yul\":25843:25855   */\n      add\n        /* \"#utility.yul\":25836:25855   */\n      swap1\n      pop\n        /* \"#utility.yul\":25495:25861   */\n      swap2\n      swap1\n      pop\n      jump\t// out\n        /* \"#utility.yul\":25867:26286   */\n    tag_219:\n        /* \"#utility.yul\":26033:26037   */\n      0x00\n        /* \"#utility.yul\":26071:26073   */\n      0x20\n        /* \"#utility.yul\":26060:26069   */\n      dup3\n        /* \"#utility.yul\":26056:26074   */\n      add\n        /* \"#utility.yul\":26048:26074   */\n      swap1\n      pop\n        /* \"#utility.yul\":26120:26129   */\n      dup2\n        /* \"#utility.yul\":26114:26118   */\n      dup2\n        /* \"#utility.yul\":26110:26130   */\n      sub\n        /* \"#utility.yul\":26106:26107   */\n      0x00\n        /* \"#utility.yul\":26095:26104   */\n      dup4\n        /* \"#utility.yul\":26091:26108   */\n      add\n        /* \"#utility.yul\":26084:26131   */\n      mstore\n        /* \"#utility.yul\":26148:26279   */\n      tag_506\n        /* \"#utility.yul\":26274:26278   */\n      dup2\n        /* \"#utility.yul\":26148:26279   */\n      tag_296\n      jump\t// in\n    tag_506:\n        /* \"#utility.yul\":26140:26279   */\n      swap1\n      pop\n        /* \"#utility.yul\":25867:26286   */\n      swap2\n      swap1\n      pop\n      jump\t// out\n        /* \"#utility.yul\":26292:26515   */\n    tag_297:\n        /* \"#utility.yul\":26432:26466   */\n      0x537562617374613a204c612073756261737461206e6f206861207465726d696e\n        /* \"#utility.yul\":26428:26429   */\n      0x00\n        /* \"#utility.yul\":26420:26426   */\n      dup3\n        /* \"#utility.yul\":26416:26430   */\n      add\n        /* \"#utility.yul\":26409:26467   */\n      mstore\n        /* \"#utility.yul\":26501:26507   */\n      0x61646f2e00000000000000000000000000000000000000000000000000000000\n        /* \"#utility.yul\":26496:26498   */\n      0x20\n        /* \"#utility.yul\":26488:26494   */\n      dup3\n        /* \"#utility.yul\":26484:26499   */\n      add\n        /* \"#utility.yul\":26477:26508   */\n      mstore\n        /* \"#utility.yul\":26292:26515   */\n      pop\n      jump\t// out\n        /* \"#utility.yul\":26521:26887   */\n    tag_298:\n        /* \"#utility.yul\":26663:26666   */\n      0x00\n        /* \"#utility.yul\":26684:26751   */\n      tag_509\n        /* \"#utility.yul\":26748:26750   */\n      0x24\n        /* \"#utility.yul\":26743:26746   */\n      dup4\n        /* \"#utility.yul\":26684:26751   */\n      tag_262\n      jump\t// in\n    tag_509:\n        /* \"#utility.yul\":26677:26751   */\n      swap2\n      pop\n        /* \"#utility.yul\":26760:26853   */\n      tag_510\n        /* \"#utility.yul\":26849:26852   */\n      dup3\n        /* \"#utility.yul\":26760:26853   */\n      tag_297\n      jump\t// in\n    tag_510:\n        /* \"#utility.yul\":26878:26880   */\n      0x40\n        /* \"#utility.yul\":26873:26876   */\n      dup3\n        /* \"#utility.yul\":26869:26881   */\n      add\n        /* \"#utility.yul\":26862:26881   */\n      swap1\n      pop\n        /* \"#utility.yul\":26521:26887   */\n      swap2\n      swap1\n      pop\n      jump\t// out\n        /* \"#utility.yul\":26893:27312   */\n    tag_228:\n        /* \"#utility.yul\":27059:27063   */\n      0x00\n        /* \"#utility.yul\":27097:27099   */\n      0x20\n        /* \"#utility.yul\":27086:27095   */\n      dup3\n        /* \"#utility.yul\":27082:27100   */\n      add\n        /* \"#utility.yul\":27074:27100   */\n      swap1\n      pop\n        /* \"#utility.yul\":27146:27155   */\n      dup2\n        /* \"#utility.yul\":27140:27144   */\n      dup2\n        /* \"#utility.yul\":27136:27156   */\n      sub\n        /* \"#utility.yul\":27132:27133   */\n      0x00\n        /* \"#utility.yul\":27121:27130   */\n      dup4\n        /* \"#utility.yul\":27117:27134   */\n      add\n        /* \"#utility.yul\":27110:27157   */\n      mstore\n        /* \"#utility.yul\":27174:27305   */\n      tag_512\n        /* \"#utility.yul\":27300:27304   */\n      dup2\n        /* \"#utility.yul\":27174:27305   */\n      tag_298\n      jump\t// in\n    tag_512:\n        /* \"#utility.yul\":27166:27305   */\n      swap1\n      pop\n        /* \"#utility.yul\":26893:27312   */\n      swap2\n      swap1\n      pop\n      jump\t// out\n        /* \"#utility.yul\":27318:27496   */\n    tag_299:\n        /* \"#utility.yul\":27458:27488   */\n      0x4c6120737562617374612079612068612066696e616c697a61646f2e00000000\n        /* \"#utility.yul\":27454:27455   */\n      0x00\n        /* \"#utility.yul\":27446:27452   */\n      dup3\n        /* \"#utility.yul\":27442:27456   */\n      add\n        /* \"#utility.yul\":27435:27489   */\n      mstore\n        /* \"#utility.yul\":27318:27496   */\n      pop\n      jump\t// out\n        /* \"#utility.yul\":27502:27868   */\n    tag_300:\n        /* \"#utility.yul\":27644:27647   */\n      0x00\n        /* \"#utility.yul\":27665:27732   */\n      tag_515\n        /* \"#utility.yul\":27729:27731   */\n      0x1c\n        /* \"#utility.yul\":27724:27727   */\n      dup4\n        /* \"#utility.yul\":27665:27732   */\n      tag_262\n      jump\t// in\n    tag_515:\n        /* \"#utility.yul\":27658:27732   */\n      swap2\n      pop\n        /* \"#utility.yul\":27741:27834   */\n      tag_516\n        /* \"#utility.yul\":27830:27833   */\n      dup3\n        /* \"#utility.yul\":27741:27834   */\n      tag_299\n      jump\t// in\n    tag_516:\n        /* \"#utility.yul\":27859:27861   */\n      0x20\n        /* \"#utility.yul\":27854:27857   */\n      dup3\n        /* \"#utility.yul\":27850:27862   */\n      add\n        /* \"#utility.yul\":27843:27862   */\n      swap1\n      pop\n        /* \"#utility.yul\":27502:27868   */\n      swap2\n      swap1\n      pop\n      jump\t// out\n        /* \"#utility.yul\":27874:28293   */\n    tag_231:\n        /* \"#utility.yul\":28040:28044   */\n      0x00\n        /* \"#utility.yul\":28078:28080   */\n      0x20\n        /* \"#utility.yul\":28067:28076   */\n      dup3\n        /* \"#utility.yul\":28063:28081   */\n      add\n        /* \"#utility.yul\":28055:28081   */\n      swap1\n      pop\n        /* \"#utility.yul\":28127:28136   */\n      dup2\n        /* \"#utility.yul\":28121:28125   */\n      dup2\n        /* \"#utility.yul\":28117:28137   */\n      sub\n        /* \"#utility.yul\":28113:28114   */\n      0x00\n        /* \"#utility.yul\":28102:28111   */\n      dup4\n        /* \"#utility.yul\":28098:28115   */\n      add\n        /* \"#utility.yul\":28091:28138   */\n      mstore\n        /* \"#utility.yul\":28155:28286   */\n      tag_518\n        /* \"#utility.yul\":28281:28285   */\n      dup2\n        /* \"#utility.yul\":28155:28286   */\n      tag_300\n      jump\t// in\n    tag_518:\n        /* \"#utility.yul\":28147:28286   */\n      swap1\n      pop\n        /* \"#utility.yul\":27874:28293   */\n      swap2\n      swap1\n      pop\n      jump\t// out\n\n    auxdata: 0xa264697066735822122064363e95a0f9984267b57d9912a7f8b07725803c31102e22d30d0179706e796f64736f6c634300081e0033\n}\n",
				"bytecode": {
					"linkReferences": {},
					"object": "60a060405234801561000f575f5ffd5b5060405161228a38038061228a833981810160405281019061003191906100bd565b3373ffffffffffffffffffffffffffffffffffffffff1660808173ffffffffffffffffffffffffffffffffffffffff1681525050426002819055508060025461007a9190610115565b60038190555050610148565b5f5ffd5b5f819050919050565b61009c8161008a565b81146100a6575f5ffd5b50565b5f815190506100b781610093565b92915050565b5f602082840312156100d2576100d1610086565b5b5f6100df848285016100a9565b91505092915050565b7f4e487b71000000000000000000000000000000000000000000000000000000005f52601160045260245ffd5b5f61011f8261008a565b915061012a8361008a565b9250828201905080821115610142576101416100e8565b5b92915050565b6080516121156101755f395f81816109d301528181610b5401528181610c68015261107b01526121155ff3fe608060405260043610610113575f3560e01c80638cf804381161009f578063d3584e8411610063578063d3584e8414610331578063dfbf53ae1461036d578063eb54f9ec14610397578063f77282ab146103c1578063f89c6837146103d757610113565b80638cf80438146102725780638da5cb5b1461029c578063b3f05b97146102c6578063b7e03264146102f0578063c264a0631461031b57610113565b80633e25e837116100e65780633e25e837146101a05780634b449cba146101b65780635681104a146101e057806362ea82db1461020a578063836898ed1461024857610113565b80631300a6d11461011757806314d2687c146101415780631998aeef1461016c5780631bf1de9b14610176575b5f5ffd5b348015610122575f5ffd5b5061012b610401565b6040516101389190611244565b60405180910390f35b34801561014c575f5ffd5b50610155610427565b6040516101639291906113fb565b60405180910390f35b6101746105c6565b005b348015610181575f5ffd5b5061018a6109cc565b6040516101979190611244565b60405180910390f35b3480156101ab575f5ffd5b506101b46109d1565b005b3480156101c1575f5ffd5b506101ca610c1d565b6040516101d79190611244565b60405180910390f35b3480156101eb575f5ffd5b506101f4610c23565b6040516102019190611244565b60405180910390f35b348015610215575f5ffd5b50610230600480360381019061022b919061145e565b610c29565b60405161023f939291906114a3565b60405180910390f35b348015610253575f5ffd5b5061025c610c5b565b6040516102699190611244565b60405180910390f35b34801561027d575f5ffd5b50610286610c60565b6040516102939190611244565b60405180910390f35b3480156102a7575f5ffd5b506102b0610c66565b6040516102bd91906114e7565b60405180910390f35b3480156102d1575f5ffd5b506102da610c8a565b6040516102e79190611500565b60405180910390f35b3480156102fb575f5ffd5b50610304610c9c565b604051610312929190611519565b60405180910390f35b348015610326575f5ffd5b5061032f610d18565b005b34801561033c575f5ffd5b506103576004803603810190610352919061156a565b611014565b60405161036491906114e7565b60405180910390f35b348015610378575f5ffd5b5061038161104f565b60405161038e91906114e7565b60405180910390f35b3480156103a2575f5ffd5b506103ab611073565b6040516103b89190611244565b60405180910390f35b3480156103cc575f5ffd5b506103d5611079565b005b3480156103e2575f5ffd5b506103eb611227565b6040516103f89190611244565b60405180910390f35b5f6003544210610413575f9050610424565b4260035461042191906115c2565b90505b90565b6060805f60068054905067ffffffffffffffff81111561044a576104496115f5565b5b6040519080825280602002602001820160405280156104785781602001602082028036833780820191505090505b5090505f5f90505b6006805490508110156105345760055f600683815481106104a4576104a3611622565b5b905f5260205f20015f9054906101000a900473ffffffffffffffffffffffffffffffffffffffff1673ffffffffffffffffffffffffffffffffffffffff1673ffffffffffffffffffffffffffffffffffffffff1681526020019081526020015f205f015482828151811061051b5761051a611622565b5b6020026020010181815250508080600101915050610480565b50600681818054806020026020016040519081016040528092919081815260200182805480156105b657602002820191905f5260205f20905b815f9054906101000a900473ffffffffffffffffffffffffffffffffffffffff1673ffffffffffffffffffffffffffffffffffffffff168152602001906001019080831161056d575b5050505050915092509250509091565b600354421061060a576040517f08c379a0000000000000000000000000000000000000000000000000000000008152600401610601906116cf565b60405180910390fd5b60045f9054906101000a900460ff1615610659576040517f08c379a00000000000000000000000000000000000000000000000000000000081526004016106509061175d565b60405180910390fd5b5f341161069b576040517f08c379a0000000000000000000000000000000000000000000000000000000008152600401610692906117c5565b60405180910390fd5b5f60055f3373ffffffffffffffffffffffffffffffffffffffff1673ffffffffffffffffffffffffffffffffffffffff1681526020019081526020015f2090505f34825f01546106eb91906117e3565b9050816002015f9054906101000a900460ff16801561070c57505f825f0154115b15610783575f60646001845f01546107249190611816565b61072e9190611884565b835f015461073c91906117e3565b905080821015610781576040517f08c379a00000000000000000000000000000000000000000000000000000000081526004016107789061194a565b60405180910390fd5b505b5f600154036107d4575f8110156107cf576040517f08c379a00000000000000000000000000000000000000000000000000000000081526004016107c6906119d8565b60405180910390fd5b610844565b5f606460056001546107e69190611816565b6107f09190611884565b6001546107fd91906117e3565b905080821015610842576040517f08c379a000000000000000000000000000000000000000000000000000000000815260040161083990611a8c565b60405180910390fd5b505b816002015f9054906101000a900460ff166108d657600633908060018154018082558091505060019003905f5260205f20015f9091909190916101000a81548173ffffffffffffffffffffffffffffffffffffffff021916908373ffffffffffffffffffffffffffffffffffffffff1602179055506001826002015f6101000a81548160ff0219169083151502179055505b34826001015f8282546108e991906117e3565b9250508190555080825f01819055506001548111156109495780600181905550335f5f6101000a81548173ffffffffffffffffffffffffffffffffffffffff021916908373ffffffffffffffffffffffffffffffffffffffff1602179055505b6102584260035461095a91906115c2565b1161097a5761025860035f82825461097291906117e3565b925050819055505b3373ffffffffffffffffffffffffffffffffffffffff167fdd0b6c6a77960e2066c96171b4d7ac9e8b4c184011f38544afa36a5bb63ec59f826040516109c09190611244565b60405180910390a25050565b600281565b7f000000000000000000000000000000000000000000000000000000000000000073ffffffffffffffffffffffffffffffffffffffff163373ffffffffffffffffffffffffffffffffffffffff1614610a5f576040517f08c379a0000000000000000000000000000000000000000000000000000000008152600401610a5690611b1a565b60405180910390fd5b60045f9054906101000a900460ff16610aad576040517f08c379a0000000000000000000000000000000000000000000000000000000008152600401610aa490611bce565b60405180910390fd5b5f60015411610af1576040517f08c379a0000000000000000000000000000000000000000000000000000000008152600401610ae890611c5c565b60405180910390fd5b5f60646002600154610b039190611816565b610b0d9190611884565b90505f8111610b51576040517f08c379a0000000000000000000000000000000000000000000000000000000008152600401610b4890611cea565b60405180910390fd5b5f7f000000000000000000000000000000000000000000000000000000000000000073ffffffffffffffffffffffffffffffffffffffff1682604051610b9690611d35565b5f6040518083038185875af1925050503d805f8114610bd0576040519150601f19603f3d011682016040523d82523d5f602084013e610bd5565b606091505b5050905080610c19576040517f08c379a0000000000000000000000000000000000000000000000000000000008152600401610c1090611d93565b60405180910390fd5b5050565b60035481565b61025881565b6005602052805f5260405f205f91509050805f015490806001015490806002015f9054906101000a900460ff16905083565b600581565b60015481565b7f000000000000000000000000000000000000000000000000000000000000000081565b60045f9054906101000a900460ff1681565b5f5f60045f9054906101000a900460ff16610cec576040517f08c379a0000000000000000000000000000000000000000000000000000000008152600401610ce390611e21565b60405180910390fd5b5f5f9054906101000a900473ffffffffffffffffffffffffffffffffffffffff16600154915091509091565b5f60055f3373ffffffffffffffffffffffffffffffffffffffff1673ffffffffffffffffffffffffffffffffffffffff1681526020019081526020015f2090505f816001015411610d9e576040517f08c379a0000000000000000000000000000000000000000000000000000000008152600401610d9590611eaf565b60405180910390fd5b5f5f905060045f9054906101000a900460ff168015610e0957505f5f9054906101000a900473ffffffffffffffffffffffffffffffffffffffff1673ffffffffffffffffffffffffffffffffffffffff163373ffffffffffffffffffffffffffffffffffffffff1614155b15610ea057606460028360010154610e219190611816565b610e2b9190611884565b8260010154610e3a91906115c2565b90505f82600101819055505f825f01819055503373ffffffffffffffffffffffffffffffffffffffff167fdb0e6b892c46274e80cf044740d5b7b5ca9bff817896d27acbeca50950a1240382604051610e939190611244565b60405180910390a2610f67565b815f0154826001015411610ee9576040517f08c379a0000000000000000000000000000000000000000000000000000000008152600401610ee090611f3d565b60405180910390fd5b815f01548260010154610efc91906115c2565b905080826001015f828254610f1191906115c2565b925050819055503373ffffffffffffffffffffffffffffffffffffffff167f9bdedcc968f2c0682145c20289dfbb3081a39684571116ab45eabfef512e947382604051610f5e9190611244565b60405180910390a25b5f3373ffffffffffffffffffffffffffffffffffffffff1682604051610f8c90611d35565b5f6040518083038185875af1925050503d805f8114610fc6576040519150601f19603f3d011682016040523d82523d5f602084013e610fcb565b606091505b505090508061100f576040517f08c379a000000000000000000000000000000000000000000000000000000000815260040161100690611fcb565b60405180910390fd5b505050565b60068181548110611023575f80fd5b905f5260205f20015f915054906101000a900473ffffffffffffffffffffffffffffffffffffffff1681565b5f5f9054906101000a900473ffffffffffffffffffffffffffffffffffffffff1681565b60025481565b7f000000000000000000000000000000000000000000000000000000000000000073ffffffffffffffffffffffffffffffffffffffff163373ffffffffffffffffffffffffffffffffffffffff1614611107576040517f08c379a00000000000000000000000000000000000000000000000000000000081526004016110fe90611b1a565b60405180910390fd5b60035442101561114c576040517f08c379a000000000000000000000000000000000000000000000000000000000815260040161114390612059565b60405180910390fd5b60045f9054906101000a900460ff161561119b576040517f08c379a0000000000000000000000000000000000000000000000000000000008152600401611192906120c1565b60405180910390fd5b600160045f6101000a81548160ff0219169083151502179055505f5f9054906101000a900473ffffffffffffffffffffffffffffffffffffffff1673ffffffffffffffffffffffffffffffffffffffff167f357afab190ee87fe0ef1c717f2728d2904d9e415a069d99f4d9382873cb3279d60015460405161121d9190611244565b60405180910390a2565b600181565b5f819050919050565b61123e8161122c565b82525050565b5f6020820190506112575f830184611235565b92915050565b5f81519050919050565b5f82825260208201905092915050565b5f819050602082019050919050565b5f73ffffffffffffffffffffffffffffffffffffffff82169050919050565b5f6112af82611286565b9050919050565b6112bf816112a5565b82525050565b5f6112d083836112b6565b60208301905092915050565b5f602082019050919050565b5f6112f28261125d565b6112fc8185611267565b935061130783611277565b805f5b8381101561133757815161131e88826112c5565b9750611329836112dc565b92505060018101905061130a565b5085935050505092915050565b5f81519050919050565b5f82825260208201905092915050565b5f819050602082019050919050565b6113768161122c565b82525050565b5f611387838361136d565b60208301905092915050565b5f602082019050919050565b5f6113a982611344565b6113b3818561134e565b93506113be8361135e565b805f5b838110156113ee5781516113d5888261137c565b97506113e083611393565b9250506001810190506113c1565b5085935050505092915050565b5f6040820190508181035f83015261141381856112e8565b90508181036020830152611427818461139f565b90509392505050565b5f5ffd5b61143d816112a5565b8114611447575f5ffd5b50565b5f8135905061145881611434565b92915050565b5f6020828403121561147357611472611430565b5b5f6114808482850161144a565b91505092915050565b5f8115159050919050565b61149d81611489565b82525050565b5f6060820190506114b65f830186611235565b6114c36020830185611235565b6114d06040830184611494565b949350505050565b6114e1816112a5565b82525050565b5f6020820190506114fa5f8301846114d8565b92915050565b5f6020820190506115135f830184611494565b92915050565b5f60408201905061152c5f8301856114d8565b6115396020830184611235565b9392505050565b6115498161122c565b8114611553575f5ffd5b50565b5f8135905061156481611540565b92915050565b5f6020828403121561157f5761157e611430565b5b5f61158c84828501611556565b91505092915050565b7f4e487b71000000000000000000000000000000000000000000000000000000005f52601160045260245ffd5b5f6115cc8261122c565b91506115d78361122c565b92508282039050818111156115ef576115ee611595565b5b92915050565b7f4e487b71000000000000000000000000000000000000000000000000000000005f52604160045260245ffd5b7f4e487b71000000000000000000000000000000000000000000000000000000005f52603260045260245ffd5b5f82825260208201905092915050565b7f537562617374613a204c612073756261737461206861207465726d696e61646f5f8201527f2e00000000000000000000000000000000000000000000000000000000000000602082015250565b5f6116b960218361164f565b91506116c48261165f565b604082019050919050565b5f6020820190508181035f8301526116e6816116ad565b9050919050565b7f537562617374613a204c6120737562617374612079612073652068612066696e5f8201527f616c697a61646f206d616e75616c6d656e74652e000000000000000000000000602082015250565b5f61174760348361164f565b9150611752826116ed565b604082019050919050565b5f6020820190508181035f8301526117748161173b565b9050919050565b7f446562657320656e76696172204554482e0000000000000000000000000000005f82015250565b5f6117af60118361164f565b91506117ba8261177b565b602082019050919050565b5f6020820190508181035f8301526117dc816117a3565b9050919050565b5f6117ed8261122c565b91506117f88361122c565b92508282019050808211156118105761180f611595565b5b92915050565b5f6118208261122c565b915061182b8361122c565b92508282026118398161122c565b915082820484148315176118505761184f611595565b5b5092915050565b7f4e487b71000000000000000000000000000000000000000000000000000000005f52601260045260245ffd5b5f61188e8261122c565b91506118998361122c565b9250826118a9576118a8611857565b5b828204905092915050565b7f537562617374613a205375206f666572746120646562652065786365646572205f8201527f7375206f66657274612061637475616c20656e20616c206d656e6f7320756e2060208201527f35252e0000000000000000000000000000000000000000000000000000000000604082015250565b5f61193460438361164f565b915061193f826118b4565b606082019050919050565b5f6020820190508181035f83015261196181611928565b9050919050565b7f537562617374613a204c61207072696d657261206f66657274612064656265205f8201527f736572206d61796f7220717565206365726f2e00000000000000000000000000602082015250565b5f6119c260338361164f565b91506119cd82611968565b604082019050919050565b5f6020820190508181035f8301526119ef816119b6565b9050919050565b7f537562617374613a205375206f666572746120646562652065786365646572205f8201527f6c61206f66657274612061637475616c20656e20616c206d656e6f7320756e2060208201527f35252e0000000000000000000000000000000000000000000000000000000000604082015250565b5f611a7660438361164f565b9150611a81826119f6565b606082019050919050565b5f6020820190508181035f830152611aa381611a6a565b9050919050565b7f537562617374613a20536f6c6f20656c2070726f706965746172696f207075655f8201527f646520656a656375746172206573746f2e000000000000000000000000000000602082015250565b5f611b0460318361164f565b9150611b0f82611aaa565b604082019050919050565b5f6020820190508181035f830152611b3181611af8565b9050919050565b7f537562617374613a204c6120737562617374612064656265207365722066696e5f8201527f616c697a61646120706172612072657469726172206c6120636f6d6973696f6e60208201527f2e00000000000000000000000000000000000000000000000000000000000000604082015250565b5f611bb860418361164f565b9150611bc382611b38565b606082019050919050565b5f6020820190508181035f830152611be581611bac565b9050919050565b7f537562617374613a204e6f20686179206f66657274612067616e61646f7261205f8201527f706172612063616c63756c6172206c6120636f6d6973696f6e2e000000000000602082015250565b5f611c46603a8361164f565b9150611c5182611bec565b604082019050919050565b5f6020820190508181035f830152611c7381611c3a565b9050919050565b7f537562617374613a204e6f2068617920636f6d6973696f6e20706172612072655f8201527f7469726172206f207961206861207369646f20726574697261646f2e00000000602082015250565b5f611cd4603c8361164f565b9150611cdf82611c7a565b604082019050919050565b5f6020820190508181035f830152611d0181611cc8565b9050919050565b5f81905092915050565b50565b5f611d205f83611d08565b9150611d2b82611d12565b5f82019050919050565b5f611d3f82611d15565b9150819050919050565b7f537562617374613a204e6f2072657469726f206c6120636f6d6973696f6e2e005f82015250565b5f611d7d601f8361164f565b9150611d8882611d49565b602082019050919050565b5f6020820190508181035f830152611daa81611d71565b9050919050565b7f4c6120737562617374612061756e206e6f2073652068612066696e616c697a615f8201527f646f2e0000000000000000000000000000000000000000000000000000000000602082015250565b5f611e0b60238361164f565b9150611e1682611db1565b604082019050919050565b5f6020820190508181035f830152611e3881611dff565b9050919050565b7f537562617374613a205573746564206e6f20686120686563686f206e696e67755f8201527f6e61206f6665727461206f206e6f207469656e65206465706f7369746f732e00602082015250565b5f611e99603f8361164f565b9150611ea482611e3f565b604082019050919050565b5f6020820190508181035f830152611ec681611e8d565b9050919050565b7f537562617374613a204e6f206861792065786365736f207061726120726574695f8201527f726172736520656e2065737465206d6f6d656e746f2e00000000000000000000602082015250565b5f611f2760368361164f565b9150611f3282611ecd565b604082019050919050565b5f6020820190508181035f830152611f5481611f1b565b9050919050565b7f537562617374613a204e6f207365207472616e73666972696f206c612063616e5f8201527f74696461642e0000000000000000000000000000000000000000000000000000602082015250565b5f611fb560268361164f565b9150611fc082611f5b565b604082019050919050565b5f6020820190508181035f830152611fe281611fa9565b9050919050565b7f537562617374613a204c612073756261737461206e6f206861207465726d696e5f8201527f61646f2e00000000000000000000000000000000000000000000000000000000602082015250565b5f61204360248361164f565b915061204e82611fe9565b604082019050919050565b5f6020820190508181035f83015261207081612037565b9050919050565b7f4c6120737562617374612079612068612066696e616c697a61646f2e000000005f82015250565b5f6120ab601c8361164f565b91506120b682612077565b602082019050919050565b5f6020820190508181035f8301526120d88161209f565b905091905056fea264697066735822122064363e95a0f9984267b57d9912a7f8b07725803c31102e22d30d0179706e796f64736f6c634300081e0033",
					"opcodes": "PUSH1 0xA0 PUSH1 0x40 MSTORE CALLVALUE DUP1 ISZERO PUSH2 0xF JUMPI PUSH0 PUSH0 REVERT JUMPDEST POP PUSH1 0x40 MLOAD PUSH2 0x228A CODESIZE SUB DUP1 PUSH2 0x228A DUP4 CODECOPY DUP2 DUP2 ADD PUSH1 0x40 MSTORE DUP2 ADD SWAP1 PUSH2 0x31 SWAP2 SWAP1 PUSH2 0xBD JUMP JUMPDEST CALLER PUSH20 0xFFFFFFFFFFFFFFFFFFFFFFFFFFFFFFFFFFFFFFFF AND PUSH1 0x80 DUP2 PUSH20 0xFFFFFFFFFFFFFFFFFFFFFFFFFFFFFFFFFFFFFFFF AND DUP2 MSTORE POP POP TIMESTAMP PUSH1 0x2 DUP2 SWAP1 SSTORE POP DUP1 PUSH1 0x2 SLOAD PUSH2 0x7A SWAP2 SWAP1 PUSH2 0x115 JUMP JUMPDEST PUSH1 0x3 DUP2 SWAP1 SSTORE POP POP PUSH2 0x148 JUMP JUMPDEST PUSH0 PUSH0 REVERT JUMPDEST PUSH0 DUP2 SWAP1 POP SWAP2 SWAP1 POP JUMP JUMPDEST PUSH2 0x9C DUP2 PUSH2 0x8A JUMP JUMPDEST DUP2 EQ PUSH2 0xA6 JUMPI PUSH0 PUSH0 REVERT JUMPDEST POP JUMP JUMPDEST PUSH0 DUP2 MLOAD SWAP1 POP PUSH2 0xB7 DUP2 PUSH2 0x93 JUMP JUMPDEST SWAP3 SWAP2 POP POP JUMP JUMPDEST PUSH0 PUSH1 0x20 DUP3 DUP5 SUB SLT ISZERO PUSH2 0xD2 JUMPI PUSH2 0xD1 PUSH2 0x86 JUMP JUMPDEST JUMPDEST PUSH0 PUSH2 0xDF DUP5 DUP3 DUP6 ADD PUSH2 0xA9 JUMP JUMPDEST SWAP2 POP POP SWAP3 SWAP2 POP POP JUMP JUMPDEST PUSH32 0x4E487B7100000000000000000000000000000000000000000000000000000000 PUSH0 MSTORE PUSH1 0x11 PUSH1 0x4 MSTORE PUSH1 0x24 PUSH0 REVERT JUMPDEST PUSH0 PUSH2 0x11F DUP3 PUSH2 0x8A JUMP JUMPDEST SWAP2 POP PUSH2 0x12A DUP4 PUSH2 0x8A JUMP JUMPDEST SWAP3 POP DUP3 DUP3 ADD SWAP1 POP DUP1 DUP3 GT ISZERO PUSH2 0x142 JUMPI PUSH2 0x141 PUSH2 0xE8 JUMP JUMPDEST JUMPDEST SWAP3 SWAP2 POP POP JUMP JUMPDEST PUSH1 0x80 MLOAD PUSH2 0x2115 PUSH2 0x175 PUSH0 CODECOPY PUSH0 DUP2 DUP2 PUSH2 0x9D3 ADD MSTORE DUP2 DUP2 PUSH2 0xB54 ADD MSTORE DUP2 DUP2 PUSH2 0xC68 ADD MSTORE PUSH2 0x107B ADD MSTORE PUSH2 0x2115 PUSH0 RETURN INVALID PUSH1 0x80 PUSH1 0x40 MSTORE PUSH1 0x4 CALLDATASIZE LT PUSH2 0x113 JUMPI PUSH0 CALLDATALOAD PUSH1 0xE0 SHR DUP1 PUSH4 0x8CF80438 GT PUSH2 0x9F JUMPI DUP1 PUSH4 0xD3584E84 GT PUSH2 0x63 JUMPI DUP1 PUSH4 0xD3584E84 EQ PUSH2 0x331 JUMPI DUP1 PUSH4 0xDFBF53AE EQ PUSH2 0x36D JUMPI DUP1 PUSH4 0xEB54F9EC EQ PUSH2 0x397 JUMPI DUP1 PUSH4 0xF77282AB EQ PUSH2 0x3C1 JUMPI DUP1 PUSH4 0xF89C6837 EQ PUSH2 0x3D7 JUMPI PUSH2 0x113 JUMP JUMPDEST DUP1 PUSH4 0x8CF80438 EQ PUSH2 0x272 JUMPI DUP1 PUSH4 0x8DA5CB5B EQ PUSH2 0x29C JUMPI DUP1 PUSH4 0xB3F05B97 EQ PUSH2 0x2C6 JUMPI DUP1 PUSH4 0xB7E03264 EQ PUSH2 0x2F0 JUMPI DUP1 PUSH4 0xC264A063 EQ PUSH2 0x31B JUMPI PUSH2 0x113 JUMP JUMPDEST DUP1 PUSH4 0x3E25E837 GT PUSH2 0xE6 JUMPI DUP1 PUSH4 0x3E25E837 EQ PUSH2 0x1A0 JUMPI DUP1 PUSH4 0x4B449CBA EQ PUSH2 0x1B6 JUMPI DUP1 PUSH4 0x5681104A EQ PUSH2 0x1E0 JUMPI DUP1 PUSH4 0x62EA82DB EQ PUSH2 0x20A JUMPI DUP1 PUSH4 0x836898ED EQ PUSH2 0x248 JUMPI PUSH2 0x113 JUMP JUMPDEST DUP1 PUSH4 0x1300A6D1 EQ PUSH2 0x117 JUMPI DUP1 PUSH4 0x14D2687C EQ PUSH2 0x141 JUMPI DUP1 PUSH4 0x1998AEEF EQ PUSH2 0x16C JUMPI DUP1 PUSH4 0x1BF1DE9B EQ PUSH2 0x176 JUMPI JUMPDEST PUSH0 PUSH0 REVERT JUMPDEST CALLVALUE DUP1 ISZERO PUSH2 0x122 JUMPI PUSH0 PUSH0 REVERT JUMPDEST POP PUSH2 0x12B PUSH2 0x401 JUMP JUMPDEST PUSH1 0x40 MLOAD PUSH2 0x138 SWAP2 SWAP1 PUSH2 0x1244 JUMP JUMPDEST PUSH1 0x40 MLOAD DUP1 SWAP2 SUB SWAP1 RETURN JUMPDEST CALLVALUE DUP1 ISZERO PUSH2 0x14C JUMPI PUSH0 PUSH0 REVERT JUMPDEST POP PUSH2 0x155 PUSH2 0x427 JUMP JUMPDEST PUSH1 0x40 MLOAD PUSH2 0x163 SWAP3 SWAP2 SWAP1 PUSH2 0x13FB JUMP JUMPDEST PUSH1 0x40 MLOAD DUP1 SWAP2 SUB SWAP1 RETURN JUMPDEST PUSH2 0x174 PUSH2 0x5C6 JUMP JUMPDEST STOP JUMPDEST CALLVALUE DUP1 ISZERO PUSH2 0x181 JUMPI PUSH0 PUSH0 REVERT JUMPDEST POP PUSH2 0x18A PUSH2 0x9CC JUMP JUMPDEST PUSH1 0x40 MLOAD PUSH2 0x197 SWAP2 SWAP1 PUSH2 0x1244 JUMP JUMPDEST PUSH1 0x40 MLOAD DUP1 SWAP2 SUB SWAP1 RETURN JUMPDEST CALLVALUE DUP1 ISZERO PUSH2 0x1AB JUMPI PUSH0 PUSH0 REVERT JUMPDEST POP PUSH2 0x1B4 PUSH2 0x9D1 JUMP JUMPDEST STOP JUMPDEST CALLVALUE DUP1 ISZERO PUSH2 0x1C1 JUMPI PUSH0 PUSH0 REVERT JUMPDEST POP PUSH2 0x1CA PUSH2 0xC1D JUMP JUMPDEST PUSH1 0x40 MLOAD PUSH2 0x1D7 SWAP2 SWAP1 PUSH2 0x1244 JUMP JUMPDEST PUSH1 0x40 MLOAD DUP1 SWAP2 SUB SWAP1 RETURN JUMPDEST CALLVALUE DUP1 ISZERO PUSH2 0x1EB JUMPI PUSH0 PUSH0 REVERT JUMPDEST POP PUSH2 0x1F4 PUSH2 0xC23 JUMP JUMPDEST PUSH1 0x40 MLOAD PUSH2 0x201 SWAP2 SWAP1 PUSH2 0x1244 JUMP JUMPDEST PUSH1 0x40 MLOAD DUP1 SWAP2 SUB SWAP1 RETURN JUMPDEST CALLVALUE DUP1 ISZERO PUSH2 0x215 JUMPI PUSH0 PUSH0 REVERT JUMPDEST POP PUSH2 0x230 PUSH1 0x4 DUP1 CALLDATASIZE SUB DUP2 ADD SWAP1 PUSH2 0x22B SWAP2 SWAP1 PUSH2 0x145E JUMP JUMPDEST PUSH2 0xC29 JUMP JUMPDEST PUSH1 0x40 MLOAD PUSH2 0x23F SWAP4 SWAP3 SWAP2 SWAP1 PUSH2 0x14A3 JUMP JUMPDEST PUSH1 0x40 MLOAD DUP1 SWAP2 SUB SWAP1 RETURN JUMPDEST CALLVALUE DUP1 ISZERO PUSH2 0x253 JUMPI PUSH0 PUSH0 REVERT JUMPDEST POP PUSH2 0x25C PUSH2 0xC5B JUMP JUMPDEST PUSH1 0x40 MLOAD PUSH2 0x269 SWAP2 SWAP1 PUSH2 0x1244 JUMP JUMPDEST PUSH1 0x40 MLOAD DUP1 SWAP2 SUB SWAP1 RETURN JUMPDEST CALLVALUE DUP1 ISZERO PUSH2 0x27D JUMPI PUSH0 PUSH0 REVERT JUMPDEST POP PUSH2 0x286 PUSH2 0xC60 JUMP JUMPDEST PUSH1 0x40 MLOAD PUSH2 0x293 SWAP2 SWAP1 PUSH2 0x1244 JUMP JUMPDEST PUSH1 0x40 MLOAD DUP1 SWAP2 SUB SWAP1 RETURN JUMPDEST CALLVALUE DUP1 ISZERO PUSH2 0x2A7 JUMPI PUSH0 PUSH0 REVERT JUMPDEST POP PUSH2 0x2B0 PUSH2 0xC66 JUMP JUMPDEST PUSH1 0x40 MLOAD PUSH2 0x2BD SWAP2 SWAP1 PUSH2 0x14E7 JUMP JUMPDEST PUSH1 0x40 MLOAD DUP1 SWAP2 SUB SWAP1 RETURN JUMPDEST CALLVALUE DUP1 ISZERO PUSH2 0x2D1 JUMPI PUSH0 PUSH0 REVERT JUMPDEST POP PUSH2 0x2DA PUSH2 0xC8A JUMP JUMPDEST PUSH1 0x40 MLOAD PUSH2 0x2E7 SWAP2 SWAP1 PUSH2 0x1500 JUMP JUMPDEST PUSH1 0x40 MLOAD DUP1 SWAP2 SUB SWAP1 RETURN JUMPDEST CALLVALUE DUP1 ISZERO PUSH2 0x2FB JUMPI PUSH0 PUSH0 REVERT JUMPDEST POP PUSH2 0x304 PUSH2 0xC9C JUMP JUMPDEST PUSH1 0x40 MLOAD PUSH2 0x312 SWAP3 SWAP2 SWAP1 PUSH2 0x1519 JUMP JUMPDEST PUSH1 0x40 MLOAD DUP1 SWAP2 SUB SWAP1 RETURN JUMPDEST CALLVALUE DUP1 ISZERO PUSH2 0x326 JUMPI PUSH0 PUSH0 REVERT JUMPDEST POP PUSH2 0x32F PUSH2 0xD18 JUMP JUMPDEST STOP JUMPDEST CALLVALUE DUP1 ISZERO PUSH2 0x33C JUMPI PUSH0 PUSH0 REVERT JUMPDEST POP PUSH2 0x357 PUSH1 0x4 DUP1 CALLDATASIZE SUB DUP2 ADD SWAP1 PUSH2 0x352 SWAP2 SWAP1 PUSH2 0x156A JUMP JUMPDEST PUSH2 0x1014 JUMP JUMPDEST PUSH1 0x40 MLOAD PUSH2 0x364 SWAP2 SWAP1 PUSH2 0x14E7 JUMP JUMPDEST PUSH1 0x40 MLOAD DUP1 SWAP2 SUB SWAP1 RETURN JUMPDEST CALLVALUE DUP1 ISZERO PUSH2 0x378 JUMPI PUSH0 PUSH0 REVERT JUMPDEST POP PUSH2 0x381 PUSH2 0x104F JUMP JUMPDEST PUSH1 0x40 MLOAD PUSH2 0x38E SWAP2 SWAP1 PUSH2 0x14E7 JUMP JUMPDEST PUSH1 0x40 MLOAD DUP1 SWAP2 SUB SWAP1 RETURN JUMPDEST CALLVALUE DUP1 ISZERO PUSH2 0x3A2 JUMPI PUSH0 PUSH0 REVERT JUMPDEST POP PUSH2 0x3AB PUSH2 0x1073 JUMP JUMPDEST PUSH1 0x40 MLOAD PUSH2 0x3B8 SWAP2 SWAP1 PUSH2 0x1244 JUMP JUMPDEST PUSH1 0x40 MLOAD DUP1 SWAP2 SUB SWAP1 RETURN JUMPDEST CALLVALUE DUP1 ISZERO PUSH2 0x3CC JUMPI PUSH0 PUSH0 REVERT JUMPDEST POP PUSH2 0x3D5 PUSH2 0x1079 JUMP JUMPDEST STOP JUMPDEST CALLVALUE DUP1 ISZERO PUSH2 0x3E2 JUMPI PUSH0 PUSH0 REVERT JUMPDEST POP PUSH2 0x3EB PUSH2 0x1227 JUMP JUMPDEST PUSH1 0x40 MLOAD PUSH2 0x3F8 SWAP2 SWAP1 PUSH2 0x1244 JUMP JUMPDEST PUSH1 0x40 MLOAD DUP1 SWAP2 SUB SWAP1 RETURN JUMPDEST PUSH0 PUSH1 0x3 SLOAD TIMESTAMP LT PUSH2 0x413 JUMPI PUSH0 SWAP1 POP PUSH2 0x424 JUMP JUMPDEST TIMESTAMP PUSH1 0x3 SLOAD PUSH2 0x421 SWAP2 SWAP1 PUSH2 0x15C2 JUMP JUMPDEST SWAP1 POP JUMPDEST SWAP1 JUMP JUMPDEST PUSH1 0x60 DUP1 PUSH0 PUSH1 0x6 DUP1 SLOAD SWAP1 POP PUSH8 0xFFFFFFFFFFFFFFFF DUP2 GT ISZERO PUSH2 0x44A JUMPI PUSH2 0x449 PUSH2 0x15F5 JUMP JUMPDEST JUMPDEST PUSH1 0x40 MLOAD SWAP1 DUP1 DUP3 MSTORE DUP1 PUSH1 0x20 MUL PUSH1 0x20 ADD DUP3 ADD PUSH1 0x40 MSTORE DUP1 ISZERO PUSH2 0x478 JUMPI DUP2 PUSH1 0x20 ADD PUSH1 0x20 DUP3 MUL DUP1 CALLDATASIZE DUP4 CALLDATACOPY DUP1 DUP3 ADD SWAP2 POP POP SWAP1 POP JUMPDEST POP SWAP1 POP PUSH0 PUSH0 SWAP1 POP JUMPDEST PUSH1 0x6 DUP1 SLOAD SWAP1 POP DUP2 LT ISZERO PUSH2 0x534 JUMPI PUSH1 0x5 PUSH0 PUSH1 0x6 DUP4 DUP2 SLOAD DUP2 LT PUSH2 0x4A4 JUMPI PUSH2 0x4A3 PUSH2 0x1622 JUMP JUMPDEST JUMPDEST SWAP1 PUSH0 MSTORE PUSH1 0x20 PUSH0 KECCAK256 ADD PUSH0 SWAP1 SLOAD SWAP1 PUSH2 0x100 EXP SWAP1 DIV PUSH20 0xFFFFFFFFFFFFFFFFFFFFFFFFFFFFFFFFFFFFFFFF AND PUSH20 0xFFFFFFFFFFFFFFFFFFFFFFFFFFFFFFFFFFFFFFFF AND PUSH20 0xFFFFFFFFFFFFFFFFFFFFFFFFFFFFFFFFFFFFFFFF AND DUP2 MSTORE PUSH1 0x20 ADD SWAP1 DUP2 MSTORE PUSH1 0x20 ADD PUSH0 KECCAK256 PUSH0 ADD SLOAD DUP3 DUP3 DUP2 MLOAD DUP2 LT PUSH2 0x51B JUMPI PUSH2 0x51A PUSH2 0x1622 JUMP JUMPDEST JUMPDEST PUSH1 0x20 MUL PUSH1 0x20 ADD ADD DUP2 DUP2 MSTORE POP POP DUP1 DUP1 PUSH1 0x1 ADD SWAP2 POP POP PUSH2 0x480 JUMP JUMPDEST POP PUSH1 0x6 DUP2 DUP2 DUP1 SLOAD DUP1 PUSH1 0x20 MUL PUSH1 0x20 ADD PUSH1 0x40 MLOAD SWAP1 DUP2 ADD PUSH1 0x40 MSTORE DUP1 SWAP3 SWAP2 SWAP1 DUP2 DUP2 MSTORE PUSH1 0x20 ADD DUP3 DUP1 SLOAD DUP1 ISZERO PUSH2 0x5B6 JUMPI PUSH1 0x20 MUL DUP3 ADD SWAP2 SWAP1 PUSH0 MSTORE PUSH1 0x20 PUSH0 KECCAK256 SWAP1 JUMPDEST DUP2 PUSH0 SWAP1 SLOAD SWAP1 PUSH2 0x100 EXP SWAP1 DIV PUSH20 0xFFFFFFFFFFFFFFFFFFFFFFFFFFFFFFFFFFFFFFFF AND PUSH20 0xFFFFFFFFFFFFFFFFFFFFFFFFFFFFFFFFFFFFFFFF AND DUP2 MSTORE PUSH1 0x20 ADD SWAP1 PUSH1 0x1 ADD SWAP1 DUP1 DUP4 GT PUSH2 0x56D JUMPI JUMPDEST POP POP POP POP POP SWAP2 POP SWAP3 POP SWAP3 POP POP SWAP1 SWAP2 JUMP JUMPDEST PUSH1 0x3 SLOAD TIMESTAMP LT PUSH2 0x60A JUMPI PUSH1 0x40 MLOAD PUSH32 0x8C379A000000000000000000000000000000000000000000000000000000000 DUP2 MSTORE PUSH1 0x4 ADD PUSH2 0x601 SWAP1 PUSH2 0x16CF JUMP JUMPDEST PUSH1 0x40 MLOAD DUP1 SWAP2 SUB SWAP1 REVERT JUMPDEST PUSH1 0x4 PUSH0 SWAP1 SLOAD SWAP1 PUSH2 0x100 EXP SWAP1 DIV PUSH1 0xFF AND ISZERO PUSH2 0x659 JUMPI PUSH1 0x40 MLOAD PUSH32 0x8C379A000000000000000000000000000000000000000000000000000000000 DUP2 MSTORE PUSH1 0x4 ADD PUSH2 0x650 SWAP1 PUSH2 0x175D JUMP JUMPDEST PUSH1 0x40 MLOAD DUP1 SWAP2 SUB SWAP1 REVERT JUMPDEST PUSH0 CALLVALUE GT PUSH2 0x69B JUMPI PUSH1 0x40 MLOAD PUSH32 0x8C379A000000000000000000000000000000000000000000000000000000000 DUP2 MSTORE PUSH1 0x4 ADD PUSH2 0x692 SWAP1 PUSH2 0x17C5 JUMP JUMPDEST PUSH1 0x40 MLOAD DUP1 SWAP2 SUB SWAP1 REVERT JUMPDEST PUSH0 PUSH1 0x5 PUSH0 CALLER PUSH20 0xFFFFFFFFFFFFFFFFFFFFFFFFFFFFFFFFFFFFFFFF AND PUSH20 0xFFFFFFFFFFFFFFFFFFFFFFFFFFFFFFFFFFFFFFFF AND DUP2 MSTORE PUSH1 0x20 ADD SWAP1 DUP2 MSTORE PUSH1 0x20 ADD PUSH0 KECCAK256 SWAP1 POP PUSH0 CALLVALUE DUP3 PUSH0 ADD SLOAD PUSH2 0x6EB SWAP2 SWAP1 PUSH2 0x17E3 JUMP JUMPDEST SWAP1 POP DUP2 PUSH1 0x2 ADD PUSH0 SWAP1 SLOAD SWAP1 PUSH2 0x100 EXP SWAP1 DIV PUSH1 0xFF AND DUP1 ISZERO PUSH2 0x70C JUMPI POP PUSH0 DUP3 PUSH0 ADD SLOAD GT JUMPDEST ISZERO PUSH2 0x783 JUMPI PUSH0 PUSH1 0x64 PUSH1 0x1 DUP5 PUSH0 ADD SLOAD PUSH2 0x724 SWAP2 SWAP1 PUSH2 0x1816 JUMP JUMPDEST PUSH2 0x72E SWAP2 SWAP1 PUSH2 0x1884 JUMP JUMPDEST DUP4 PUSH0 ADD SLOAD PUSH2 0x73C SWAP2 SWAP1 PUSH2 0x17E3 JUMP JUMPDEST SWAP1 POP DUP1 DUP3 LT ISZERO PUSH2 0x781 JUMPI PUSH1 0x40 MLOAD PUSH32 0x8C379A000000000000000000000000000000000000000000000000000000000 DUP2 MSTORE PUSH1 0x4 ADD PUSH2 0x778 SWAP1 PUSH2 0x194A JUMP JUMPDEST PUSH1 0x40 MLOAD DUP1 SWAP2 SUB SWAP1 REVERT JUMPDEST POP JUMPDEST PUSH0 PUSH1 0x1 SLOAD SUB PUSH2 0x7D4 JUMPI PUSH0 DUP2 LT ISZERO PUSH2 0x7CF JUMPI PUSH1 0x40 MLOAD PUSH32 0x8C379A000000000000000000000000000000000000000000000000000000000 DUP2 MSTORE PUSH1 0x4 ADD PUSH2 0x7C6 SWAP1 PUSH2 0x19D8 JUMP JUMPDEST PUSH1 0x40 MLOAD DUP1 SWAP2 SUB SWAP1 REVERT JUMPDEST PUSH2 0x844 JUMP JUMPDEST PUSH0 PUSH1 0x64 PUSH1 0x5 PUSH1 0x1 SLOAD PUSH2 0x7E6 SWAP2 SWAP1 PUSH2 0x1816 JUMP JUMPDEST PUSH2 0x7F0 SWAP2 SWAP1 PUSH2 0x1884 JUMP JUMPDEST PUSH1 0x1 SLOAD PUSH2 0x7FD SWAP2 SWAP1 PUSH2 0x17E3 JUMP JUMPDEST SWAP1 POP DUP1 DUP3 LT ISZERO PUSH2 0x842 JUMPI PUSH1 0x40 MLOAD PUSH32 0x8C379A000000000000000000000000000000000000000000000000000000000 DUP2 MSTORE PUSH1 0x4 ADD PUSH2 0x839 SWAP1 PUSH2 0x1A8C JUMP JUMPDEST PUSH1 0x40 MLOAD DUP1 SWAP2 SUB SWAP1 REVERT JUMPDEST POP JUMPDEST DUP2 PUSH1 0x2 ADD PUSH0 SWAP1 SLOAD SWAP1 PUSH2 0x100 EXP SWAP1 DIV PUSH1 0xFF AND PUSH2 0x8D6 JUMPI PUSH1 0x6 CALLER SWAP1 DUP1 PUSH1 0x1 DUP2 SLOAD ADD DUP1 DUP3 SSTORE DUP1 SWAP2 POP POP PUSH1 0x1 SWAP1 SUB SWAP1 PUSH0 MSTORE PUSH1 0x20 PUSH0 KECCAK256 ADD PUSH0 SWAP1 SWAP2 SWAP1 SWAP2 SWAP1 SWAP2 PUSH2 0x100 EXP DUP2 SLOAD DUP2 PUSH20 0xFFFFFFFFFFFFFFFFFFFFFFFFFFFFFFFFFFFFFFFF MUL NOT AND SWAP1 DUP4 PUSH20 0xFFFFFFFFFFFFFFFFFFFFFFFFFFFFFFFFFFFFFFFF AND MUL OR SWAP1 SSTORE POP PUSH1 0x1 DUP3 PUSH1 0x2 ADD PUSH0 PUSH2 0x100 EXP DUP2 SLOAD DUP2 PUSH1 0xFF MUL NOT AND SWAP1 DUP4 ISZERO ISZERO MUL OR SWAP1 SSTORE POP JUMPDEST CALLVALUE DUP3 PUSH1 0x1 ADD PUSH0 DUP3 DUP3 SLOAD PUSH2 0x8E9 SWAP2 SWAP1 PUSH2 0x17E3 JUMP JUMPDEST SWAP3 POP POP DUP2 SWAP1 SSTORE POP DUP1 DUP3 PUSH0 ADD DUP2 SWAP1 SSTORE POP PUSH1 0x1 SLOAD DUP2 GT ISZERO PUSH2 0x949 JUMPI DUP1 PUSH1 0x1 DUP2 SWAP1 SSTORE POP CALLER PUSH0 PUSH0 PUSH2 0x100 EXP DUP2 SLOAD DUP2 PUSH20 0xFFFFFFFFFFFFFFFFFFFFFFFFFFFFFFFFFFFFFFFF MUL NOT AND SWAP1 DUP4 PUSH20 0xFFFFFFFFFFFFFFFFFFFFFFFFFFFFFFFFFFFFFFFF AND MUL OR SWAP1 SSTORE POP JUMPDEST PUSH2 0x258 TIMESTAMP PUSH1 0x3 SLOAD PUSH2 0x95A SWAP2 SWAP1 PUSH2 0x15C2 JUMP JUMPDEST GT PUSH2 0x97A JUMPI PUSH2 0x258 PUSH1 0x3 PUSH0 DUP3 DUP3 SLOAD PUSH2 0x972 SWAP2 SWAP1 PUSH2 0x17E3 JUMP JUMPDEST SWAP3 POP POP DUP2 SWAP1 SSTORE POP JUMPDEST CALLER PUSH20 0xFFFFFFFFFFFFFFFFFFFFFFFFFFFFFFFFFFFFFFFF AND PUSH32 0xDD0B6C6A77960E2066C96171B4D7AC9E8B4C184011F38544AFA36A5BB63EC59F DUP3 PUSH1 0x40 MLOAD PUSH2 0x9C0 SWAP2 SWAP1 PUSH2 0x1244 JUMP JUMPDEST PUSH1 0x40 MLOAD DUP1 SWAP2 SUB SWAP1 LOG2 POP POP JUMP JUMPDEST PUSH1 0x2 DUP2 JUMP JUMPDEST PUSH32 0x0 PUSH20 0xFFFFFFFFFFFFFFFFFFFFFFFFFFFFFFFFFFFFFFFF AND CALLER PUSH20 0xFFFFFFFFFFFFFFFFFFFFFFFFFFFFFFFFFFFFFFFF AND EQ PUSH2 0xA5F JUMPI PUSH1 0x40 MLOAD PUSH32 0x8C379A000000000000000000000000000000000000000000000000000000000 DUP2 MSTORE PUSH1 0x4 ADD PUSH2 0xA56 SWAP1 PUSH2 0x1B1A JUMP JUMPDEST PUSH1 0x40 MLOAD DUP1 SWAP2 SUB SWAP1 REVERT JUMPDEST PUSH1 0x4 PUSH0 SWAP1 SLOAD SWAP1 PUSH2 0x100 EXP SWAP1 DIV PUSH1 0xFF AND PUSH2 0xAAD JUMPI PUSH1 0x40 MLOAD PUSH32 0x8C379A000000000000000000000000000000000000000000000000000000000 DUP2 MSTORE PUSH1 0x4 ADD PUSH2 0xAA4 SWAP1 PUSH2 0x1BCE JUMP JUMPDEST PUSH1 0x40 MLOAD DUP1 SWAP2 SUB SWAP1 REVERT JUMPDEST PUSH0 PUSH1 0x1 SLOAD GT PUSH2 0xAF1 JUMPI PUSH1 0x40 MLOAD PUSH32 0x8C379A000000000000000000000000000000000000000000000000000000000 DUP2 MSTORE PUSH1 0x4 ADD PUSH2 0xAE8 SWAP1 PUSH2 0x1C5C JUMP JUMPDEST PUSH1 0x40 MLOAD DUP1 SWAP2 SUB SWAP1 REVERT JUMPDEST PUSH0 PUSH1 0x64 PUSH1 0x2 PUSH1 0x1 SLOAD PUSH2 0xB03 SWAP2 SWAP1 PUSH2 0x1816 JUMP JUMPDEST PUSH2 0xB0D SWAP2 SWAP1 PUSH2 0x1884 JUMP JUMPDEST SWAP1 POP PUSH0 DUP2 GT PUSH2 0xB51 JUMPI PUSH1 0x40 MLOAD PUSH32 0x8C379A000000000000000000000000000000000000000000000000000000000 DUP2 MSTORE PUSH1 0x4 ADD PUSH2 0xB48 SWAP1 PUSH2 0x1CEA JUMP JUMPDEST PUSH1 0x40 MLOAD DUP1 SWAP2 SUB SWAP1 REVERT JUMPDEST PUSH0 PUSH32 0x0 PUSH20 0xFFFFFFFFFFFFFFFFFFFFFFFFFFFFFFFFFFFFFFFF AND DUP3 PUSH1 0x40 MLOAD PUSH2 0xB96 SWAP1 PUSH2 0x1D35 JUMP JUMPDEST PUSH0 PUSH1 0x40 MLOAD DUP1 DUP4 SUB DUP2 DUP6 DUP8 GAS CALL SWAP3 POP POP POP RETURNDATASIZE DUP1 PUSH0 DUP2 EQ PUSH2 0xBD0 JUMPI PUSH1 0x40 MLOAD SWAP2 POP PUSH1 0x1F NOT PUSH1 0x3F RETURNDATASIZE ADD AND DUP3 ADD PUSH1 0x40 MSTORE RETURNDATASIZE DUP3 MSTORE RETURNDATASIZE PUSH0 PUSH1 0x20 DUP5 ADD RETURNDATACOPY PUSH2 0xBD5 JUMP JUMPDEST PUSH1 0x60 SWAP2 POP JUMPDEST POP POP SWAP1 POP DUP1 PUSH2 0xC19 JUMPI PUSH1 0x40 MLOAD PUSH32 0x8C379A000000000000000000000000000000000000000000000000000000000 DUP2 MSTORE PUSH1 0x4 ADD PUSH2 0xC10 SWAP1 PUSH2 0x1D93 JUMP JUMPDEST PUSH1 0x40 MLOAD DUP1 SWAP2 SUB SWAP1 REVERT JUMPDEST POP POP JUMP JUMPDEST PUSH1 0x3 SLOAD DUP2 JUMP JUMPDEST PUSH2 0x258 DUP2 JUMP JUMPDEST PUSH1 0x5 PUSH1 0x20 MSTORE DUP1 PUSH0 MSTORE PUSH1 0x40 PUSH0 KECCAK256 PUSH0 SWAP2 POP SWAP1 POP DUP1 PUSH0 ADD SLOAD SWAP1 DUP1 PUSH1 0x1 ADD SLOAD SWAP1 DUP1 PUSH1 0x2 ADD PUSH0 SWAP1 SLOAD SWAP1 PUSH2 0x100 EXP SWAP1 DIV PUSH1 0xFF AND SWAP1 POP DUP4 JUMP JUMPDEST PUSH1 0x5 DUP2 JUMP JUMPDEST PUSH1 0x1 SLOAD DUP2 JUMP JUMPDEST PUSH32 0x0 DUP2 JUMP JUMPDEST PUSH1 0x4 PUSH0 SWAP1 SLOAD SWAP1 PUSH2 0x100 EXP SWAP1 DIV PUSH1 0xFF AND DUP2 JUMP JUMPDEST PUSH0 PUSH0 PUSH1 0x4 PUSH0 SWAP1 SLOAD SWAP1 PUSH2 0x100 EXP SWAP1 DIV PUSH1 0xFF AND PUSH2 0xCEC JUMPI PUSH1 0x40 MLOAD PUSH32 0x8C379A000000000000000000000000000000000000000000000000000000000 DUP2 MSTORE PUSH1 0x4 ADD PUSH2 0xCE3 SWAP1 PUSH2 0x1E21 JUMP JUMPDEST PUSH1 0x40 MLOAD DUP1 SWAP2 SUB SWAP1 REVERT JUMPDEST PUSH0 PUSH0 SWAP1 SLOAD SWAP1 PUSH2 0x100 EXP SWAP1 DIV PUSH20 0xFFFFFFFFFFFFFFFFFFFFFFFFFFFFFFFFFFFFFFFF AND PUSH1 0x1 SLOAD SWAP2 POP SWAP2 POP SWAP1 SWAP2 JUMP JUMPDEST PUSH0 PUSH1 0x5 PUSH0 CALLER PUSH20 0xFFFFFFFFFFFFFFFFFFFFFFFFFFFFFFFFFFFFFFFF AND PUSH20 0xFFFFFFFFFFFFFFFFFFFFFFFFFFFFFFFFFFFFFFFF AND DUP2 MSTORE PUSH1 0x20 ADD SWAP1 DUP2 MSTORE PUSH1 0x20 ADD PUSH0 KECCAK256 SWAP1 POP PUSH0 DUP2 PUSH1 0x1 ADD SLOAD GT PUSH2 0xD9E JUMPI PUSH1 0x40 MLOAD PUSH32 0x8C379A000000000000000000000000000000000000000000000000000000000 DUP2 MSTORE PUSH1 0x4 ADD PUSH2 0xD95 SWAP1 PUSH2 0x1EAF JUMP JUMPDEST PUSH1 0x40 MLOAD DUP1 SWAP2 SUB SWAP1 REVERT JUMPDEST PUSH0 PUSH0 SWAP1 POP PUSH1 0x4 PUSH0 SWAP1 SLOAD SWAP1 PUSH2 0x100 EXP SWAP1 DIV PUSH1 0xFF AND DUP1 ISZERO PUSH2 0xE09 JUMPI POP PUSH0 PUSH0 SWAP1 SLOAD SWAP1 PUSH2 0x100 EXP SWAP1 DIV PUSH20 0xFFFFFFFFFFFFFFFFFFFFFFFFFFFFFFFFFFFFFFFF AND PUSH20 0xFFFFFFFFFFFFFFFFFFFFFFFFFFFFFFFFFFFFFFFF AND CALLER PUSH20 0xFFFFFFFFFFFFFFFFFFFFFFFFFFFFFFFFFFFFFFFF AND EQ ISZERO JUMPDEST ISZERO PUSH2 0xEA0 JUMPI PUSH1 0x64 PUSH1 0x2 DUP4 PUSH1 0x1 ADD SLOAD PUSH2 0xE21 SWAP2 SWAP1 PUSH2 0x1816 JUMP JUMPDEST PUSH2 0xE2B SWAP2 SWAP1 PUSH2 0x1884 JUMP JUMPDEST DUP3 PUSH1 0x1 ADD SLOAD PUSH2 0xE3A SWAP2 SWAP1 PUSH2 0x15C2 JUMP JUMPDEST SWAP1 POP PUSH0 DUP3 PUSH1 0x1 ADD DUP2 SWAP1 SSTORE POP PUSH0 DUP3 PUSH0 ADD DUP2 SWAP1 SSTORE POP CALLER PUSH20 0xFFFFFFFFFFFFFFFFFFFFFFFFFFFFFFFFFFFFFFFF AND PUSH32 0xDB0E6B892C46274E80CF044740D5B7B5CA9BFF817896D27ACBECA50950A12403 DUP3 PUSH1 0x40 MLOAD PUSH2 0xE93 SWAP2 SWAP1 PUSH2 0x1244 JUMP JUMPDEST PUSH1 0x40 MLOAD DUP1 SWAP2 SUB SWAP1 LOG2 PUSH2 0xF67 JUMP JUMPDEST DUP2 PUSH0 ADD SLOAD DUP3 PUSH1 0x1 ADD SLOAD GT PUSH2 0xEE9 JUMPI PUSH1 0x40 MLOAD PUSH32 0x8C379A000000000000000000000000000000000000000000000000000000000 DUP2 MSTORE PUSH1 0x4 ADD PUSH2 0xEE0 SWAP1 PUSH2 0x1F3D JUMP JUMPDEST PUSH1 0x40 MLOAD DUP1 SWAP2 SUB SWAP1 REVERT JUMPDEST DUP2 PUSH0 ADD SLOAD DUP3 PUSH1 0x1 ADD SLOAD PUSH2 0xEFC SWAP2 SWAP1 PUSH2 0x15C2 JUMP JUMPDEST SWAP1 POP DUP1 DUP3 PUSH1 0x1 ADD PUSH0 DUP3 DUP3 SLOAD PUSH2 0xF11 SWAP2 SWAP1 PUSH2 0x15C2 JUMP JUMPDEST SWAP3 POP POP DUP2 SWAP1 SSTORE POP CALLER PUSH20 0xFFFFFFFFFFFFFFFFFFFFFFFFFFFFFFFFFFFFFFFF AND PUSH32 0x9BDEDCC968F2C0682145C20289DFBB3081A39684571116AB45EABFEF512E9473 DUP3 PUSH1 0x40 MLOAD PUSH2 0xF5E SWAP2 SWAP1 PUSH2 0x1244 JUMP JUMPDEST PUSH1 0x40 MLOAD DUP1 SWAP2 SUB SWAP1 LOG2 JUMPDEST PUSH0 CALLER PUSH20 0xFFFFFFFFFFFFFFFFFFFFFFFFFFFFFFFFFFFFFFFF AND DUP3 PUSH1 0x40 MLOAD PUSH2 0xF8C SWAP1 PUSH2 0x1D35 JUMP JUMPDEST PUSH0 PUSH1 0x40 MLOAD DUP1 DUP4 SUB DUP2 DUP6 DUP8 GAS CALL SWAP3 POP POP POP RETURNDATASIZE DUP1 PUSH0 DUP2 EQ PUSH2 0xFC6 JUMPI PUSH1 0x40 MLOAD SWAP2 POP PUSH1 0x1F NOT PUSH1 0x3F RETURNDATASIZE ADD AND DUP3 ADD PUSH1 0x40 MSTORE RETURNDATASIZE DUP3 MSTORE RETURNDATASIZE PUSH0 PUSH1 0x20 DUP5 ADD RETURNDATACOPY PUSH2 0xFCB JUMP JUMPDEST PUSH1 0x60 SWAP2 POP JUMPDEST POP POP SWAP1 POP DUP1 PUSH2 0x100F JUMPI PUSH1 0x40 MLOAD PUSH32 0x8C379A000000000000000000000000000000000000000000000000000000000 DUP2 MSTORE PUSH1 0x4 ADD PUSH2 0x1006 SWAP1 PUSH2 0x1FCB JUMP JUMPDEST PUSH1 0x40 MLOAD DUP1 SWAP2 SUB SWAP1 REVERT JUMPDEST POP POP POP JUMP JUMPDEST PUSH1 0x6 DUP2 DUP2 SLOAD DUP2 LT PUSH2 0x1023 JUMPI PUSH0 DUP1 REVERT JUMPDEST SWAP1 PUSH0 MSTORE PUSH1 0x20 PUSH0 KECCAK256 ADD PUSH0 SWAP2 POP SLOAD SWAP1 PUSH2 0x100 EXP SWAP1 DIV PUSH20 0xFFFFFFFFFFFFFFFFFFFFFFFFFFFFFFFFFFFFFFFF AND DUP2 JUMP JUMPDEST PUSH0 PUSH0 SWAP1 SLOAD SWAP1 PUSH2 0x100 EXP SWAP1 DIV PUSH20 0xFFFFFFFFFFFFFFFFFFFFFFFFFFFFFFFFFFFFFFFF AND DUP2 JUMP JUMPDEST PUSH1 0x2 SLOAD DUP2 JUMP JUMPDEST PUSH32 0x0 PUSH20 0xFFFFFFFFFFFFFFFFFFFFFFFFFFFFFFFFFFFFFFFF AND CALLER PUSH20 0xFFFFFFFFFFFFFFFFFFFFFFFFFFFFFFFFFFFFFFFF AND EQ PUSH2 0x1107 JUMPI PUSH1 0x40 MLOAD PUSH32 0x8C379A000000000000000000000000000000000000000000000000000000000 DUP2 MSTORE PUSH1 0x4 ADD PUSH2 0x10FE SWAP1 PUSH2 0x1B1A JUMP JUMPDEST PUSH1 0x40 MLOAD DUP1 SWAP2 SUB SWAP1 REVERT JUMPDEST PUSH1 0x3 SLOAD TIMESTAMP LT ISZERO PUSH2 0x114C JUMPI PUSH1 0x40 MLOAD PUSH32 0x8C379A000000000000000000000000000000000000000000000000000000000 DUP2 MSTORE PUSH1 0x4 ADD PUSH2 0x1143 SWAP1 PUSH2 0x2059 JUMP JUMPDEST PUSH1 0x40 MLOAD DUP1 SWAP2 SUB SWAP1 REVERT JUMPDEST PUSH1 0x4 PUSH0 SWAP1 SLOAD SWAP1 PUSH2 0x100 EXP SWAP1 DIV PUSH1 0xFF AND ISZERO PUSH2 0x119B JUMPI PUSH1 0x40 MLOAD PUSH32 0x8C379A000000000000000000000000000000000000000000000000000000000 DUP2 MSTORE PUSH1 0x4 ADD PUSH2 0x1192 SWAP1 PUSH2 0x20C1 JUMP JUMPDEST PUSH1 0x40 MLOAD DUP1 SWAP2 SUB SWAP1 REVERT JUMPDEST PUSH1 0x1 PUSH1 0x4 PUSH0 PUSH2 0x100 EXP DUP2 SLOAD DUP2 PUSH1 0xFF MUL NOT AND SWAP1 DUP4 ISZERO ISZERO MUL OR SWAP1 SSTORE POP PUSH0 PUSH0 SWAP1 SLOAD SWAP1 PUSH2 0x100 EXP SWAP1 DIV PUSH20 0xFFFFFFFFFFFFFFFFFFFFFFFFFFFFFFFFFFFFFFFF AND PUSH20 0xFFFFFFFFFFFFFFFFFFFFFFFFFFFFFFFFFFFFFFFF AND PUSH32 0x357AFAB190EE87FE0EF1C717F2728D2904D9E415A069D99F4D9382873CB3279D PUSH1 0x1 SLOAD PUSH1 0x40 MLOAD PUSH2 0x121D SWAP2 SWAP1 PUSH2 0x1244 JUMP JUMPDEST PUSH1 0x40 MLOAD DUP1 SWAP2 SUB SWAP1 LOG2 JUMP JUMPDEST PUSH1 0x1 DUP2 JUMP JUMPDEST PUSH0 DUP2 SWAP1 POP SWAP2 SWAP1 POP JUMP JUMPDEST PUSH2 0x123E DUP2 PUSH2 0x122C JUMP JUMPDEST DUP3 MSTORE POP POP JUMP JUMPDEST PUSH0 PUSH1 0x20 DUP3 ADD SWAP1 POP PUSH2 0x1257 PUSH0 DUP4 ADD DUP5 PUSH2 0x1235 JUMP JUMPDEST SWAP3 SWAP2 POP POP JUMP JUMPDEST PUSH0 DUP2 MLOAD SWAP1 POP SWAP2 SWAP1 POP JUMP JUMPDEST PUSH0 DUP3 DUP3 MSTORE PUSH1 0x20 DUP3 ADD SWAP1 POP SWAP3 SWAP2 POP POP JUMP JUMPDEST PUSH0 DUP2 SWAP1 POP PUSH1 0x20 DUP3 ADD SWAP1 POP SWAP2 SWAP1 POP JUMP JUMPDEST PUSH0 PUSH20 0xFFFFFFFFFFFFFFFFFFFFFFFFFFFFFFFFFFFFFFFF DUP3 AND SWAP1 POP SWAP2 SWAP1 POP JUMP JUMPDEST PUSH0 PUSH2 0x12AF DUP3 PUSH2 0x1286 JUMP JUMPDEST SWAP1 POP SWAP2 SWAP1 POP JUMP JUMPDEST PUSH2 0x12BF DUP2 PUSH2 0x12A5 JUMP JUMPDEST DUP3 MSTORE POP POP JUMP JUMPDEST PUSH0 PUSH2 0x12D0 DUP4 DUP4 PUSH2 0x12B6 JUMP JUMPDEST PUSH1 0x20 DUP4 ADD SWAP1 POP SWAP3 SWAP2 POP POP JUMP JUMPDEST PUSH0 PUSH1 0x20 DUP3 ADD SWAP1 POP SWAP2 SWAP1 POP JUMP JUMPDEST PUSH0 PUSH2 0x12F2 DUP3 PUSH2 0x125D JUMP JUMPDEST PUSH2 0x12FC DUP2 DUP6 PUSH2 0x1267 JUMP JUMPDEST SWAP4 POP PUSH2 0x1307 DUP4 PUSH2 0x1277 JUMP JUMPDEST DUP1 PUSH0 JUMPDEST DUP4 DUP2 LT ISZERO PUSH2 0x1337 JUMPI DUP2 MLOAD PUSH2 0x131E DUP9 DUP3 PUSH2 0x12C5 JUMP JUMPDEST SWAP8 POP PUSH2 0x1329 DUP4 PUSH2 0x12DC JUMP JUMPDEST SWAP3 POP POP PUSH1 0x1 DUP2 ADD SWAP1 POP PUSH2 0x130A JUMP JUMPDEST POP DUP6 SWAP4 POP POP POP POP SWAP3 SWAP2 POP POP JUMP JUMPDEST PUSH0 DUP2 MLOAD SWAP1 POP SWAP2 SWAP1 POP JUMP JUMPDEST PUSH0 DUP3 DUP3 MSTORE PUSH1 0x20 DUP3 ADD SWAP1 POP SWAP3 SWAP2 POP POP JUMP JUMPDEST PUSH0 DUP2 SWAP1 POP PUSH1 0x20 DUP3 ADD SWAP1 POP SWAP2 SWAP1 POP JUMP JUMPDEST PUSH2 0x1376 DUP2 PUSH2 0x122C JUMP JUMPDEST DUP3 MSTORE POP POP JUMP JUMPDEST PUSH0 PUSH2 0x1387 DUP4 DUP4 PUSH2 0x136D JUMP JUMPDEST PUSH1 0x20 DUP4 ADD SWAP1 POP SWAP3 SWAP2 POP POP JUMP JUMPDEST PUSH0 PUSH1 0x20 DUP3 ADD SWAP1 POP SWAP2 SWAP1 POP JUMP JUMPDEST PUSH0 PUSH2 0x13A9 DUP3 PUSH2 0x1344 JUMP JUMPDEST PUSH2 0x13B3 DUP2 DUP6 PUSH2 0x134E JUMP JUMPDEST SWAP4 POP PUSH2 0x13BE DUP4 PUSH2 0x135E JUMP JUMPDEST DUP1 PUSH0 JUMPDEST DUP4 DUP2 LT ISZERO PUSH2 0x13EE JUMPI DUP2 MLOAD PUSH2 0x13D5 DUP9 DUP3 PUSH2 0x137C JUMP JUMPDEST SWAP8 POP PUSH2 0x13E0 DUP4 PUSH2 0x1393 JUMP JUMPDEST SWAP3 POP POP PUSH1 0x1 DUP2 ADD SWAP1 POP PUSH2 0x13C1 JUMP JUMPDEST POP DUP6 SWAP4 POP POP POP POP SWAP3 SWAP2 POP POP JUMP JUMPDEST PUSH0 PUSH1 0x40 DUP3 ADD SWAP1 POP DUP2 DUP2 SUB PUSH0 DUP4 ADD MSTORE PUSH2 0x1413 DUP2 DUP6 PUSH2 0x12E8 JUMP JUMPDEST SWAP1 POP DUP2 DUP2 SUB PUSH1 0x20 DUP4 ADD MSTORE PUSH2 0x1427 DUP2 DUP5 PUSH2 0x139F JUMP JUMPDEST SWAP1 POP SWAP4 SWAP3 POP POP POP JUMP JUMPDEST PUSH0 PUSH0 REVERT JUMPDEST PUSH2 0x143D DUP2 PUSH2 0x12A5 JUMP JUMPDEST DUP2 EQ PUSH2 0x1447 JUMPI PUSH0 PUSH0 REVERT JUMPDEST POP JUMP JUMPDEST PUSH0 DUP2 CALLDATALOAD SWAP1 POP PUSH2 0x1458 DUP2 PUSH2 0x1434 JUMP JUMPDEST SWAP3 SWAP2 POP POP JUMP JUMPDEST PUSH0 PUSH1 0x20 DUP3 DUP5 SUB SLT ISZERO PUSH2 0x1473 JUMPI PUSH2 0x1472 PUSH2 0x1430 JUMP JUMPDEST JUMPDEST PUSH0 PUSH2 0x1480 DUP5 DUP3 DUP6 ADD PUSH2 0x144A JUMP JUMPDEST SWAP2 POP POP SWAP3 SWAP2 POP POP JUMP JUMPDEST PUSH0 DUP2 ISZERO ISZERO SWAP1 POP SWAP2 SWAP1 POP JUMP JUMPDEST PUSH2 0x149D DUP2 PUSH2 0x1489 JUMP JUMPDEST DUP3 MSTORE POP POP JUMP JUMPDEST PUSH0 PUSH1 0x60 DUP3 ADD SWAP1 POP PUSH2 0x14B6 PUSH0 DUP4 ADD DUP7 PUSH2 0x1235 JUMP JUMPDEST PUSH2 0x14C3 PUSH1 0x20 DUP4 ADD DUP6 PUSH2 0x1235 JUMP JUMPDEST PUSH2 0x14D0 PUSH1 0x40 DUP4 ADD DUP5 PUSH2 0x1494 JUMP JUMPDEST SWAP5 SWAP4 POP POP POP POP JUMP JUMPDEST PUSH2 0x14E1 DUP2 PUSH2 0x12A5 JUMP JUMPDEST DUP3 MSTORE POP POP JUMP JUMPDEST PUSH0 PUSH1 0x20 DUP3 ADD SWAP1 POP PUSH2 0x14FA PUSH0 DUP4 ADD DUP5 PUSH2 0x14D8 JUMP JUMPDEST SWAP3 SWAP2 POP POP JUMP JUMPDEST PUSH0 PUSH1 0x20 DUP3 ADD SWAP1 POP PUSH2 0x1513 PUSH0 DUP4 ADD DUP5 PUSH2 0x1494 JUMP JUMPDEST SWAP3 SWAP2 POP POP JUMP JUMPDEST PUSH0 PUSH1 0x40 DUP3 ADD SWAP1 POP PUSH2 0x152C PUSH0 DUP4 ADD DUP6 PUSH2 0x14D8 JUMP JUMPDEST PUSH2 0x1539 PUSH1 0x20 DUP4 ADD DUP5 PUSH2 0x1235 JUMP JUMPDEST SWAP4 SWAP3 POP POP POP JUMP JUMPDEST PUSH2 0x1549 DUP2 PUSH2 0x122C JUMP JUMPDEST DUP2 EQ PUSH2 0x1553 JUMPI PUSH0 PUSH0 REVERT JUMPDEST POP JUMP JUMPDEST PUSH0 DUP2 CALLDATALOAD SWAP1 POP PUSH2 0x1564 DUP2 PUSH2 0x1540 JUMP JUMPDEST SWAP3 SWAP2 POP POP JUMP JUMPDEST PUSH0 PUSH1 0x20 DUP3 DUP5 SUB SLT ISZERO PUSH2 0x157F JUMPI PUSH2 0x157E PUSH2 0x1430 JUMP JUMPDEST JUMPDEST PUSH0 PUSH2 0x158C DUP5 DUP3 DUP6 ADD PUSH2 0x1556 JUMP JUMPDEST SWAP2 POP POP SWAP3 SWAP2 POP POP JUMP JUMPDEST PUSH32 0x4E487B7100000000000000000000000000000000000000000000000000000000 PUSH0 MSTORE PUSH1 0x11 PUSH1 0x4 MSTORE PUSH1 0x24 PUSH0 REVERT JUMPDEST PUSH0 PUSH2 0x15CC DUP3 PUSH2 0x122C JUMP JUMPDEST SWAP2 POP PUSH2 0x15D7 DUP4 PUSH2 0x122C JUMP JUMPDEST SWAP3 POP DUP3 DUP3 SUB SWAP1 POP DUP2 DUP2 GT ISZERO PUSH2 0x15EF JUMPI PUSH2 0x15EE PUSH2 0x1595 JUMP JUMPDEST JUMPDEST SWAP3 SWAP2 POP POP JUMP JUMPDEST PUSH32 0x4E487B7100000000000000000000000000000000000000000000000000000000 PUSH0 MSTORE PUSH1 0x41 PUSH1 0x4 MSTORE PUSH1 0x24 PUSH0 REVERT JUMPDEST PUSH32 0x4E487B7100000000000000000000000000000000000000000000000000000000 PUSH0 MSTORE PUSH1 0x32 PUSH1 0x4 MSTORE PUSH1 0x24 PUSH0 REVERT JUMPDEST PUSH0 DUP3 DUP3 MSTORE PUSH1 0x20 DUP3 ADD SWAP1 POP SWAP3 SWAP2 POP POP JUMP JUMPDEST PUSH32 0x537562617374613A204C612073756261737461206861207465726D696E61646F PUSH0 DUP3 ADD MSTORE PUSH32 0x2E00000000000000000000000000000000000000000000000000000000000000 PUSH1 0x20 DUP3 ADD MSTORE POP JUMP JUMPDEST PUSH0 PUSH2 0x16B9 PUSH1 0x21 DUP4 PUSH2 0x164F JUMP JUMPDEST SWAP2 POP PUSH2 0x16C4 DUP3 PUSH2 0x165F JUMP JUMPDEST PUSH1 0x40 DUP3 ADD SWAP1 POP SWAP2 SWAP1 POP JUMP JUMPDEST PUSH0 PUSH1 0x20 DUP3 ADD SWAP1 POP DUP2 DUP2 SUB PUSH0 DUP4 ADD MSTORE PUSH2 0x16E6 DUP2 PUSH2 0x16AD JUMP JUMPDEST SWAP1 POP SWAP2 SWAP1 POP JUMP JUMPDEST PUSH32 0x537562617374613A204C6120737562617374612079612073652068612066696E PUSH0 DUP3 ADD MSTORE PUSH32 0x616C697A61646F206D616E75616C6D656E74652E000000000000000000000000 PUSH1 0x20 DUP3 ADD MSTORE POP JUMP JUMPDEST PUSH0 PUSH2 0x1747 PUSH1 0x34 DUP4 PUSH2 0x164F JUMP JUMPDEST SWAP2 POP PUSH2 0x1752 DUP3 PUSH2 0x16ED JUMP JUMPDEST PUSH1 0x40 DUP3 ADD SWAP1 POP SWAP2 SWAP1 POP JUMP JUMPDEST PUSH0 PUSH1 0x20 DUP3 ADD SWAP1 POP DUP2 DUP2 SUB PUSH0 DUP4 ADD MSTORE PUSH2 0x1774 DUP2 PUSH2 0x173B JUMP JUMPDEST SWAP1 POP SWAP2 SWAP1 POP JUMP JUMPDEST PUSH32 0x446562657320656E76696172204554482E000000000000000000000000000000 PUSH0 DUP3 ADD MSTORE POP JUMP JUMPDEST PUSH0 PUSH2 0x17AF PUSH1 0x11 DUP4 PUSH2 0x164F JUMP JUMPDEST SWAP2 POP PUSH2 0x17BA DUP3 PUSH2 0x177B JUMP JUMPDEST PUSH1 0x20 DUP3 ADD SWAP1 POP SWAP2 SWAP1 POP JUMP JUMPDEST PUSH0 PUSH1 0x20 DUP3 ADD SWAP1 POP DUP2 DUP2 SUB PUSH0 DUP4 ADD MSTORE PUSH2 0x17DC DUP2 PUSH2 0x17A3 JUMP JUMPDEST SWAP1 POP SWAP2 SWAP1 POP JUMP JUMPDEST PUSH0 PUSH2 0x17ED DUP3 PUSH2 0x122C JUMP JUMPDEST SWAP2 POP PUSH2 0x17F8 DUP4 PUSH2 0x122C JUMP JUMPDEST SWAP3 POP DUP3 DUP3 ADD SWAP1 POP DUP1 DUP3 GT ISZERO PUSH2 0x1810 JUMPI PUSH2 0x180F PUSH2 0x1595 JUMP JUMPDEST JUMPDEST SWAP3 SWAP2 POP POP JUMP JUMPDEST PUSH0 PUSH2 0x1820 DUP3 PUSH2 0x122C JUMP JUMPDEST SWAP2 POP PUSH2 0x182B DUP4 PUSH2 0x122C JUMP JUMPDEST SWAP3 POP DUP3 DUP3 MUL PUSH2 0x1839 DUP2 PUSH2 0x122C JUMP JUMPDEST SWAP2 POP DUP3 DUP3 DIV DUP5 EQ DUP4 ISZERO OR PUSH2 0x1850 JUMPI PUSH2 0x184F PUSH2 0x1595 JUMP JUMPDEST JUMPDEST POP SWAP3 SWAP2 POP POP JUMP JUMPDEST PUSH32 0x4E487B7100000000000000000000000000000000000000000000000000000000 PUSH0 MSTORE PUSH1 0x12 PUSH1 0x4 MSTORE PUSH1 0x24 PUSH0 REVERT JUMPDEST PUSH0 PUSH2 0x188E DUP3 PUSH2 0x122C JUMP JUMPDEST SWAP2 POP PUSH2 0x1899 DUP4 PUSH2 0x122C JUMP JUMPDEST SWAP3 POP DUP3 PUSH2 0x18A9 JUMPI PUSH2 0x18A8 PUSH2 0x1857 JUMP JUMPDEST JUMPDEST DUP3 DUP3 DIV SWAP1 POP SWAP3 SWAP2 POP POP JUMP JUMPDEST PUSH32 0x537562617374613A205375206F66657274612064656265206578636564657220 PUSH0 DUP3 ADD MSTORE PUSH32 0x7375206F66657274612061637475616C20656E20616C206D656E6F7320756E20 PUSH1 0x20 DUP3 ADD MSTORE PUSH32 0x35252E0000000000000000000000000000000000000000000000000000000000 PUSH1 0x40 DUP3 ADD MSTORE POP JUMP JUMPDEST PUSH0 PUSH2 0x1934 PUSH1 0x43 DUP4 PUSH2 0x164F JUMP JUMPDEST SWAP2 POP PUSH2 0x193F DUP3 PUSH2 0x18B4 JUMP JUMPDEST PUSH1 0x60 DUP3 ADD SWAP1 POP SWAP2 SWAP1 POP JUMP JUMPDEST PUSH0 PUSH1 0x20 DUP3 ADD SWAP1 POP DUP2 DUP2 SUB PUSH0 DUP4 ADD MSTORE PUSH2 0x1961 DUP2 PUSH2 0x1928 JUMP JUMPDEST SWAP1 POP SWAP2 SWAP1 POP JUMP JUMPDEST PUSH32 0x537562617374613A204C61207072696D657261206F6665727461206465626520 PUSH0 DUP3 ADD MSTORE PUSH32 0x736572206D61796F7220717565206365726F2E00000000000000000000000000 PUSH1 0x20 DUP3 ADD MSTORE POP JUMP JUMPDEST PUSH0 PUSH2 0x19C2 PUSH1 0x33 DUP4 PUSH2 0x164F JUMP JUMPDEST SWAP2 POP PUSH2 0x19CD DUP3 PUSH2 0x1968 JUMP JUMPDEST PUSH1 0x40 DUP3 ADD SWAP1 POP SWAP2 SWAP1 POP JUMP JUMPDEST PUSH0 PUSH1 0x20 DUP3 ADD SWAP1 POP DUP2 DUP2 SUB PUSH0 DUP4 ADD MSTORE PUSH2 0x19EF DUP2 PUSH2 0x19B6 JUMP JUMPDEST SWAP1 POP SWAP2 SWAP1 POP JUMP JUMPDEST PUSH32 0x537562617374613A205375206F66657274612064656265206578636564657220 PUSH0 DUP3 ADD MSTORE PUSH32 0x6C61206F66657274612061637475616C20656E20616C206D656E6F7320756E20 PUSH1 0x20 DUP3 ADD MSTORE PUSH32 0x35252E0000000000000000000000000000000000000000000000000000000000 PUSH1 0x40 DUP3 ADD MSTORE POP JUMP JUMPDEST PUSH0 PUSH2 0x1A76 PUSH1 0x43 DUP4 PUSH2 0x164F JUMP JUMPDEST SWAP2 POP PUSH2 0x1A81 DUP3 PUSH2 0x19F6 JUMP JUMPDEST PUSH1 0x60 DUP3 ADD SWAP1 POP SWAP2 SWAP1 POP JUMP JUMPDEST PUSH0 PUSH1 0x20 DUP3 ADD SWAP1 POP DUP2 DUP2 SUB PUSH0 DUP4 ADD MSTORE PUSH2 0x1AA3 DUP2 PUSH2 0x1A6A JUMP JUMPDEST SWAP1 POP SWAP2 SWAP1 POP JUMP JUMPDEST PUSH32 0x537562617374613A20536F6C6F20656C2070726F706965746172696F20707565 PUSH0 DUP3 ADD MSTORE PUSH32 0x646520656A656375746172206573746F2E000000000000000000000000000000 PUSH1 0x20 DUP3 ADD MSTORE POP JUMP JUMPDEST PUSH0 PUSH2 0x1B04 PUSH1 0x31 DUP4 PUSH2 0x164F JUMP JUMPDEST SWAP2 POP PUSH2 0x1B0F DUP3 PUSH2 0x1AAA JUMP JUMPDEST PUSH1 0x40 DUP3 ADD SWAP1 POP SWAP2 SWAP1 POP JUMP JUMPDEST PUSH0 PUSH1 0x20 DUP3 ADD SWAP1 POP DUP2 DUP2 SUB PUSH0 DUP4 ADD MSTORE PUSH2 0x1B31 DUP2 PUSH2 0x1AF8 JUMP JUMPDEST SWAP1 POP SWAP2 SWAP1 POP JUMP JUMPDEST PUSH32 0x537562617374613A204C6120737562617374612064656265207365722066696E PUSH0 DUP3 ADD MSTORE PUSH32 0x616C697A61646120706172612072657469726172206C6120636F6D6973696F6E PUSH1 0x20 DUP3 ADD MSTORE PUSH32 0x2E00000000000000000000000000000000000000000000000000000000000000 PUSH1 0x40 DUP3 ADD MSTORE POP JUMP JUMPDEST PUSH0 PUSH2 0x1BB8 PUSH1 0x41 DUP4 PUSH2 0x164F JUMP JUMPDEST SWAP2 POP PUSH2 0x1BC3 DUP3 PUSH2 0x1B38 JUMP JUMPDEST PUSH1 0x60 DUP3 ADD SWAP1 POP SWAP2 SWAP1 POP JUMP JUMPDEST PUSH0 PUSH1 0x20 DUP3 ADD SWAP1 POP DUP2 DUP2 SUB PUSH0 DUP4 ADD MSTORE PUSH2 0x1BE5 DUP2 PUSH2 0x1BAC JUMP JUMPDEST SWAP1 POP SWAP2 SWAP1 POP JUMP JUMPDEST PUSH32 0x537562617374613A204E6F20686179206F66657274612067616E61646F726120 PUSH0 DUP3 ADD MSTORE PUSH32 0x706172612063616C63756C6172206C6120636F6D6973696F6E2E000000000000 PUSH1 0x20 DUP3 ADD MSTORE POP JUMP JUMPDEST PUSH0 PUSH2 0x1C46 PUSH1 0x3A DUP4 PUSH2 0x164F JUMP JUMPDEST SWAP2 POP PUSH2 0x1C51 DUP3 PUSH2 0x1BEC JUMP JUMPDEST PUSH1 0x40 DUP3 ADD SWAP1 POP SWAP2 SWAP1 POP JUMP JUMPDEST PUSH0 PUSH1 0x20 DUP3 ADD SWAP1 POP DUP2 DUP2 SUB PUSH0 DUP4 ADD MSTORE PUSH2 0x1C73 DUP2 PUSH2 0x1C3A JUMP JUMPDEST SWAP1 POP SWAP2 SWAP1 POP JUMP JUMPDEST PUSH32 0x537562617374613A204E6F2068617920636F6D6973696F6E2070617261207265 PUSH0 DUP3 ADD MSTORE PUSH32 0x7469726172206F207961206861207369646F20726574697261646F2E00000000 PUSH1 0x20 DUP3 ADD MSTORE POP JUMP JUMPDEST PUSH0 PUSH2 0x1CD4 PUSH1 0x3C DUP4 PUSH2 0x164F JUMP JUMPDEST SWAP2 POP PUSH2 0x1CDF DUP3 PUSH2 0x1C7A JUMP JUMPDEST PUSH1 0x40 DUP3 ADD SWAP1 POP SWAP2 SWAP1 POP JUMP JUMPDEST PUSH0 PUSH1 0x20 DUP3 ADD SWAP1 POP DUP2 DUP2 SUB PUSH0 DUP4 ADD MSTORE PUSH2 0x1D01 DUP2 PUSH2 0x1CC8 JUMP JUMPDEST SWAP1 POP SWAP2 SWAP1 POP JUMP JUMPDEST PUSH0 DUP2 SWAP1 POP SWAP3 SWAP2 POP POP JUMP JUMPDEST POP JUMP JUMPDEST PUSH0 PUSH2 0x1D20 PUSH0 DUP4 PUSH2 0x1D08 JUMP JUMPDEST SWAP2 POP PUSH2 0x1D2B DUP3 PUSH2 0x1D12 JUMP JUMPDEST PUSH0 DUP3 ADD SWAP1 POP SWAP2 SWAP1 POP JUMP JUMPDEST PUSH0 PUSH2 0x1D3F DUP3 PUSH2 0x1D15 JUMP JUMPDEST SWAP2 POP DUP2 SWAP1 POP SWAP2 SWAP1 POP JUMP JUMPDEST PUSH32 0x537562617374613A204E6F2072657469726F206C6120636F6D6973696F6E2E00 PUSH0 DUP3 ADD MSTORE POP JUMP JUMPDEST PUSH0 PUSH2 0x1D7D PUSH1 0x1F DUP4 PUSH2 0x164F JUMP JUMPDEST SWAP2 POP PUSH2 0x1D88 DUP3 PUSH2 0x1D49 JUMP JUMPDEST PUSH1 0x20 DUP3 ADD SWAP1 POP SWAP2 SWAP1 POP JUMP JUMPDEST PUSH0 PUSH1 0x20 DUP3 ADD SWAP1 POP DUP2 DUP2 SUB PUSH0 DUP4 ADD MSTORE PUSH2 0x1DAA DUP2 PUSH2 0x1D71 JUMP JUMPDEST SWAP1 POP SWAP2 SWAP1 POP JUMP JUMPDEST PUSH32 0x4C6120737562617374612061756E206E6F2073652068612066696E616C697A61 PUSH0 DUP3 ADD MSTORE PUSH32 0x646F2E0000000000000000000000000000000000000000000000000000000000 PUSH1 0x20 DUP3 ADD MSTORE POP JUMP JUMPDEST PUSH0 PUSH2 0x1E0B PUSH1 0x23 DUP4 PUSH2 0x164F JUMP JUMPDEST SWAP2 POP PUSH2 0x1E16 DUP3 PUSH2 0x1DB1 JUMP JUMPDEST PUSH1 0x40 DUP3 ADD SWAP1 POP SWAP2 SWAP1 POP JUMP JUMPDEST PUSH0 PUSH1 0x20 DUP3 ADD SWAP1 POP DUP2 DUP2 SUB PUSH0 DUP4 ADD MSTORE PUSH2 0x1E38 DUP2 PUSH2 0x1DFF JUMP JUMPDEST SWAP1 POP SWAP2 SWAP1 POP JUMP JUMPDEST PUSH32 0x537562617374613A205573746564206E6F20686120686563686F206E696E6775 PUSH0 DUP3 ADD MSTORE PUSH32 0x6E61206F6665727461206F206E6F207469656E65206465706F7369746F732E00 PUSH1 0x20 DUP3 ADD MSTORE POP JUMP JUMPDEST PUSH0 PUSH2 0x1E99 PUSH1 0x3F DUP4 PUSH2 0x164F JUMP JUMPDEST SWAP2 POP PUSH2 0x1EA4 DUP3 PUSH2 0x1E3F JUMP JUMPDEST PUSH1 0x40 DUP3 ADD SWAP1 POP SWAP2 SWAP1 POP JUMP JUMPDEST PUSH0 PUSH1 0x20 DUP3 ADD SWAP1 POP DUP2 DUP2 SUB PUSH0 DUP4 ADD MSTORE PUSH2 0x1EC6 DUP2 PUSH2 0x1E8D JUMP JUMPDEST SWAP1 POP SWAP2 SWAP1 POP JUMP JUMPDEST PUSH32 0x537562617374613A204E6F206861792065786365736F20706172612072657469 PUSH0 DUP3 ADD MSTORE PUSH32 0x726172736520656E2065737465206D6F6D656E746F2E00000000000000000000 PUSH1 0x20 DUP3 ADD MSTORE POP JUMP JUMPDEST PUSH0 PUSH2 0x1F27 PUSH1 0x36 DUP4 PUSH2 0x164F JUMP JUMPDEST SWAP2 POP PUSH2 0x1F32 DUP3 PUSH2 0x1ECD JUMP JUMPDEST PUSH1 0x40 DUP3 ADD SWAP1 POP SWAP2 SWAP1 POP JUMP JUMPDEST PUSH0 PUSH1 0x20 DUP3 ADD SWAP1 POP DUP2 DUP2 SUB PUSH0 DUP4 ADD MSTORE PUSH2 0x1F54 DUP2 PUSH2 0x1F1B JUMP JUMPDEST SWAP1 POP SWAP2 SWAP1 POP JUMP JUMPDEST PUSH32 0x537562617374613A204E6F207365207472616E73666972696F206C612063616E PUSH0 DUP3 ADD MSTORE PUSH32 0x74696461642E0000000000000000000000000000000000000000000000000000 PUSH1 0x20 DUP3 ADD MSTORE POP JUMP JUMPDEST PUSH0 PUSH2 0x1FB5 PUSH1 0x26 DUP4 PUSH2 0x164F JUMP JUMPDEST SWAP2 POP PUSH2 0x1FC0 DUP3 PUSH2 0x1F5B JUMP JUMPDEST PUSH1 0x40 DUP3 ADD SWAP1 POP SWAP2 SWAP1 POP JUMP JUMPDEST PUSH0 PUSH1 0x20 DUP3 ADD SWAP1 POP DUP2 DUP2 SUB PUSH0 DUP4 ADD MSTORE PUSH2 0x1FE2 DUP2 PUSH2 0x1FA9 JUMP JUMPDEST SWAP1 POP SWAP2 SWAP1 POP JUMP JUMPDEST PUSH32 0x537562617374613A204C612073756261737461206E6F206861207465726D696E PUSH0 DUP3 ADD MSTORE PUSH32 0x61646F2E00000000000000000000000000000000000000000000000000000000 PUSH1 0x20 DUP3 ADD MSTORE POP JUMP JUMPDEST PUSH0 PUSH2 0x2043 PUSH1 0x24 DUP4 PUSH2 0x164F JUMP JUMPDEST SWAP2 POP PUSH2 0x204E DUP3 PUSH2 0x1FE9 JUMP JUMPDEST PUSH1 0x40 DUP3 ADD SWAP1 POP SWAP2 SWAP1 POP JUMP JUMPDEST PUSH0 PUSH1 0x20 DUP3 ADD SWAP1 POP DUP2 DUP2 SUB PUSH0 DUP4 ADD MSTORE PUSH2 0x2070 DUP2 PUSH2 0x2037 JUMP JUMPDEST SWAP1 POP SWAP2 SWAP1 POP JUMP JUMPDEST PUSH32 0x4C6120737562617374612079612068612066696E616C697A61646F2E00000000 PUSH0 DUP3 ADD MSTORE POP JUMP JUMPDEST PUSH0 PUSH2 0x20AB PUSH1 0x1C DUP4 PUSH2 0x164F JUMP JUMPDEST SWAP2 POP PUSH2 0x20B6 DUP3 PUSH2 0x2077 JUMP JUMPDEST PUSH1 0x20 DUP3 ADD SWAP1 POP SWAP2 SWAP1 POP JUMP JUMPDEST PUSH0 PUSH1 0x20 DUP3 ADD SWAP1 POP DUP2 DUP2 SUB PUSH0 DUP4 ADD MSTORE PUSH2 0x20D8 DUP2 PUSH2 0x209F JUMP JUMPDEST SWAP1 POP SWAP2 SWAP1 POP JUMP INVALID LOG2 PUSH5 0x6970667358 0x22 SLT KECCAK256 PUSH5 0x363E95A0F9 SWAP9 TIMESTAMP PUSH8 0xB57D9912A7F8B077 0x25 DUP1 EXTCODECOPY BALANCE LT 0x2E 0x22 0xD3 0xD ADD PUSH26 0x706E796F64736F6C634300081E00330000000000000000000000 "
				},
				"gasEstimates": {
					"creation": {
						"codeDepositCost": "1693800",
						"executionCost": "infinite",
						"totalCost": "infinite"
					},
					"external": {
						"COMMISSION_PERCENTAGE()": "415",
						"EXTENSION_TIME()": "392",
						"MIN_GLOBAL_INCREMENT_PERCENTAGE()": "436",
						"MIN_OWN_BID_INCREMENT_PERCENTAGE()": "435",
						"auctionEndTime()": "2470",
						"auctionStartTime()": "2491",
						"bid()": "infinite",
						"bidderList(uint256)": "4966",
						"bids(address)": "infinite",
						"finalizeAuction()": "infinite",
						"finalized()": "2533",
						"owner()": "infinite",
						"showBids()": "infinite",
						"showWinner()": "6967",
						"timeLeft()": "infinite",
						"winner()": "2551",
						"winningBid()": "2448",
						"withdrawCommission()": "infinite",
						"withdrawExcess()": "infinite"
					}
				},
				"methodIdentifiers": {
					"COMMISSION_PERCENTAGE()": "1bf1de9b",
					"EXTENSION_TIME()": "5681104a",
					"MIN_GLOBAL_INCREMENT_PERCENTAGE()": "836898ed",
					"MIN_OWN_BID_INCREMENT_PERCENTAGE()": "f89c6837",
					"auctionEndTime()": "4b449cba",
					"auctionStartTime()": "eb54f9ec",
					"bid()": "1998aeef",
					"bidderList(uint256)": "d3584e84",
					"bids(address)": "62ea82db",
					"finalizeAuction()": "f77282ab",
					"finalized()": "b3f05b97",
					"owner()": "8da5cb5b",
					"showBids()": "14d2687c",
					"showWinner()": "b7e03264",
					"timeLeft()": "1300a6d1",
					"winner()": "dfbf53ae",
					"winningBid()": "8cf80438",
					"withdrawCommission()": "3e25e837",
					"withdrawExcess()": "c264a063"
				}
			},
			"storageLayout": {
				"storage": [
					{
						"astId": 5,
						"contract": "Subasta.sol:Auction",
						"label": "winner",
						"offset": 0,
						"slot": "0",
						"type": "t_address"
					},
					{
						"astId": 7,
						"contract": "Subasta.sol:Auction",
						"label": "winningBid",
						"offset": 0,
						"slot": "1",
						"type": "t_uint256"
					},
					{
						"astId": 9,
						"contract": "Subasta.sol:Auction",
						"label": "auctionStartTime",
						"offset": 0,
						"slot": "2",
						"type": "t_uint256"
					},
					{
						"astId": 11,
						"contract": "Subasta.sol:Auction",
						"label": "auctionEndTime",
						"offset": 0,
						"slot": "3",
						"type": "t_uint256"
					},
					{
						"astId": 13,
						"contract": "Subasta.sol:Auction",
						"label": "finalized",
						"offset": 0,
						"slot": "4",
						"type": "t_bool"
					},
					{
						"astId": 37,
						"contract": "Subasta.sol:Auction",
						"label": "bids",
						"offset": 0,
						"slot": "5",
						"type": "t_mapping(t_address,t_struct(ParticipantBid)32_storage)"
					},
					{
						"astId": 40,
						"contract": "Subasta.sol:Auction",
						"label": "bidderList",
						"offset": 0,
						"slot": "6",
						"type": "t_array(t_address)dyn_storage"
					}
				],
				"types": {
					"t_address": {
						"encoding": "inplace",
						"label": "address",
						"numberOfBytes": "20"
					},
					"t_array(t_address)dyn_storage": {
						"base": "t_address",
						"encoding": "dynamic_array",
						"label": "address[]",
						"numberOfBytes": "32"
					},
					"t_bool": {
						"encoding": "inplace",
						"label": "bool",
						"numberOfBytes": "1"
					},
					"t_mapping(t_address,t_struct(ParticipantBid)32_storage)": {
						"encoding": "mapping",
						"key": "t_address",
						"label": "mapping(address => struct Auction.ParticipantBid)",
						"numberOfBytes": "32",
						"value": "t_struct(ParticipantBid)32_storage"
					},
					"t_struct(ParticipantBid)32_storage": {
						"encoding": "inplace",
						"label": "struct Auction.ParticipantBid",
						"members": [
							{
								"astId": 27,
								"contract": "Subasta.sol:Auction",
								"label": "currentAmount",
								"offset": 0,
								"slot": "0",
								"type": "t_uint256"
							},
							{
								"astId": 29,
								"contract": "Subasta.sol:Auction",
								"label": "totalDeposited",
								"offset": 0,
								"slot": "1",
								"type": "t_uint256"
							},
							{
								"astId": 31,
								"contract": "Subasta.sol:Auction",
								"label": "exists",
								"offset": 0,
								"slot": "2",
								"type": "t_bool"
							}
						],
						"numberOfBytes": "96"
					},
					"t_uint256": {
						"encoding": "inplace",
						"label": "uint256",
						"numberOfBytes": "32"
					}
				}
			},
			"userdoc": {
				"kind": "user",
				"methods": {},
				"version": 1
			}
		}
	}
}